{
  "address": "0x8A791620dd6260079BF849Dc5567aDC3F2FdC318",
  "abi": [
    {
      "inputs": [
        {
          "internalType": "uint256",
          "name": "maxBatchSize_",
          "type": "uint256"
        },
        {
          "internalType": "uint256",
          "name": "collectionSize_",
          "type": "uint256"
        },
        {
          "internalType": "uint256",
          "name": "amountForAuctionAndDev_",
          "type": "uint256"
        },
        {
          "internalType": "uint256",
          "name": "amountForDevs_",
          "type": "uint256"
        }
      ],
      "stateMutability": "nonpayable",
      "type": "constructor"
    },
    {
      "anonymous": false,
      "inputs": [
        {
          "indexed": true,
          "internalType": "address",
          "name": "owner",
          "type": "address"
        },
        {
          "indexed": true,
          "internalType": "address",
          "name": "approved",
          "type": "address"
        },
        {
          "indexed": true,
          "internalType": "uint256",
          "name": "tokenId",
          "type": "uint256"
        }
      ],
      "name": "Approval",
      "type": "event"
    },
    {
      "anonymous": false,
      "inputs": [
        {
          "indexed": true,
          "internalType": "address",
          "name": "owner",
          "type": "address"
        },
        {
          "indexed": true,
          "internalType": "address",
          "name": "operator",
          "type": "address"
        },
        {
          "indexed": false,
          "internalType": "bool",
          "name": "approved",
          "type": "bool"
        }
      ],
      "name": "ApprovalForAll",
      "type": "event"
    },
    {
      "anonymous": false,
      "inputs": [
        {
          "indexed": true,
          "internalType": "address",
          "name": "previousOwner",
          "type": "address"
        },
        {
          "indexed": true,
          "internalType": "address",
          "name": "newOwner",
          "type": "address"
        }
      ],
      "name": "OwnershipTransferred",
      "type": "event"
    },
    {
      "anonymous": false,
      "inputs": [
        {
          "indexed": true,
          "internalType": "address",
          "name": "from",
          "type": "address"
        },
        {
          "indexed": true,
          "internalType": "address",
          "name": "to",
          "type": "address"
        },
        {
          "indexed": true,
          "internalType": "uint256",
          "name": "tokenId",
          "type": "uint256"
        }
      ],
      "name": "Transfer",
      "type": "event"
    },
    {
      "inputs": [],
      "name": "AUCTION_DROP_INTERVAL",
      "outputs": [
        {
          "internalType": "uint256",
          "name": "",
          "type": "uint256"
        }
      ],
      "stateMutability": "view",
      "type": "function"
    },
    {
      "inputs": [],
      "name": "AUCTION_DROP_PER_STEP",
      "outputs": [
        {
          "internalType": "uint256",
          "name": "",
          "type": "uint256"
        }
      ],
      "stateMutability": "view",
      "type": "function"
    },
    {
      "inputs": [],
      "name": "AUCTION_END_PRICE",
      "outputs": [
        {
          "internalType": "uint256",
          "name": "",
          "type": "uint256"
        }
      ],
      "stateMutability": "view",
      "type": "function"
    },
    {
      "inputs": [],
      "name": "AUCTION_PRICE_CURVE_LENGTH",
      "outputs": [
        {
          "internalType": "uint256",
          "name": "",
          "type": "uint256"
        }
      ],
      "stateMutability": "view",
      "type": "function"
    },
    {
      "inputs": [],
      "name": "AUCTION_START_PRICE",
      "outputs": [
        {
          "internalType": "uint256",
          "name": "",
          "type": "uint256"
        }
      ],
      "stateMutability": "view",
      "type": "function"
    },
    {
      "inputs": [
        {
          "internalType": "address",
          "name": "",
          "type": "address"
        }
      ],
      "name": "allowlist",
      "outputs": [
        {
          "internalType": "uint256",
          "name": "",
          "type": "uint256"
        }
      ],
      "stateMutability": "view",
      "type": "function"
    },
    {
      "inputs": [],
      "name": "allowlistMint",
      "outputs": [],
      "stateMutability": "payable",
      "type": "function"
    },
    {
      "inputs": [],
      "name": "amountForAuctionAndDev",
      "outputs": [
        {
          "internalType": "uint256",
          "name": "",
          "type": "uint256"
        }
      ],
      "stateMutability": "view",
      "type": "function"
    },
    {
      "inputs": [],
      "name": "amountForDevs",
      "outputs": [
        {
          "internalType": "uint256",
          "name": "",
          "type": "uint256"
        }
      ],
      "stateMutability": "view",
      "type": "function"
    },
    {
      "inputs": [
        {
          "internalType": "address",
          "name": "to",
          "type": "address"
        },
        {
          "internalType": "uint256",
          "name": "tokenId",
          "type": "uint256"
        }
      ],
      "name": "approve",
      "outputs": [],
      "stateMutability": "nonpayable",
      "type": "function"
    },
    {
      "inputs": [
        {
          "internalType": "uint256",
          "name": "quantity",
          "type": "uint256"
        }
      ],
      "name": "auctionMint",
      "outputs": [],
      "stateMutability": "payable",
      "type": "function"
    },
    {
      "inputs": [
        {
          "internalType": "address",
          "name": "owner",
          "type": "address"
        }
      ],
      "name": "balanceOf",
      "outputs": [
        {
          "internalType": "uint256",
          "name": "",
          "type": "uint256"
        }
      ],
      "stateMutability": "view",
      "type": "function"
    },
    {
      "inputs": [
        {
          "internalType": "uint256",
          "name": "quantity",
          "type": "uint256"
        }
      ],
      "name": "devMint",
      "outputs": [],
      "stateMutability": "nonpayable",
      "type": "function"
    },
    {
      "inputs": [
        {
          "internalType": "uint64",
          "name": "mintlistPriceWei",
          "type": "uint64"
        },
        {
          "internalType": "uint64",
          "name": "publicPriceWei",
          "type": "uint64"
        },
        {
          "internalType": "uint32",
          "name": "publicSaleStartTime",
          "type": "uint32"
        }
      ],
      "name": "endAuctionAndSetupNonAuctionSaleInfo",
      "outputs": [],
      "stateMutability": "nonpayable",
      "type": "function"
    },
    {
      "inputs": [
        {
          "internalType": "uint256",
          "name": "tokenId",
          "type": "uint256"
        }
      ],
      "name": "getApproved",
      "outputs": [
        {
          "internalType": "address",
          "name": "",
          "type": "address"
        }
      ],
      "stateMutability": "view",
      "type": "function"
    },
    {
      "inputs": [
        {
          "internalType": "uint256",
          "name": "_saleStartTime",
          "type": "uint256"
        }
      ],
      "name": "getAuctionPrice",
      "outputs": [
        {
          "internalType": "uint256",
          "name": "",
          "type": "uint256"
        }
      ],
      "stateMutability": "view",
      "type": "function"
    },
    {
      "inputs": [
        {
          "internalType": "uint256",
          "name": "tokenId",
          "type": "uint256"
        }
      ],
      "name": "getOwnershipData",
      "outputs": [
        {
          "components": [
            {
              "internalType": "address",
              "name": "addr",
              "type": "address"
            },
            {
              "internalType": "uint64",
              "name": "startTimestamp",
              "type": "uint64"
            }
          ],
          "internalType": "struct ERC721A.TokenOwnership",
          "name": "",
          "type": "tuple"
        }
      ],
      "stateMutability": "view",
      "type": "function"
    },
    {
      "inputs": [
        {
          "internalType": "address",
          "name": "owner",
          "type": "address"
        },
        {
          "internalType": "address",
          "name": "operator",
          "type": "address"
        }
      ],
      "name": "isApprovedForAll",
      "outputs": [
        {
          "internalType": "bool",
          "name": "",
          "type": "bool"
        }
      ],
      "stateMutability": "view",
      "type": "function"
    },
    {
      "inputs": [
        {
          "internalType": "uint256",
          "name": "publicPriceWei",
          "type": "uint256"
        },
        {
          "internalType": "uint256",
          "name": "publicSaleKey",
          "type": "uint256"
        },
        {
          "internalType": "uint256",
          "name": "publicSaleStartTime",
          "type": "uint256"
        }
      ],
      "name": "isPublicSaleOn",
      "outputs": [
        {
          "internalType": "bool",
          "name": "",
          "type": "bool"
        }
      ],
      "stateMutability": "view",
      "type": "function"
    },
    {
      "inputs": [],
      "name": "maxPerAddressDuringMint",
      "outputs": [
        {
          "internalType": "uint256",
          "name": "",
          "type": "uint256"
        }
      ],
      "stateMutability": "view",
      "type": "function"
    },
    {
      "inputs": [],
      "name": "name",
      "outputs": [
        {
          "internalType": "string",
          "name": "",
          "type": "string"
        }
      ],
      "stateMutability": "view",
      "type": "function"
    },
    {
      "inputs": [],
      "name": "nextOwnerToExplicitlySet",
      "outputs": [
        {
          "internalType": "uint256",
          "name": "",
          "type": "uint256"
        }
      ],
      "stateMutability": "view",
      "type": "function"
    },
    {
      "inputs": [
        {
          "internalType": "address",
          "name": "owner",
          "type": "address"
        }
      ],
      "name": "numberMinted",
      "outputs": [
        {
          "internalType": "uint256",
          "name": "",
          "type": "uint256"
        }
      ],
      "stateMutability": "view",
      "type": "function"
    },
    {
      "inputs": [],
      "name": "owner",
      "outputs": [
        {
          "internalType": "address",
          "name": "",
          "type": "address"
        }
      ],
      "stateMutability": "view",
      "type": "function"
    },
    {
      "inputs": [
        {
          "internalType": "uint256",
          "name": "tokenId",
          "type": "uint256"
        }
      ],
      "name": "ownerOf",
      "outputs": [
        {
          "internalType": "address",
          "name": "",
          "type": "address"
        }
      ],
      "stateMutability": "view",
      "type": "function"
    },
    {
      "inputs": [
        {
          "internalType": "uint256",
          "name": "quantity",
          "type": "uint256"
        },
        {
          "internalType": "uint256",
          "name": "callerPublicSaleKey",
          "type": "uint256"
        }
      ],
      "name": "publicSaleMint",
      "outputs": [],
      "stateMutability": "payable",
      "type": "function"
    },
    {
      "inputs": [],
      "name": "renounceOwnership",
      "outputs": [],
      "stateMutability": "nonpayable",
      "type": "function"
    },
    {
      "inputs": [
        {
          "internalType": "address",
          "name": "from",
          "type": "address"
        },
        {
          "internalType": "address",
          "name": "to",
          "type": "address"
        },
        {
          "internalType": "uint256",
          "name": "tokenId",
          "type": "uint256"
        }
      ],
      "name": "safeTransferFrom",
      "outputs": [],
      "stateMutability": "nonpayable",
      "type": "function"
    },
    {
      "inputs": [
        {
          "internalType": "address",
          "name": "from",
          "type": "address"
        },
        {
          "internalType": "address",
          "name": "to",
          "type": "address"
        },
        {
          "internalType": "uint256",
          "name": "tokenId",
          "type": "uint256"
        },
        {
          "internalType": "bytes",
          "name": "_data",
          "type": "bytes"
        }
      ],
      "name": "safeTransferFrom",
      "outputs": [],
      "stateMutability": "nonpayable",
      "type": "function"
    },
    {
      "inputs": [],
      "name": "saleConfig",
      "outputs": [
        {
          "internalType": "uint32",
          "name": "auctionSaleStartTime",
          "type": "uint32"
        },
        {
          "internalType": "uint32",
          "name": "publicSaleStartTime",
          "type": "uint32"
        },
        {
          "internalType": "uint64",
          "name": "mintlistPrice",
          "type": "uint64"
        },
        {
          "internalType": "uint64",
          "name": "publicPrice",
          "type": "uint64"
        },
        {
          "internalType": "uint32",
          "name": "publicSaleKey",
          "type": "uint32"
        }
      ],
      "stateMutability": "view",
      "type": "function"
    },
    {
      "inputs": [
        {
          "internalType": "address[]",
          "name": "addresses",
          "type": "address[]"
        },
        {
          "internalType": "uint256[]",
          "name": "numSlots",
          "type": "uint256[]"
        }
      ],
      "name": "seedAllowlist",
      "outputs": [],
      "stateMutability": "nonpayable",
      "type": "function"
    },
    {
      "inputs": [
        {
          "internalType": "address",
          "name": "operator",
          "type": "address"
        },
        {
          "internalType": "bool",
          "name": "approved",
          "type": "bool"
        }
      ],
      "name": "setApprovalForAll",
      "outputs": [],
      "stateMutability": "nonpayable",
      "type": "function"
    },
    {
      "inputs": [
        {
          "internalType": "uint32",
          "name": "timestamp",
          "type": "uint32"
        }
      ],
      "name": "setAuctionSaleStartTime",
      "outputs": [],
      "stateMutability": "nonpayable",
      "type": "function"
    },
    {
      "inputs": [
        {
          "internalType": "string",
          "name": "baseURI",
          "type": "string"
        }
      ],
      "name": "setBaseURI",
      "outputs": [],
      "stateMutability": "nonpayable",
      "type": "function"
    },
    {
      "inputs": [
        {
          "internalType": "uint256",
          "name": "quantity",
          "type": "uint256"
        }
      ],
      "name": "setOwnersExplicit",
      "outputs": [],
      "stateMutability": "nonpayable",
      "type": "function"
    },
    {
      "inputs": [
        {
          "internalType": "uint32",
          "name": "key",
          "type": "uint32"
        }
      ],
      "name": "setPublicSaleKey",
      "outputs": [],
      "stateMutability": "nonpayable",
      "type": "function"
    },
    {
      "inputs": [
        {
          "internalType": "bytes4",
          "name": "interfaceId",
          "type": "bytes4"
        }
      ],
      "name": "supportsInterface",
      "outputs": [
        {
          "internalType": "bool",
          "name": "",
          "type": "bool"
        }
      ],
      "stateMutability": "view",
      "type": "function"
    },
    {
      "inputs": [],
      "name": "symbol",
      "outputs": [
        {
          "internalType": "string",
          "name": "",
          "type": "string"
        }
      ],
      "stateMutability": "view",
      "type": "function"
    },
    {
      "inputs": [
        {
          "internalType": "uint256",
          "name": "index",
          "type": "uint256"
        }
      ],
      "name": "tokenByIndex",
      "outputs": [
        {
          "internalType": "uint256",
          "name": "",
          "type": "uint256"
        }
      ],
      "stateMutability": "view",
      "type": "function"
    },
    {
      "inputs": [
        {
          "internalType": "address",
          "name": "owner",
          "type": "address"
        },
        {
          "internalType": "uint256",
          "name": "index",
          "type": "uint256"
        }
      ],
      "name": "tokenOfOwnerByIndex",
      "outputs": [
        {
          "internalType": "uint256",
          "name": "",
          "type": "uint256"
        }
      ],
      "stateMutability": "view",
      "type": "function"
    },
    {
      "inputs": [
        {
          "internalType": "uint256",
          "name": "tokenId",
          "type": "uint256"
        }
      ],
      "name": "tokenURI",
      "outputs": [
        {
          "internalType": "string",
          "name": "",
          "type": "string"
        }
      ],
      "stateMutability": "view",
      "type": "function"
    },
    {
      "inputs": [],
      "name": "totalSupply",
      "outputs": [
        {
          "internalType": "uint256",
          "name": "",
          "type": "uint256"
        }
      ],
      "stateMutability": "view",
      "type": "function"
    },
    {
      "inputs": [
        {
          "internalType": "address",
          "name": "from",
          "type": "address"
        },
        {
          "internalType": "address",
          "name": "to",
          "type": "address"
        },
        {
          "internalType": "uint256",
          "name": "tokenId",
          "type": "uint256"
        }
      ],
      "name": "transferFrom",
      "outputs": [],
      "stateMutability": "nonpayable",
      "type": "function"
    },
    {
      "inputs": [
        {
          "internalType": "address",
          "name": "newOwner",
          "type": "address"
        }
      ],
      "name": "transferOwnership",
      "outputs": [],
      "stateMutability": "nonpayable",
      "type": "function"
    },
    {
      "inputs": [],
      "name": "withdrawMoney",
      "outputs": [],
      "stateMutability": "nonpayable",
      "type": "function"
    }
  ],
  "transactionHash": "0xfa7ea3bd530f480176e9b83dec042adbd9fcece3adf9f8a27db9af387438d2c3",
  "args": [
    2,
    100,
    10,
    10
  ],
  "numDeployments": 1,
  "solcInputHash": "d29d0a4aa605700d4f9021892298b8ef",
  "bytecode": "0x610120604052600060015560006008553480156200001c57600080fd5b506040516200376c3803806200376c8339810160408190526200003f9162000308565b60405180604001604052806005815260200164417a756b6960d81b81525060405180604001604052806005815260200164415a554b4960d81b815250858562000097620000916200020e60201b60201c565b62000212565b60008111620001045760405162461bcd60e51b815260206004820152602e60248201527f455243373231413a20636f6c6c656374696f6e206d757374206861766520612060448201526d6e6f6e7a65726f20737570706c7960901b60648201526084015b60405180910390fd5b60008211620001665760405162461bcd60e51b815260206004820152602760248201527f455243373231413a206d61782062617463682073697a65206d757374206265206044820152666e6f6e7a65726f60c81b6064820152608401620000fb565b83516200017b90600290602087019062000262565b5082516200019190600390602086019062000262565b5060a0919091526080525050600160095560c084905261010082905260e081905282821115620002045760405162461bcd60e51b815260206004820152601d60248201527f6c617267657220636f6c6c656374696f6e2073697a65206e65656465640000006044820152606401620000fb565b505050506200037c565b3390565b600080546001600160a01b038381166001600160a01b0319831681178455604051919092169283917f8be0079c531659141344cd1fd0a4f28419497f9722a3daafe3b4186f6b6457e09190a35050565b82805462000270906200033f565b90600052602060002090601f016020900481019282620002945760008555620002df565b82601f10620002af57805160ff1916838001178555620002df565b82800160010185558215620002df579182015b82811115620002df578251825591602001919060010190620002c2565b50620002ed929150620002f1565b5090565b5b80821115620002ed5760008155600101620002f2565b600080600080608085870312156200031f57600080fd5b505082516020840151604085015160609095015191969095509092509050565b600181811c908216806200035457607f821691505b602082108114156200037657634e487b7160e01b600052602260045260246000fd5b50919050565b60805160a05160c05160e05161010051613357620004156000396000818161049401526112180152600081816108ab0152610e38015260008181610584015281816112d20152611b57015260008181610ece01528181610f5c01528181610f94015281816123be015281816123e8015261289a0152600081816110a701528181611adf0152818161211f015261215101526133576000f3fe6080604052600436106102725760003560e01c8063715018a61161014f578063ac446002116100c1578063d7224ba01161007a578063d7224ba0146107e4578063dc33e681146107fa578063e985e9c51461081a578063f2fde38b14610863578063f8a987d814610883578063fbe1aa511461089957600080fd5b8063ac44600214610740578063b05863d514610755578063b88d4fde14610775578063c87b56dd14610795578063caf8a6d1146107b5578063cb91d8b3146107d157600080fd5b806390aa0b0f1161011357806390aa0b0f146105e4578063917d009e146106715780639231ab2a1461069157806395d89b41146106de578063a22cb465146106f3578063a7cd52cb1461071357600080fd5b8063715018a6146105415780637a1c4a56146105565780638bc35c2f146105725780638da5cb5b146105a657806390028083146105c457600080fd5b8063422030ba116101e85780635666c880116101ac5780635666c8801461048257806359f369fe146104b65780635cae01d3146104cb5780636352211e146104e15780636ebc56011461050157806370a082311461052157600080fd5b8063422030ba146103ef57806342842e0e1461040f5780634d3554c31461042f5780634f6ccce71461044257806355f804b31461046257600080fd5b806318160ddd1161023a57806318160ddd1461034857806323b872dd146103675780632d20fb60146103875780632f745c59146103a7578063375a069a146103c757806341fbddbd146103e757600080fd5b806301ffc9a71461027757806306fdde03146102ac578063081812fc146102ce578063095ea7b31461030657806316e6e15a14610328575b600080fd5b34801561028357600080fd5b50610297610292366004612b5d565b6108cd565b60405190151581526020015b60405180910390f35b3480156102b857600080fd5b506102c161093a565b6040516102a39190612bd2565b3480156102da57600080fd5b506102ee6102e9366004612be5565b6109cc565b6040516001600160a01b0390911681526020016102a3565b34801561031257600080fd5b50610326610321366004612c15565b610a5c565b005b34801561033457600080fd5b50610326610343366004612c6a565b610b74565b34801561035457600080fd5b506001545b6040519081526020016102a3565b34801561037357600080fd5b50610326610382366004612cad565b610c3a565b34801561039357600080fd5b506103266103a2366004612be5565b610c45565b3480156103b357600080fd5b506103596103c2366004612c15565b610cb6565b3480156103d357600080fd5b506103266103e2366004612be5565b610e2e565b610326610fca565b3480156103fb57600080fd5b5061029761040a366004612ce9565b611154565b34801561041b57600080fd5b5061032661042a366004612cad565b611178565b61032661043d366004612be5565b611193565b34801561044e57600080fd5b5061035961045d366004612be5565b611377565b34801561046e57600080fd5b5061032661047d366004612d15565b6113e0565b34801561048e57600080fd5b506103597f000000000000000000000000000000000000000000000000000000000000000081565b3480156104c257600080fd5b506103596113f4565b3480156104d757600080fd5b506103596104b081565b3480156104ed57600080fd5b506102ee6104fc366004612be5565b611429565b34801561050d57600080fd5b5061032661051c366004612d86565b61143b565b34801561052d57600080fd5b5061035961053c366004612da1565b61145f565b34801561054d57600080fd5b506103266114f0565b34801561056257600080fd5b50610359670de0b6b3a764000081565b34801561057e57600080fd5b506103597f000000000000000000000000000000000000000000000000000000000000000081565b3480156105b257600080fd5b506000546001600160a01b03166102ee565b3480156105d057600080fd5b506103266105df366004612d86565b611504565b3480156105f057600080fd5b50600a546106359063ffffffff8082169164010000000081048216916001600160401b03600160401b8304811692600160801b810490911691600160c01b9091041685565b6040805163ffffffff968716815294861660208601526001600160401b039384169085015291166060830152909116608082015260a0016102a3565b34801561067d57600080fd5b5061035961068c366004612be5565b611532565b34801561069d57600080fd5b506106b16106ac366004612be5565b6115e1565b6040805182516001600160a01b031681526020928301516001600160401b031692810192909252016102a3565b3480156106ea57600080fd5b506102c16115fe565b3480156106ff57600080fd5b5061032661070e366004612dbc565b61160d565b34801561071f57600080fd5b5061035961072e366004612da1565b600b6020526000908152604090205481565b34801561074c57600080fd5b506103266116d2565b34801561076157600080fd5b50610326610770366004612ecc565b6117bd565b34801561078157600080fd5b50610326610790366004612f8b565b6118a2565b3480156107a157600080fd5b506102c16107b0366004612be5565b6118db565b3480156107c157600080fd5b50610359670214e8348c4f000081565b6103266107df36600461304a565b6119a7565b3480156107f057600080fd5b5061035960085481565b34801561080657600080fd5b50610359610815366004612da1565b611bf5565b34801561082657600080fd5b5061029761083536600461306c565b6001600160a01b03918216600090815260076020908152604080832093909416825291909152205460ff1690565b34801561086f57600080fd5b5061032661087e366004612da1565b611c00565b34801561088f57600080fd5b50610359614fb081565b3480156108a557600080fd5b506103597f000000000000000000000000000000000000000000000000000000000000000081565b60006001600160e01b031982166380ac58cd60e01b14806108fe57506001600160e01b03198216635b5e139f60e01b145b8061091957506001600160e01b0319821663780e9d6360e01b145b8061093457506301ffc9a760e01b6001600160e01b03198316145b92915050565b6060600280546109499061309f565b80601f01602080910402602001604051908101604052809291908181526020018280546109759061309f565b80156109c25780601f10610997576101008083540402835291602001916109c2565b820191906000526020600020905b8154815290600101906020018083116109a557829003601f168201915b5050505050905090565b60006109d9826001541190565b610a405760405162461bcd60e51b815260206004820152602d60248201527f455243373231413a20617070726f76656420717565727920666f72206e6f6e6560448201526c3c34b9ba32b73a103a37b5b2b760991b60648201526084015b60405180910390fd5b506000908152600660205260409020546001600160a01b031690565b6000610a6782611429565b9050806001600160a01b0316836001600160a01b03161415610ad65760405162461bcd60e51b815260206004820152602260248201527f455243373231413a20617070726f76616c20746f2063757272656e74206f776e60448201526132b960f11b6064820152608401610a37565b336001600160a01b0382161480610af25750610af28133610835565b610b645760405162461bcd60e51b815260206004820152603960248201527f455243373231413a20617070726f76652063616c6c6572206973206e6f74206f60448201527f776e6572206e6f7220617070726f76656420666f7220616c6c000000000000006064820152608401610a37565b610b6f838383611c76565b505050565b610b7c611cd2565b6040805160a0810182526000815263ffffffff928316602082018190526001600160401b039586169282018390529390941660608501819052600a8054600160c01b80820490951660809097018790526fffffffffffffffffffffffffffffffff19166401000000009095026fffffffffffffffff0000000000000000191694909417600160401b909202919091176bffffffffffffffffffffffff60801b1916600160801b90910263ffffffff60c01b1916179202919091179055565b610b6f838383611d2c565b610c4d611cd2565b60026009541415610ca05760405162461bcd60e51b815260206004820152601f60248201527f5265656e7472616e637947756172643a207265656e7472616e742063616c6c006044820152606401610a37565b6002600955610cae816120ae565b506001600955565b6000610cc18361145f565b8210610d1a5760405162461bcd60e51b815260206004820152602260248201527f455243373231413a206f776e657220696e646578206f7574206f6620626f756e604482015261647360f01b6064820152608401610a37565b6000610d2560015490565b905060008060005b83811015610dce576000818152600460209081526040918290208251808401909352546001600160a01b038116808452600160a01b9091046001600160401b03169183019190915215610d7f57805192505b876001600160a01b0316836001600160a01b03161415610dbb5786841415610dad5750935061093492505050565b83610db7816130f0565b9450505b5080610dc6816130f0565b915050610d2d565b5060405162461bcd60e51b815260206004820152602e60248201527f455243373231413a20756e61626c6520746f2067657420746f6b656e206f662060448201526d0deeedccae440c4f240d2dcc8caf60931b6064820152608401610a37565b610e36611cd2565b7f000000000000000000000000000000000000000000000000000000000000000081610e6160015490565b610e6b919061310b565b1115610ec95760405162461bcd60e51b815260206004820152602760248201527f746f6f206d616e7920616c7265616479206d696e746564206265666f72652064604482015266195d881b5a5b9d60ca1b6064820152608401610a37565b610ef37f000000000000000000000000000000000000000000000000000000000000000082613139565b15610f555760405162461bcd60e51b815260206004820152602c60248201527f63616e206f6e6c79206d696e742061206d756c7469706c65206f66207468652060448201526b6d6178426174636853697a6560a01b6064820152608401610a37565b6000610f817f00000000000000000000000000000000000000000000000000000000000000008361314d565b905060005b81811015610b6f57610fb8337f0000000000000000000000000000000000000000000000000000000000000000612297565b80610fc2816130f0565b915050610f86565b323314610fe95760405162461bcd60e51b8152600401610a3790613161565b600a54600160401b90046001600160401b0316806110495760405162461bcd60e51b815260206004820181905260248201527f616c6c6f776c6973742073616c6520686173206e6f7420626567756e207965746044820152606401610a37565b336000908152600b60205260409020546110a55760405162461bcd60e51b815260206004820152601f60248201527f6e6f7420656c696769626c6520666f7220616c6c6f776c697374206d696e74006044820152606401610a37565b7f00000000000000000000000000000000000000000000000000000000000000006110cf60015490565b6110da90600161310b565b111561111d5760405162461bcd60e51b815260206004820152601260248201527172656163686564206d617820737570706c7960701b6044820152606401610a37565b336000908152600b6020526040812080549161113883613198565b9190505550611148336001612297565b611151816122b5565b50565b6000831580159061116457508215155b80156111705750814210155b949350505050565b610b6f838383604051806020016040528060008152506118a2565b3233146111b25760405162461bcd60e51b8152600401610a3790613161565b600a5463ffffffff1680158015906111ca5750804210155b6112165760405162461bcd60e51b815260206004820152601860248201527f73616c6520686173206e6f7420737461727465642079657400000000000000006044820152606401610a37565b7f00000000000000000000000000000000000000000000000000000000000000008261124160015490565b61124b919061310b565b11156112d05760405162461bcd60e51b815260206004820152604860248201527f6e6f7420656e6f7567682072656d61696e696e6720726573657276656420666f60448201527f722061756374696f6e20746f20737570706f72742064657369726564206d696e6064820152671d08185b5bdd5b9d60c21b608482015260a401610a37565b7f0000000000000000000000000000000000000000000000000000000000000000826112fb33611bf5565b611305919061310b565b111561134c5760405162461bcd60e51b815260206004820152601660248201527563616e206e6f74206d696e742074686973206d616e7960501b6044820152606401610a37565b60008261135883611532565b61136291906131af565b905061136e3384612297565b610b6f816122b5565b600061138260015490565b82106113dc5760405162461bcd60e51b815260206004820152602360248201527f455243373231413a20676c6f62616c20696e646578206f7574206f6620626f756044820152626e647360e81b6064820152608401610a37565b5090565b6113e8611cd2565b610b6f600c8383612ab7565b6114026104b0614fb061314d565b61141c670214e8348c4f0000670de0b6b3a76400006131ce565b611426919061314d565b81565b60006114348261233c565b5192915050565b611443611cd2565b600a805463ffffffff191663ffffffff92909216919091179055565b60006001600160a01b0382166114cb5760405162461bcd60e51b815260206004820152602b60248201527f455243373231413a2062616c616e636520717565727920666f7220746865207a60448201526a65726f206164647265737360a81b6064820152608401610a37565b506001600160a01b03166000908152600560205260409020546001600160801b031690565b6114f8611cd2565b61150260006124e5565b565b61150c611cd2565b600a805463ffffffff909216600160c01b0263ffffffff60c01b19909216919091179055565b60008142101561154b5750670de0b6b3a7640000919050565b614fb061155883426131ce565b1061156c5750670214e8348c4f0000919050565b60006104b061157b84426131ce565b611585919061314d565b90506115956104b0614fb061314d565b6115af670214e8348c4f0000670de0b6b3a76400006131ce565b6115b9919061314d565b6115c390826131af565b6115d590670de0b6b3a76400006131ce565b9392505050565b919050565b60408051808201909152600080825260208201526109348261233c565b6060600380546109499061309f565b6001600160a01b0382163314156116665760405162461bcd60e51b815260206004820152601a60248201527f455243373231413a20617070726f766520746f2063616c6c65720000000000006044820152606401610a37565b3360008181526007602090815260408083206001600160a01b03871680855290835292819020805460ff191686151590811790915590519081529192917f17307eab39ab6107e8899845ad3d59bd9653f200f220920489ca2b5937696c31910160405180910390a35050565b6116da611cd2565b6002600954141561172d5760405162461bcd60e51b815260206004820152601f60248201527f5265656e7472616e637947756172643a207265656e7472616e742063616c6c006044820152606401610a37565b6002600955604051600090339047908381818185875af1925050503d8060008114611774576040519150601f19603f3d011682016040523d82523d6000602084013e611779565b606091505b5050905080610cae5760405162461bcd60e51b815260206004820152601060248201526f2a3930b739b332b9103330b4b632b21760811b6044820152606401610a37565b6117c5611cd2565b80518251146118275760405162461bcd60e51b815260206004820152602860248201527f61646472657373657320646f6573206e6f74206d61746368206e756d536c6f746044820152670e640d8cadccee8d60c31b6064820152608401610a37565b60005b8251811015610b6f57818181518110611845576118456131e5565b6020026020010151600b6000858481518110611863576118636131e5565b60200260200101516001600160a01b03166001600160a01b0316815260200190815260200160002081905550808061189a906130f0565b91505061182a565b6118ad848484611d2c565b6118b984848484612535565b6118d55760405162461bcd60e51b8152600401610a37906131fb565b50505050565b60606118e8826001541190565b61194c5760405162461bcd60e51b815260206004820152602f60248201527f4552433732314d657461646174613a2055524920717565727920666f72206e6f60448201526e3732bc34b9ba32b73a103a37b5b2b760891b6064820152608401610a37565b6000611956612633565b9050600081511161197657604051806020016040528060008152506115d5565b8061198084612642565b60405160200161199192919061324e565b6040516020818303038152906040529392505050565b3233146119c65760405162461bcd60e51b8152600401610a3790613161565b6040805160a081018252600a5463ffffffff808216835264010000000082048116602084018190526001600160401b03600160401b8404811695850195909552600160801b830490941660608401819052600160c01b90920416608083018190529192848314611a865760405162461bcd60e51b815260206004820152602560248201527f63616c6c6564207769746820696e636f7272656374207075626c69632073616c60448201526465206b657960d81b6064820152608401610a37565b611a91828483611154565b611add5760405162461bcd60e51b815260206004820152601d60248201527f7075626c69632073616c6520686173206e6f7420626567756e207965740000006044820152606401610a37565b7f000000000000000000000000000000000000000000000000000000000000000086611b0860015490565b611b12919061310b565b1115611b555760405162461bcd60e51b815260206004820152601260248201527172656163686564206d617820737570706c7960701b6044820152606401610a37565b7f000000000000000000000000000000000000000000000000000000000000000086611b8033611bf5565b611b8a919061310b565b1115611bd15760405162461bcd60e51b815260206004820152601660248201527563616e206e6f74206d696e742074686973206d616e7960501b6044820152606401610a37565b611bdb3387612297565b611bed611be887846131af565b6122b5565b505050505050565b60006109348261273f565b611c08611cd2565b6001600160a01b038116611c6d5760405162461bcd60e51b815260206004820152602660248201527f4f776e61626c653a206e6577206f776e657220697320746865207a65726f206160448201526564647265737360d01b6064820152608401610a37565b611151816124e5565b60008281526006602052604080822080546001600160a01b0319166001600160a01b0387811691821790925591518593918516917f8c5be1e5ebec7d5bd14f71427d1e84f3dd0314c0f7b2291e5b200ac8c7c3b92591a4505050565b6000546001600160a01b031633146115025760405162461bcd60e51b815260206004820181905260248201527f4f776e61626c653a2063616c6c6572206973206e6f7420746865206f776e65726044820152606401610a37565b6000611d378261233c565b80519091506000906001600160a01b0316336001600160a01b03161480611d6e575033611d63846109cc565b6001600160a01b0316145b80611d8057508151611d809033610835565b905080611dea5760405162461bcd60e51b815260206004820152603260248201527f455243373231413a207472616e736665722063616c6c6572206973206e6f74206044820152711bdddb995c881b9bdc88185c1c1c9bdd995960721b6064820152608401610a37565b846001600160a01b031682600001516001600160a01b031614611e5e5760405162461bcd60e51b815260206004820152602660248201527f455243373231413a207472616e736665722066726f6d20696e636f72726563746044820152651037bbb732b960d11b6064820152608401610a37565b6001600160a01b038416611ec25760405162461bcd60e51b815260206004820152602560248201527f455243373231413a207472616e7366657220746f20746865207a65726f206164604482015264647265737360d81b6064820152608401610a37565b611ed26000848460000151611c76565b6001600160a01b0385166000908152600560205260408120805460019290611f049084906001600160801b031661327d565b82546101009290920a6001600160801b038181021990931691831602179091556001600160a01b03861660009081526005602052604081208054600194509092611f50918591166132a5565b82546001600160801b039182166101009390930a9283029190920219909116179055506040805180820182526001600160a01b0380871682526001600160401b03428116602080850191825260008981526004909152948520935184549151909216600160a01b026001600160e01b03199091169190921617179055611fd784600161310b565b6000818152600460205260409020549091506001600160a01b031661206857612001816001541190565b156120685760408051808201825284516001600160a01b0390811682526020808701516001600160401b039081168285019081526000878152600490935294909120925183549451909116600160a01b026001600160e01b03199094169116179190911790555b83856001600160a01b0316876001600160a01b03167fddf252ad1be2c89b69c2b068fc378daa952ba7f163c4a11628f55a4df523b3ef60405160405180910390a4611bed565b600854816120fe5760405162461bcd60e51b815260206004820152601860248201527f7175616e74697479206d757374206265206e6f6e7a65726f00000000000000006044820152606401610a37565b6000600161210c848461310b565b61211691906131ce565b905061214360017f00000000000000000000000000000000000000000000000000000000000000006131ce565b8111156121785761217560017f00000000000000000000000000000000000000000000000000000000000000006131ce565b90505b612183816001541190565b6121de5760405162461bcd60e51b815260206004820152602660248201527f6e6f7420656e6f756768206d696e7465642079657420666f722074686973206360448201526506c65616e75760d41b6064820152608401610a37565b815b818111612283576000818152600460205260409020546001600160a01b031661227157600061220e8261233c565b60408051808201825282516001600160a01b0390811682526020938401516001600160401b039081168584019081526000888152600490965293909420915182549351909416600160a01b026001600160e01b0319909316931692909217179055505b8061227b816130f0565b9150506121e0565b5061228f81600161310b565b600855505050565b6122b18282604051806020016040528060008152506127dd565b5050565b803410156122fe5760405162461bcd60e51b81526020600482015260166024820152752732b2b2103a379039b2b7321036b7b9329022aa241760511b6044820152606401610a37565b8034111561115157336108fc61231483346131ce565b6040518115909202916000818181858888f193505050501580156122b1573d6000803e3d6000fd5b604080518082019091526000808252602082015261235b826001541190565b6123ba5760405162461bcd60e51b815260206004820152602a60248201527f455243373231413a206f776e657220717565727920666f72206e6f6e657869736044820152693a32b73a103a37b5b2b760b11b6064820152608401610a37565b60007f0000000000000000000000000000000000000000000000000000000000000000831061241b5761240d7f0000000000000000000000000000000000000000000000000000000000000000846131ce565b61241890600161310b565b90505b825b818110612484576000818152600460209081526040918290208251808401909352546001600160a01b038116808452600160a01b9091046001600160401b0316918301919091521561247157949350505050565b508061247c81613198565b91505061241d565b5060405162461bcd60e51b815260206004820152602f60248201527f455243373231413a20756e61626c6520746f2064657465726d696e652074686560448201526e1037bbb732b91037b3103a37b5b2b760891b6064820152608401610a37565b600080546001600160a01b038381166001600160a01b0319831681178455604051919092169283917f8be0079c531659141344cd1fd0a4f28419497f9722a3daafe3b4186f6b6457e09190a35050565b60006001600160a01b0384163b1561262857604051630a85bd0160e11b81526001600160a01b0385169063150b7a02906125799033908990889088906004016132c7565b6020604051808303816000875af19250505080156125b4575060408051601f3d908101601f191682019092526125b191810190613304565b60015b61260e573d8080156125e2576040519150601f19603f3d011682016040523d82523d6000602084013e6125e7565b606091505b5080516126065760405162461bcd60e51b8152600401610a37906131fb565b805181602001fd5b6001600160e01b031916630a85bd0160e11b149050611170565b506001949350505050565b6060600c80546109499061309f565b6060816126665750506040805180820190915260018152600360fc1b602082015290565b8160005b8115612690578061267a816130f0565b91506126899050600a8361314d565b915061266a565b6000816001600160401b038111156126aa576126aa612df8565b6040519080825280601f01601f1916602001820160405280156126d4576020820181803683370190505b5090505b8415611170576126e96001836131ce565b91506126f6600a86613139565b61270190603061310b565b60f81b818381518110612716576127166131e5565b60200101906001600160f81b031916908160001a905350612738600a8661314d565b94506126d8565b60006001600160a01b0382166127b15760405162461bcd60e51b815260206004820152603160248201527f455243373231413a206e756d626572206d696e74656420717565727920666f7260448201527020746865207a65726f206164647265737360781b6064820152608401610a37565b506001600160a01b0316600090815260056020526040902054600160801b90046001600160801b031690565b6001546001600160a01b0384166128405760405162461bcd60e51b815260206004820152602160248201527f455243373231413a206d696e7420746f20746865207a65726f206164647265736044820152607360f81b6064820152608401610a37565b61284b816001541190565b156128985760405162461bcd60e51b815260206004820152601d60248201527f455243373231413a20746f6b656e20616c7265616479206d696e7465640000006044820152606401610a37565b7f00000000000000000000000000000000000000000000000000000000000000008311156129135760405162461bcd60e51b815260206004820152602260248201527f455243373231413a207175616e7469747920746f206d696e7420746f6f2068696044820152610ced60f31b6064820152608401610a37565b6001600160a01b0384166000908152600560209081526040918290208251808401845290546001600160801b038082168352600160801b909104169181019190915281518083019092528051909190819061296f9087906132a5565b6001600160801b0316815260200185836020015161298d91906132a5565b6001600160801b039081169091526001600160a01b0380881660008181526005602090815260408083208751978301518716600160801b029790961696909617909455845180860186529182526001600160401b034281168386019081528883526004909552948120915182549451909516600160a01b026001600160e01b031990941694909216939093179190911790915582905b85811015612aac5760405182906001600160a01b038916906000907fddf252ad1be2c89b69c2b068fc378daa952ba7f163c4a11628f55a4df523b3ef908290a4612a706000888488612535565b612a8c5760405162461bcd60e51b8152600401610a37906131fb565b81612a96816130f0565b9250508080612aa4906130f0565b915050612a23565b506001819055611bed565b828054612ac39061309f565b90600052602060002090601f016020900481019282612ae55760008555612b2b565b82601f10612afe5782800160ff19823516178555612b2b565b82800160010185558215612b2b579182015b82811115612b2b578235825591602001919060010190612b10565b506113dc9291505b808211156113dc5760008155600101612b33565b6001600160e01b03198116811461115157600080fd5b600060208284031215612b6f57600080fd5b81356115d581612b47565b60005b83811015612b95578181015183820152602001612b7d565b838111156118d55750506000910152565b60008151808452612bbe816020860160208601612b7a565b601f01601f19169290920160200192915050565b6020815260006115d56020830184612ba6565b600060208284031215612bf757600080fd5b5035919050565b80356001600160a01b03811681146115dc57600080fd5b60008060408385031215612c2857600080fd5b612c3183612bfe565b946020939093013593505050565b80356001600160401b03811681146115dc57600080fd5b803563ffffffff811681146115dc57600080fd5b600080600060608486031215612c7f57600080fd5b612c8884612c3f565b9250612c9660208501612c3f565b9150612ca460408501612c56565b90509250925092565b600080600060608486031215612cc257600080fd5b612ccb84612bfe565b9250612cd960208501612bfe565b9150604084013590509250925092565b600080600060608486031215612cfe57600080fd5b505081359360208301359350604090920135919050565b60008060208385031215612d2857600080fd5b82356001600160401b0380821115612d3f57600080fd5b818501915085601f830112612d5357600080fd5b813581811115612d6257600080fd5b866020828501011115612d7457600080fd5b60209290920196919550909350505050565b600060208284031215612d9857600080fd5b6115d582612c56565b600060208284031215612db357600080fd5b6115d582612bfe565b60008060408385031215612dcf57600080fd5b612dd883612bfe565b915060208301358015158114612ded57600080fd5b809150509250929050565b634e487b7160e01b600052604160045260246000fd5b604051601f8201601f191681016001600160401b0381118282101715612e3657612e36612df8565b604052919050565b60006001600160401b03821115612e5757612e57612df8565b5060051b60200190565b600082601f830112612e7257600080fd5b81356020612e87612e8283612e3e565b612e0e565b82815260059290921b84018101918181019086841115612ea657600080fd5b8286015b84811015612ec15780358352918301918301612eaa565b509695505050505050565b60008060408385031215612edf57600080fd5b82356001600160401b0380821115612ef657600080fd5b818501915085601f830112612f0a57600080fd5b81356020612f1a612e8283612e3e565b82815260059290921b84018101918181019089841115612f3957600080fd5b948201945b83861015612f5e57612f4f86612bfe565b82529482019490820190612f3e565b96505086013592505080821115612f7457600080fd5b50612f8185828601612e61565b9150509250929050565b60008060008060808587031215612fa157600080fd5b612faa85612bfe565b93506020612fb9818701612bfe565b93506040860135925060608601356001600160401b0380821115612fdc57600080fd5b818801915088601f830112612ff057600080fd5b81358181111561300257613002612df8565b613014601f8201601f19168501612e0e565b9150808252898482850101111561302a57600080fd5b808484018584013760008482840101525080935050505092959194509250565b6000806040838503121561305d57600080fd5b50508035926020909101359150565b6000806040838503121561307f57600080fd5b61308883612bfe565b915061309660208401612bfe565b90509250929050565b600181811c908216806130b357607f821691505b602082108114156130d457634e487b7160e01b600052602260045260246000fd5b50919050565b634e487b7160e01b600052601160045260246000fd5b6000600019821415613104576131046130da565b5060010190565b6000821982111561311e5761311e6130da565b500190565b634e487b7160e01b600052601260045260246000fd5b60008261314857613148613123565b500690565b60008261315c5761315c613123565b500490565b6020808252601e908201527f5468652063616c6c657220697320616e6f7468657220636f6e74726163740000604082015260600190565b6000816131a7576131a76130da565b506000190190565b60008160001904831182151516156131c9576131c96130da565b500290565b6000828210156131e0576131e06130da565b500390565b634e487b7160e01b600052603260045260246000fd5b60208082526033908201527f455243373231413a207472616e7366657220746f206e6f6e204552433732315260408201527232b1b2b4bb32b91034b6b83632b6b2b73a32b960691b606082015260800190565b60008351613260818460208801612b7a565b835190830190613274818360208801612b7a565b01949350505050565b60006001600160801b038381169083168181101561329d5761329d6130da565b039392505050565b60006001600160801b03808316818516808303821115613274576132746130da565b6001600160a01b03858116825284166020820152604081018390526080606082018190526000906132fa90830184612ba6565b9695505050505050565b60006020828403121561331657600080fd5b81516115d581612b4756fea26469706673582212200ea59b493ab485337f96c31a5de5a6eb9b510020061d40fa51920195b6ced86b64736f6c634300080c0033",
  "devdoc": {
    "kind": "dev",
    "methods": {
      "approve(address,uint256)": {
        "details": "See {IERC721-approve}."
      },
      "balanceOf(address)": {
        "details": "See {IERC721-balanceOf}."
      },
      "getApproved(uint256)": {
        "details": "See {IERC721-getApproved}."
      },
      "isApprovedForAll(address,address)": {
        "details": "See {IERC721-isApprovedForAll}."
      },
      "name()": {
        "details": "See {IERC721Metadata-name}."
      },
      "owner()": {
        "details": "Returns the address of the current owner."
      },
      "ownerOf(uint256)": {
        "details": "See {IERC721-ownerOf}."
      },
      "renounceOwnership()": {
        "details": "Leaves the contract without owner. It will not be possible to call `onlyOwner` functions anymore. Can only be called by the current owner. NOTE: Renouncing ownership will leave the contract without an owner, thereby removing any functionality that is only available to the owner."
      },
      "safeTransferFrom(address,address,uint256)": {
        "details": "See {IERC721-safeTransferFrom}."
      },
      "safeTransferFrom(address,address,uint256,bytes)": {
        "details": "See {IERC721-safeTransferFrom}."
      },
      "setApprovalForAll(address,bool)": {
        "details": "See {IERC721-setApprovalForAll}."
      },
      "supportsInterface(bytes4)": {
        "details": "See {IERC165-supportsInterface}."
      },
      "symbol()": {
        "details": "See {IERC721Metadata-symbol}."
      },
      "tokenByIndex(uint256)": {
        "details": "See {IERC721Enumerable-tokenByIndex}."
      },
      "tokenOfOwnerByIndex(address,uint256)": {
        "details": "See {IERC721Enumerable-tokenOfOwnerByIndex}. This read function is O(collectionSize). If calling from a separate contract, be sure to test gas first. It may also degrade with extremely large collection sizes (e.g >> 10000), test for your use case."
      },
      "tokenURI(uint256)": {
        "details": "See {IERC721Metadata-tokenURI}."
      },
      "totalSupply()": {
        "details": "See {IERC721Enumerable-totalSupply}."
      },
      "transferFrom(address,address,uint256)": {
        "details": "See {IERC721-transferFrom}."
      },
      "transferOwnership(address)": {
        "details": "Transfers ownership of the contract to a new account (`newOwner`). Can only be called by the current owner."
      }
    },
    "version": 1
  },
  "userdoc": {
    "kind": "user",
    "methods": {},
    "version": 1
  },
  "storageLayout": {
    "storage": [
      {
        "astId": 1045,
        "contract": "contracts/ERC721A/Ikuza.sol:Ikuza",
        "label": "_owner",
        "offset": 0,
        "slot": "0",
        "type": "t_address"
      },
      {
        "astId": 8082,
        "contract": "contracts/ERC721A/Ikuza.sol:Ikuza",
        "label": "currentIndex",
        "offset": 0,
        "slot": "1",
        "type": "t_uint256"
      },
      {
        "astId": 8088,
        "contract": "contracts/ERC721A/Ikuza.sol:Ikuza",
        "label": "_name",
        "offset": 0,
        "slot": "2",
        "type": "t_string_storage"
      },
      {
        "astId": 8090,
        "contract": "contracts/ERC721A/Ikuza.sol:Ikuza",
        "label": "_symbol",
        "offset": 0,
        "slot": "3",
        "type": "t_string_storage"
      },
      {
        "astId": 8095,
        "contract": "contracts/ERC721A/Ikuza.sol:Ikuza",
        "label": "_ownerships",
        "offset": 0,
        "slot": "4",
        "type": "t_mapping(t_uint256,t_struct(TokenOwnership)8074_storage)"
      },
      {
        "astId": 8100,
        "contract": "contracts/ERC721A/Ikuza.sol:Ikuza",
        "label": "_addressData",
        "offset": 0,
        "slot": "5",
        "type": "t_mapping(t_address,t_struct(AddressData)8079_storage)"
      },
      {
        "astId": 8104,
        "contract": "contracts/ERC721A/Ikuza.sol:Ikuza",
        "label": "_tokenApprovals",
        "offset": 0,
        "slot": "6",
        "type": "t_mapping(t_uint256,t_address)"
      },
      {
        "astId": 8110,
        "contract": "contracts/ERC721A/Ikuza.sol:Ikuza",
        "label": "_operatorApprovals",
        "offset": 0,
        "slot": "7",
        "type": "t_mapping(t_address,t_mapping(t_address,t_bool))"
      },
      {
        "astId": 9053,
        "contract": "contracts/ERC721A/Ikuza.sol:Ikuza",
        "label": "nextOwnerToExplicitlySet",
        "offset": 0,
        "slot": "8",
        "type": "t_uint256"
      },
      {
        "astId": 1503,
        "contract": "contracts/ERC721A/Ikuza.sol:Ikuza",
        "label": "_status",
        "offset": 0,
        "slot": "9",
        "type": "t_uint256"
      },
      {
        "astId": 9269,
        "contract": "contracts/ERC721A/Ikuza.sol:Ikuza",
        "label": "saleConfig",
        "offset": 0,
        "slot": "10",
        "type": "t_struct(SaleConfig)9266_storage"
      },
      {
        "astId": 9273,
        "contract": "contracts/ERC721A/Ikuza.sol:Ikuza",
        "label": "allowlist",
        "offset": 0,
        "slot": "11",
        "type": "t_mapping(t_address,t_uint256)"
      },
      {
        "astId": 9809,
        "contract": "contracts/ERC721A/Ikuza.sol:Ikuza",
        "label": "_baseTokenURI",
        "offset": 0,
        "slot": "12",
        "type": "t_string_storage"
      }
    ],
    "types": {
      "t_address": {
        "encoding": "inplace",
        "label": "address",
        "numberOfBytes": "20"
      },
      "t_bool": {
        "encoding": "inplace",
        "label": "bool",
        "numberOfBytes": "1"
      },
      "t_mapping(t_address,t_bool)": {
        "encoding": "mapping",
        "key": "t_address",
        "label": "mapping(address => bool)",
        "numberOfBytes": "32",
        "value": "t_bool"
      },
      "t_mapping(t_address,t_mapping(t_address,t_bool))": {
        "encoding": "mapping",
        "key": "t_address",
        "label": "mapping(address => mapping(address => bool))",
        "numberOfBytes": "32",
        "value": "t_mapping(t_address,t_bool)"
      },
      "t_mapping(t_address,t_struct(AddressData)8079_storage)": {
        "encoding": "mapping",
        "key": "t_address",
        "label": "mapping(address => struct ERC721A.AddressData)",
        "numberOfBytes": "32",
        "value": "t_struct(AddressData)8079_storage"
      },
      "t_mapping(t_address,t_uint256)": {
        "encoding": "mapping",
        "key": "t_address",
        "label": "mapping(address => uint256)",
        "numberOfBytes": "32",
        "value": "t_uint256"
      },
      "t_mapping(t_uint256,t_address)": {
        "encoding": "mapping",
        "key": "t_uint256",
        "label": "mapping(uint256 => address)",
        "numberOfBytes": "32",
        "value": "t_address"
      },
      "t_mapping(t_uint256,t_struct(TokenOwnership)8074_storage)": {
        "encoding": "mapping",
        "key": "t_uint256",
        "label": "mapping(uint256 => struct ERC721A.TokenOwnership)",
        "numberOfBytes": "32",
        "value": "t_struct(TokenOwnership)8074_storage"
      },
      "t_string_storage": {
        "encoding": "bytes",
        "label": "string",
        "numberOfBytes": "32"
      },
      "t_struct(AddressData)8079_storage": {
        "encoding": "inplace",
        "label": "struct ERC721A.AddressData",
        "members": [
          {
            "astId": 8076,
            "contract": "contracts/ERC721A/Ikuza.sol:Ikuza",
            "label": "balance",
            "offset": 0,
            "slot": "0",
            "type": "t_uint128"
          },
          {
            "astId": 8078,
            "contract": "contracts/ERC721A/Ikuza.sol:Ikuza",
            "label": "numberMinted",
            "offset": 16,
            "slot": "0",
            "type": "t_uint128"
          }
        ],
        "numberOfBytes": "32"
      },
      "t_struct(SaleConfig)9266_storage": {
        "encoding": "inplace",
        "label": "struct Ikuza.SaleConfig",
        "members": [
          {
            "astId": 9257,
            "contract": "contracts/ERC721A/Ikuza.sol:Ikuza",
            "label": "auctionSaleStartTime",
            "offset": 0,
            "slot": "0",
            "type": "t_uint32"
          },
          {
            "astId": 9259,
            "contract": "contracts/ERC721A/Ikuza.sol:Ikuza",
            "label": "publicSaleStartTime",
            "offset": 4,
            "slot": "0",
            "type": "t_uint32"
          },
          {
            "astId": 9261,
            "contract": "contracts/ERC721A/Ikuza.sol:Ikuza",
            "label": "mintlistPrice",
            "offset": 8,
            "slot": "0",
            "type": "t_uint64"
          },
          {
            "astId": 9263,
            "contract": "contracts/ERC721A/Ikuza.sol:Ikuza",
            "label": "publicPrice",
            "offset": 16,
            "slot": "0",
            "type": "t_uint64"
          },
          {
            "astId": 9265,
            "contract": "contracts/ERC721A/Ikuza.sol:Ikuza",
            "label": "publicSaleKey",
            "offset": 24,
            "slot": "0",
            "type": "t_uint32"
          }
        ],
        "numberOfBytes": "32"
      },
      "t_struct(TokenOwnership)8074_storage": {
        "encoding": "inplace",
        "label": "struct ERC721A.TokenOwnership",
        "members": [
          {
            "astId": 8071,
            "contract": "contracts/ERC721A/Ikuza.sol:Ikuza",
            "label": "addr",
            "offset": 0,
            "slot": "0",
            "type": "t_address"
          },
          {
            "astId": 8073,
            "contract": "contracts/ERC721A/Ikuza.sol:Ikuza",
            "label": "startTimestamp",
            "offset": 20,
            "slot": "0",
            "type": "t_uint64"
          }
        ],
        "numberOfBytes": "32"
      },
      "t_uint128": {
        "encoding": "inplace",
        "label": "uint128",
        "numberOfBytes": "16"
      },
      "t_uint256": {
        "encoding": "inplace",
        "label": "uint256",
        "numberOfBytes": "32"
      },
      "t_uint32": {
        "encoding": "inplace",
        "label": "uint32",
        "numberOfBytes": "4"
      },
      "t_uint64": {
        "encoding": "inplace",
        "label": "uint64",
        "numberOfBytes": "8"
      }
    }
  }
}