{
  "address": "0x5FC8d32690cc91D4c39d9d3abcBD16989F875707",
  "abi": [
    {
      "inputs": [
        {
          "internalType": "address",
          "name": "vrfCoordinatorV2",
          "type": "address"
        },
        {
          "internalType": "uint64",
          "name": "subscriptionId",
          "type": "uint64"
        },
        {
          "internalType": "bytes32",
          "name": "gasLane",
          "type": "bytes32"
        },
        {
          "internalType": "uint256",
          "name": "interval",
          "type": "uint256"
        },
        {
          "internalType": "uint256",
          "name": "entranceFee",
          "type": "uint256"
        },
        {
          "internalType": "uint32",
          "name": "callbackGasLimit",
          "type": "uint32"
        }
      ],
      "stateMutability": "nonpayable",
      "type": "constructor"
    },
    {
      "inputs": [],
      "name": "Lotto_LottoNotOpen",
      "type": "error"
    },
    {
      "inputs": [],
      "name": "Lotto_SendMoreToEnterLotto",
      "type": "error"
    },
    {
      "inputs": [
        {
          "internalType": "uint256",
          "name": "currentBalance",
          "type": "uint256"
        },
        {
          "internalType": "uint256",
          "name": "numPlayers",
          "type": "uint256"
        },
        {
          "internalType": "uint256",
          "name": "lottoState",
          "type": "uint256"
        }
      ],
      "name": "Lotto_UpkeepNotNeeded",
      "type": "error"
    },
    {
      "inputs": [
        {
          "internalType": "address",
          "name": "have",
          "type": "address"
        },
        {
          "internalType": "address",
          "name": "want",
          "type": "address"
        }
      ],
      "name": "OnlyCoordinatorCanFulfill",
      "type": "error"
    },
    {
      "anonymous": false,
      "inputs": [
        {
          "indexed": true,
          "internalType": "address",
          "name": "owner",
          "type": "address"
        },
        {
          "indexed": true,
          "internalType": "address",
          "name": "approved",
          "type": "address"
        },
        {
          "indexed": true,
          "internalType": "uint256",
          "name": "tokenId",
          "type": "uint256"
        }
      ],
      "name": "Approval",
      "type": "event"
    },
    {
      "anonymous": false,
      "inputs": [
        {
          "indexed": true,
          "internalType": "address",
          "name": "owner",
          "type": "address"
        },
        {
          "indexed": true,
          "internalType": "address",
          "name": "operator",
          "type": "address"
        },
        {
          "indexed": false,
          "internalType": "bool",
          "name": "approved",
          "type": "bool"
        }
      ],
      "name": "ApprovalForAll",
      "type": "event"
    },
    {
      "anonymous": false,
      "inputs": [
        {
          "indexed": false,
          "internalType": "address",
          "name": "account",
          "type": "address"
        },
        {
          "indexed": false,
          "internalType": "uint256",
          "name": "timestamp",
          "type": "uint256"
        }
      ],
      "name": "Registered",
      "type": "event"
    },
    {
      "anonymous": false,
      "inputs": [
        {
          "indexed": true,
          "internalType": "uint256",
          "name": "requestId",
          "type": "uint256"
        }
      ],
      "name": "RequestedRandomness",
      "type": "event"
    },
    {
      "anonymous": false,
      "inputs": [
        {
          "indexed": true,
          "internalType": "address",
          "name": "from",
          "type": "address"
        },
        {
          "indexed": true,
          "internalType": "address",
          "name": "to",
          "type": "address"
        },
        {
          "indexed": true,
          "internalType": "uint256",
          "name": "tokenId",
          "type": "uint256"
        }
      ],
      "name": "Transfer",
      "type": "event"
    },
    {
      "anonymous": false,
      "inputs": [
        {
          "indexed": true,
          "internalType": "address",
          "name": "player",
          "type": "address"
        }
      ],
      "name": "WinnerPicked",
      "type": "event"
    },
    {
      "inputs": [
        {
          "internalType": "address",
          "name": "to",
          "type": "address"
        },
        {
          "internalType": "uint256",
          "name": "tokenId",
          "type": "uint256"
        }
      ],
      "name": "approve",
      "outputs": [],
      "stateMutability": "nonpayable",
      "type": "function"
    },
    {
      "inputs": [
        {
          "internalType": "address",
          "name": "owner",
          "type": "address"
        }
      ],
      "name": "balanceOf",
      "outputs": [
        {
          "internalType": "uint256",
          "name": "",
          "type": "uint256"
        }
      ],
      "stateMutability": "view",
      "type": "function"
    },
    {
      "inputs": [
        {
          "internalType": "bytes",
          "name": "",
          "type": "bytes"
        }
      ],
      "name": "checkUpkeep",
      "outputs": [
        {
          "internalType": "bool",
          "name": "upKeepNeeded",
          "type": "bool"
        },
        {
          "internalType": "bytes",
          "name": "",
          "type": "bytes"
        }
      ],
      "stateMutability": "view",
      "type": "function"
    },
    {
      "inputs": [
        {
          "internalType": "uint256",
          "name": "tokenId",
          "type": "uint256"
        }
      ],
      "name": "getApproved",
      "outputs": [
        {
          "internalType": "address",
          "name": "",
          "type": "address"
        }
      ],
      "stateMutability": "view",
      "type": "function"
    },
    {
      "inputs": [],
      "name": "getBalance",
      "outputs": [
        {
          "internalType": "uint256",
          "name": "",
          "type": "uint256"
        }
      ],
      "stateMutability": "view",
      "type": "function"
    },
    {
      "inputs": [],
      "name": "getEntranceFee",
      "outputs": [
        {
          "internalType": "uint256",
          "name": "",
          "type": "uint256"
        }
      ],
      "stateMutability": "view",
      "type": "function"
    },
    {
      "inputs": [],
      "name": "getInterval",
      "outputs": [
        {
          "internalType": "uint256",
          "name": "",
          "type": "uint256"
        }
      ],
      "stateMutability": "view",
      "type": "function"
    },
    {
      "inputs": [],
      "name": "getLastTimeStamp",
      "outputs": [
        {
          "internalType": "uint256",
          "name": "",
          "type": "uint256"
        }
      ],
      "stateMutability": "view",
      "type": "function"
    },
    {
      "inputs": [],
      "name": "getLottoState",
      "outputs": [
        {
          "internalType": "enum Lotto.LottoState",
          "name": "",
          "type": "uint8"
        }
      ],
      "stateMutability": "view",
      "type": "function"
    },
    {
      "inputs": [
        {
          "internalType": "uint256",
          "name": "index",
          "type": "uint256"
        }
      ],
      "name": "getPlayer",
      "outputs": [
        {
          "internalType": "address",
          "name": "",
          "type": "address"
        }
      ],
      "stateMutability": "view",
      "type": "function"
    },
    {
      "inputs": [],
      "name": "getRecentWinner",
      "outputs": [
        {
          "internalType": "address",
          "name": "",
          "type": "address"
        }
      ],
      "stateMutability": "view",
      "type": "function"
    },
    {
      "inputs": [
        {
          "internalType": "address",
          "name": "owner",
          "type": "address"
        },
        {
          "internalType": "address",
          "name": "operator",
          "type": "address"
        }
      ],
      "name": "isApprovedForAll",
      "outputs": [
        {
          "internalType": "bool",
          "name": "",
          "type": "bool"
        }
      ],
      "stateMutability": "view",
      "type": "function"
    },
    {
      "inputs": [],
      "name": "name",
      "outputs": [
        {
          "internalType": "string",
          "name": "",
          "type": "string"
        }
      ],
      "stateMutability": "view",
      "type": "function"
    },
    {
      "inputs": [
        {
          "internalType": "uint256",
          "name": "tokenId",
          "type": "uint256"
        }
      ],
      "name": "ownerOf",
      "outputs": [
        {
          "internalType": "address",
          "name": "",
          "type": "address"
        }
      ],
      "stateMutability": "view",
      "type": "function"
    },
    {
      "inputs": [
        {
          "internalType": "bytes",
          "name": "",
          "type": "bytes"
        }
      ],
      "name": "performUpkeep",
      "outputs": [],
      "stateMutability": "nonpayable",
      "type": "function"
    },
    {
      "inputs": [
        {
          "internalType": "uint256",
          "name": "requestId",
          "type": "uint256"
        },
        {
          "internalType": "uint256[]",
          "name": "randomWords",
          "type": "uint256[]"
        }
      ],
      "name": "rawFulfillRandomWords",
      "outputs": [],
      "stateMutability": "nonpayable",
      "type": "function"
    },
    {
      "inputs": [],
      "name": "register",
      "outputs": [],
      "stateMutability": "payable",
      "type": "function"
    },
    {
      "inputs": [
        {
          "internalType": "address",
          "name": "",
          "type": "address"
        }
      ],
      "name": "registeredAccounts",
      "outputs": [
        {
          "internalType": "bool",
          "name": "isRegistered",
          "type": "bool"
        },
        {
          "internalType": "uint256",
          "name": "date",
          "type": "uint256"
        }
      ],
      "stateMutability": "view",
      "type": "function"
    },
    {
      "inputs": [
        {
          "internalType": "uint256",
          "name": "",
          "type": "uint256"
        }
      ],
      "name": "requestToSender",
      "outputs": [
        {
          "internalType": "address",
          "name": "",
          "type": "address"
        }
      ],
      "stateMutability": "view",
      "type": "function"
    },
    {
      "inputs": [
        {
          "internalType": "address",
          "name": "from",
          "type": "address"
        },
        {
          "internalType": "address",
          "name": "to",
          "type": "address"
        },
        {
          "internalType": "uint256",
          "name": "tokenId",
          "type": "uint256"
        }
      ],
      "name": "safeTransferFrom",
      "outputs": [],
      "stateMutability": "nonpayable",
      "type": "function"
    },
    {
      "inputs": [
        {
          "internalType": "address",
          "name": "from",
          "type": "address"
        },
        {
          "internalType": "address",
          "name": "to",
          "type": "address"
        },
        {
          "internalType": "uint256",
          "name": "tokenId",
          "type": "uint256"
        },
        {
          "internalType": "bytes",
          "name": "data",
          "type": "bytes"
        }
      ],
      "name": "safeTransferFrom",
      "outputs": [],
      "stateMutability": "nonpayable",
      "type": "function"
    },
    {
      "inputs": [
        {
          "internalType": "address",
          "name": "operator",
          "type": "address"
        },
        {
          "internalType": "bool",
          "name": "approved",
          "type": "bool"
        }
      ],
      "name": "setApprovalForAll",
      "outputs": [],
      "stateMutability": "nonpayable",
      "type": "function"
    },
    {
      "inputs": [
        {
          "internalType": "bytes4",
          "name": "interfaceId",
          "type": "bytes4"
        }
      ],
      "name": "supportsInterface",
      "outputs": [
        {
          "internalType": "bool",
          "name": "",
          "type": "bool"
        }
      ],
      "stateMutability": "view",
      "type": "function"
    },
    {
      "inputs": [],
      "name": "symbol",
      "outputs": [
        {
          "internalType": "string",
          "name": "",
          "type": "string"
        }
      ],
      "stateMutability": "view",
      "type": "function"
    },
    {
      "inputs": [
        {
          "internalType": "uint256",
          "name": "",
          "type": "uint256"
        }
      ],
      "name": "tokenIdToNftInfo",
      "outputs": [
        {
          "internalType": "address",
          "name": "winner",
          "type": "address"
        },
        {
          "internalType": "uint256",
          "name": "t1",
          "type": "uint256"
        },
        {
          "internalType": "uint256",
          "name": "t2",
          "type": "uint256"
        }
      ],
      "stateMutability": "view",
      "type": "function"
    },
    {
      "inputs": [
        {
          "internalType": "uint256",
          "name": "tokenId",
          "type": "uint256"
        }
      ],
      "name": "tokenURI",
      "outputs": [
        {
          "internalType": "string",
          "name": "",
          "type": "string"
        }
      ],
      "stateMutability": "view",
      "type": "function"
    },
    {
      "inputs": [
        {
          "internalType": "address",
          "name": "from",
          "type": "address"
        },
        {
          "internalType": "address",
          "name": "to",
          "type": "address"
        },
        {
          "internalType": "uint256",
          "name": "tokenId",
          "type": "uint256"
        }
      ],
      "name": "transferFrom",
      "outputs": [],
      "stateMutability": "nonpayable",
      "type": "function"
    },
    {
      "inputs": [],
      "name": "withdraw",
      "outputs": [],
      "stateMutability": "nonpayable",
      "type": "function"
    },
    {
      "stateMutability": "payable",
      "type": "receive"
    }
  ],
  "transactionHash": "0x26a42d9f8e6a1008f944a27b0009fc14f25ad80f68e1fdbee9cd61aa824e6d6c",
  "args": [
    "0x5FbDB2315678afecb367f032d93F642f64180aa3",
    "1",
    "0xd89b2bf150e3b9e13446986e571fb9cab24b13cea0a43ea20a6049a85cc807cc",
    "30",
    "10000000000000000",
    "500000"
  ],
  "numDeployments": 1,
  "solcInputHash": "d29d0a4aa605700d4f9021892298b8ef",
  "bytecode": "0x6101406040526007805461ffff60c01b1916600360c01b1790553480156200002657600080fd5b50604051620023ec380380620023ec8339810160408190526200004991620001bf565b60408051808201825260058152644c4f54544f60d81b6020808301918252835180850190945260038452621313d560ea1b90840152815189939162000092916000919062000119565b508051620000a890600190602084019062000119565b5050506001600160a01b039081166080529590951660a05260e092909252610100526001600160401b0390911660c0526007805461012092909252426008556001600160a01b031963ffffffff909316600160a01b02929092166001600160c01b031990911617331790556200028b565b82805462000127906200024e565b90600052602060002090601f0160209004810192826200014b576000855562000196565b82601f106200016657805160ff191683800117855562000196565b8280016001018555821562000196579182015b828111156200019657825182559160200191906001019062000179565b50620001a4929150620001a8565b5090565b5b80821115620001a45760008155600101620001a9565b60008060008060008060c08789031215620001d957600080fd5b86516001600160a01b0381168114620001f157600080fd5b60208801519096506001600160401b03811681146200020f57600080fd5b8095505060408701519350606087015192506080870151915060a087015163ffffffff811681146200024057600080fd5b809150509295509295509295565b600181811c908216806200026357607f821691505b602082108114156200028557634e487b7160e01b600052602260045260246000fd5b50919050565b60805160a05160c05160e05161010051610120516120fc620002f060003960008181610287015261085101526000818161048b0152610ddb01526000610c2401526000610c4a01526000610cb20152600081816109e90152610a2b01526120fc6000f3fe6080604052600436106101bb5760003560e01c8063477b13db116100ec578063b678647a1161008a578063c87b56dd11610064578063c87b56dd1461054f578063d8fa638d1461056f578063e55ae4e8146105c0578063e985e9c5146105e057600080fd5b8063b678647a146104e4578063b88d4fde1461051a578063c1c244e81461053a57600080fd5b806370a08231116100c657806370a082311461045c57806391ad27b41461047c57806395d89b41146104af578063a22cb465146104c457600080fd5b8063477b13db146103a35780636352211e1461040e5780636e04ff0d1461042e57600080fd5b80631fe543e3116101595780633ccfd60b116101335780633ccfd60b1461033057806342842e0e146103455780634585e33b14610365578063473f1ddc1461038557600080fd5b80631fe543e3146102d057806323b872dd146102f05780632aea97fe1461031057600080fd5b8063095ea7b311610195578063095ea7b31461025657806309bc33a71461027857806312065fe0146102b55780631aa3a008146102c857600080fd5b806301ffc9a7146101c757806306fdde03146101fc578063081812fc1461021e57600080fd5b366101c257005b600080fd5b3480156101d357600080fd5b506101e76101e2366004611a17565b610629565b60405190151581526020015b60405180910390f35b34801561020857600080fd5b5061021161067b565b6040516101f39190611a8c565b34801561022a57600080fd5b5061023e610239366004611a9f565b61070d565b6040516001600160a01b0390911681526020016101f3565b34801561026257600080fd5b50610276610271366004611ad4565b610734565b005b34801561028457600080fd5b507f00000000000000000000000000000000000000000000000000000000000000005b6040519081526020016101f3565b3480156102c157600080fd5b50476102a7565b61027661084f565b3480156102dc57600080fd5b506102766102eb366004611b45565b6109de565b3480156102fc57600080fd5b5061027661030b366004611bf7565b610a66565b34801561031c57600080fd5b50600b5460ff166040516101f39190611c49565b34801561033c57600080fd5b50610276610a97565b34801561035157600080fd5b50610276610360366004611bf7565b610b81565b34801561037157600080fd5b50610276610380366004611c71565b610b9c565b34801561039157600080fd5b506009546001600160a01b031661023e565b3480156103af57600080fd5b506103e96103be366004611a9f565b600e602052600090815260409020805460018201546002909201546001600160a01b03909116919083565b604080516001600160a01b0390941684526020840192909252908201526060016101f3565b34801561041a57600080fd5b5061023e610429366004611a9f565b610d53565b34801561043a57600080fd5b5061044e610449366004611d53565b610db3565b6040516101f3929190611d88565b34801561046857600080fd5b506102a7610477366004611da3565b610e59565b34801561048857600080fd5b507f00000000000000000000000000000000000000000000000000000000000000006102a7565b3480156104bb57600080fd5b50610211610edf565b3480156104d057600080fd5b506102766104df366004611dbe565b610eee565b3480156104f057600080fd5b5061023e6104ff366004611a9f565b600d602052600090815260409020546001600160a01b031681565b34801561052657600080fd5b50610276610535366004611dfa565b610ef9565b34801561054657600080fd5b506008546102a7565b34801561055b57600080fd5b5061021161056a366004611a9f565b610f31565b34801561057b57600080fd5b506105a961058a366004611da3565b600c602052600090815260409020805460019091015460ff9091169082565b6040805192151583526020830191909152016101f3565b3480156105cc57600080fd5b5061023e6105db366004611a9f565b610fa5565b3480156105ec57600080fd5b506101e76105fb366004611e62565b6001600160a01b03918216600090815260056020908152604080832093909416825291909152205460ff1690565b60006001600160e01b031982166380ac58cd60e01b148061065a57506001600160e01b03198216635b5e139f60e01b145b8061067557506301ffc9a760e01b6001600160e01b03198316145b92915050565b60606000805461068a90611e95565b80601f01602080910402602001604051908101604052809291908181526020018280546106b690611e95565b80156107035780601f106106d857610100808354040283529160200191610703565b820191906000526020600020905b8154815290600101906020018083116106e657829003601f168201915b5050505050905090565b600061071882610fd5565b506000908152600460205260409020546001600160a01b031690565b600061073f82610d53565b9050806001600160a01b0316836001600160a01b031614156107b25760405162461bcd60e51b815260206004820152602160248201527f4552433732313a20617070726f76616c20746f2063757272656e74206f776e656044820152603960f91b60648201526084015b60405180910390fd5b336001600160a01b03821614806107ce57506107ce81336105fb565b6108405760405162461bcd60e51b815260206004820152603e60248201527f4552433732313a20617070726f76652063616c6c6572206973206e6f7420746f60448201527f6b656e206f776e6572206e6f7220617070726f76656420666f7220616c6c000060648201526084016107a9565b61084a8383611037565b505050565b7f00000000000000000000000000000000000000000000000000000000000000003410156108905760405163c1945a7760e01b815260040160405180910390fd5b6000600b5460ff1660018111156108a9576108a9611c33565b146108c757604051632a82150960e11b815260040160405180910390fd5b336000908152600c602052604090205460ff161561091c5760405162461bcd60e51b815260206004820152601260248201527172656769737465726564206164647265737360701b60448201526064016107a9565b336000818152600c602081815260408084208151808301835281546001808352428387018181528a8a529787528351151560ff19909316929092178455955192860192909255600a805495860181559095527fc65a7bb8d6351c1cf70c95a316cc6a92839c986682d98bc35f958f4883f9d2a890930180546001600160a01b0319168617905580519485529084019190915290917f6f3bf3fa84e4763a43b3d23f9d79be242d6d5c834941ff4c1111b67469e1150c910160405180910390a150565b336001600160a01b037f00000000000000000000000000000000000000000000000000000000000000001614610a585760405163073e64fd60e21b81523360048201526001600160a01b037f00000000000000000000000000000000000000000000000000000000000000001660248201526044016107a9565b610a6282826110a5565b5050565b610a7033826112df565b610a8c5760405162461bcd60e51b81526004016107a990611ed0565b61084a83838361135e565b6007546001600160a01b03163314610af15760405162461bcd60e51b815260206004820152601760248201527f63616c6c6572206973206e6f7420746865206f776e657200000000000000000060448201526064016107a9565b6040514790600090339083908381818185875af1925050503d8060008114610b35576040519150601f19603f3d011682016040523d82523d6000602084013e610b3a565b606091505b5050905080610a625760405162461bcd60e51b8152602060048201526013602482015272195d1a081d1c985b9cd9995c8819985a5b1959606a1b60448201526064016107a9565b61084a83838360405180602001604052806000815250610ef9565b6000610bb660405180602001604052806000815250610db3565b50905080610c0557600a54600b5447919060ff166001811115610bdb57610bdb611c33565b60405163929dbf7160e01b81526004810193909352602483019190915260448201526064016107a9565b600b805460ff191660011790556007546040516305d3b1d360e41b81527f000000000000000000000000000000000000000000000000000000000000000060048201527f000000000000000000000000000000000000000000000000000000000000000067ffffffffffffffff16602482015261ffff600160c01b830416604482015263ffffffff600160a01b909204919091166064820152600260848201526000906001600160a01b037f00000000000000000000000000000000000000000000000000000000000000001690635d3b1d309060a4016020604051808303816000875af1158015610cfb573d6000803e3d6000fd5b505050506040513d601f19601f82011682018060405250810190610d1f9190611f1e565b60405190915081907f5d7d0431c4991fcc9f63f03ad0ead4128b866a8ed115a818b6d87a3afedb726490600090a250505050565b6000818152600260205260408120546001600160a01b0316806106755760405162461bcd60e51b8152602060048201526018602482015277115490cdcc8c4e881a5b9d985b1a59081d1bdad95b88125160421b60448201526064016107a9565b600b54600090606090829060ff166001811115610dd257610dd2611c33565b600014905060007f0000000000000000000000000000000000000000000000000000000000000000600854610e079190611f4d565b600a54429190911191501515471515838015610e205750825b8015610e295750815b8015610e325750805b604080518082019091526002815261060f60f31b6020820152909890975095505050505050565b60006001600160a01b038216610ec35760405162461bcd60e51b815260206004820152602960248201527f4552433732313a2061646472657373207a65726f206973206e6f7420612076616044820152683634b21037bbb732b960b91b60648201526084016107a9565b506001600160a01b031660009081526003602052604090205490565b60606001805461068a90611e95565b610a623383836114fa565b610f0333836112df565b610f1f5760405162461bcd60e51b81526004016107a990611ed0565b610f2b848484846115c9565b50505050565b6060610f3c82610fd5565b6000610f5360408051602081019091526000815290565b90506000815111610f735760405180602001604052806000815250610f9e565b80610f7d846115fc565b604051602001610f8e929190611f65565b6040516020818303038152906040525b9392505050565b6000600a8281548110610fba57610fba611f94565b6000918252602090912001546001600160a01b031692915050565b6000818152600260205260409020546001600160a01b03166110345760405162461bcd60e51b8152602060048201526018602482015277115490cdcc8c4e881a5b9d985b1a59081d1bdad95b88125160421b60448201526064016107a9565b50565b600081815260046020526040902080546001600160a01b0319166001600160a01b038416908117909155819061106c82610d53565b6001600160a01b03167f8c5be1e5ebec7d5bd14f71427d1e84f3dd0314c0f7b2291e5b200ac8c7c3b92560405160405180910390a45050565b6000816000815181106110ba576110ba611f94565b602002602001015190506000826001815181106110d9576110d9611f94565b6020026020010151905060006110ee60065490565b90506110fe600680546001019055565b6000600a805490508560008151811061111957611119611f94565b602002602001015161112b9190611fc0565b90506000600a828154811061114257611142611f94565b600091825260208083209190910154604080516060810182526001600160a01b039283168082528185018b81528284018b81528a8852600e90965292909520815181546001600160a01b03191694169390931783559051600183015591516002909101559091506111b382856116fa565b600980546001600160a01b0319166001600160a01b0384169081179091556040516000919047908381818185875af1925050503d8060008114611212576040519150601f19603f3d011682016040523d82523d6000602084013e611217565b606091505b50509050806112745760405162461bcd60e51b815260206004820152602360248201527f6661696c656420746f207472616e7366657220636f6e74726163742062616c616044820152626e636560e81b60648201526084016107a9565b604080516000815260208101918290525161129191600a91611987565b50600b805460ff19169055426008556040516001600160a01b038416907f5b690ec4a06fe979403046eaeea5b3ce38524683c3001f662c8b5a829632f7df90600090a2505050505050505050565b6000806112eb83610d53565b9050806001600160a01b0316846001600160a01b0316148061133257506001600160a01b0380821660009081526005602090815260408083209388168352929052205460ff165b806113565750836001600160a01b031661134b8461070d565b6001600160a01b0316145b949350505050565b826001600160a01b031661137182610d53565b6001600160a01b0316146113d55760405162461bcd60e51b815260206004820152602560248201527f4552433732313a207472616e736665722066726f6d20696e636f72726563742060448201526437bbb732b960d91b60648201526084016107a9565b6001600160a01b0382166114375760405162461bcd60e51b8152602060048201526024808201527f4552433732313a207472616e7366657220746f20746865207a65726f206164646044820152637265737360e01b60648201526084016107a9565b611442600082611037565b6001600160a01b038316600090815260036020526040812080546001929061146b908490611fd4565b90915550506001600160a01b0382166000908152600360205260408120805460019290611499908490611f4d565b909155505060008181526002602052604080822080546001600160a01b0319166001600160a01b0386811691821790925591518493918716917fddf252ad1be2c89b69c2b068fc378daa952ba7f163c4a11628f55a4df523b3ef91a4505050565b816001600160a01b0316836001600160a01b0316141561155c5760405162461bcd60e51b815260206004820152601960248201527f4552433732313a20617070726f766520746f2063616c6c65720000000000000060448201526064016107a9565b6001600160a01b03838116600081815260056020908152604080832094871680845294825291829020805460ff191686151590811790915591519182527f17307eab39ab6107e8899845ad3d59bd9653f200f220920489ca2b5937696c31910160405180910390a3505050565b6115d484848461135e565b6115e084848484611714565b610f2b5760405162461bcd60e51b81526004016107a990611feb565b6060816116205750506040805180820190915260018152600360fc1b602082015290565b8160005b811561164a57806116348161203d565b91506116439050600a83612058565b9150611624565b60008167ffffffffffffffff81111561166557611665611afe565b6040519080825280601f01601f19166020018201604052801561168f576020820181803683370190505b5090505b8415611356576116a4600183611fd4565b91506116b1600a86611fc0565b6116bc906030611f4d565b60f81b8183815181106116d1576116d1611f94565b60200101906001600160f81b031916908160001a9053506116f3600a86612058565b9450611693565b610a62828260405180602001604052806000815250611812565b60006001600160a01b0384163b1561180757604051630a85bd0160e11b81526001600160a01b0385169063150b7a029061175890339089908890889060040161206c565b6020604051808303816000875af1925050508015611793575060408051601f3d908101601f19168201909252611790918101906120a9565b60015b6117ed573d8080156117c1576040519150601f19603f3d011682016040523d82523d6000602084013e6117c6565b606091505b5080516117e55760405162461bcd60e51b81526004016107a990611feb565b805181602001fd5b6001600160e01b031916630a85bd0160e11b149050611356565b506001949350505050565b61181c8383611845565b6118296000848484611714565b61084a5760405162461bcd60e51b81526004016107a990611feb565b6001600160a01b03821661189b5760405162461bcd60e51b815260206004820181905260248201527f4552433732313a206d696e7420746f20746865207a65726f206164647265737360448201526064016107a9565b6000818152600260205260409020546001600160a01b0316156119005760405162461bcd60e51b815260206004820152601c60248201527f4552433732313a20746f6b656e20616c7265616479206d696e7465640000000060448201526064016107a9565b6001600160a01b0382166000908152600360205260408120805460019290611929908490611f4d565b909155505060008181526002602052604080822080546001600160a01b0319166001600160a01b03861690811790915590518392907fddf252ad1be2c89b69c2b068fc378daa952ba7f163c4a11628f55a4df523b3ef908290a45050565b8280548282559060005260206000209081019282156119dc579160200282015b828111156119dc57825182546001600160a01b0319166001600160a01b039091161782556020909201916001909101906119a7565b506119e89291506119ec565b5090565b5b808211156119e857600081556001016119ed565b6001600160e01b03198116811461103457600080fd5b600060208284031215611a2957600080fd5b8135610f9e81611a01565b60005b83811015611a4f578181015183820152602001611a37565b83811115610f2b5750506000910152565b60008151808452611a78816020860160208601611a34565b601f01601f19169290920160200192915050565b602081526000610f9e6020830184611a60565b600060208284031215611ab157600080fd5b5035919050565b80356001600160a01b0381168114611acf57600080fd5b919050565b60008060408385031215611ae757600080fd5b611af083611ab8565b946020939093013593505050565b634e487b7160e01b600052604160045260246000fd5b604051601f8201601f1916810167ffffffffffffffff81118282101715611b3d57611b3d611afe565b604052919050565b60008060408385031215611b5857600080fd5b8235915060208084013567ffffffffffffffff80821115611b7857600080fd5b818601915086601f830112611b8c57600080fd5b813581811115611b9e57611b9e611afe565b8060051b9150611baf848301611b14565b8181529183018401918481019089841115611bc957600080fd5b938501935b83851015611be757843582529385019390850190611bce565b8096505050505050509250929050565b600080600060608486031215611c0c57600080fd5b611c1584611ab8565b9250611c2360208501611ab8565b9150604084013590509250925092565b634e487b7160e01b600052602160045260246000fd5b6020810160028310611c6b57634e487b7160e01b600052602160045260246000fd5b91905290565b60008060208385031215611c8457600080fd5b823567ffffffffffffffff80821115611c9c57600080fd5b818501915085601f830112611cb057600080fd5b813581811115611cbf57600080fd5b866020828501011115611cd157600080fd5b60209290920196919550909350505050565b600082601f830112611cf457600080fd5b813567ffffffffffffffff811115611d0e57611d0e611afe565b611d21601f8201601f1916602001611b14565b818152846020838601011115611d3657600080fd5b816020850160208301376000918101602001919091529392505050565b600060208284031215611d6557600080fd5b813567ffffffffffffffff811115611d7c57600080fd5b61135684828501611ce3565b82151581526040602082015260006113566040830184611a60565b600060208284031215611db557600080fd5b610f9e82611ab8565b60008060408385031215611dd157600080fd5b611dda83611ab8565b915060208301358015158114611def57600080fd5b809150509250929050565b60008060008060808587031215611e1057600080fd5b611e1985611ab8565b9350611e2760208601611ab8565b925060408501359150606085013567ffffffffffffffff811115611e4a57600080fd5b611e5687828801611ce3565b91505092959194509250565b60008060408385031215611e7557600080fd5b611e7e83611ab8565b9150611e8c60208401611ab8565b90509250929050565b600181811c90821680611ea957607f821691505b60208210811415611eca57634e487b7160e01b600052602260045260246000fd5b50919050565b6020808252602e908201527f4552433732313a2063616c6c6572206973206e6f7420746f6b656e206f776e6560408201526d1c881b9bdc88185c1c1c9bdd995960921b606082015260800190565b600060208284031215611f3057600080fd5b5051919050565b634e487b7160e01b600052601160045260246000fd5b60008219821115611f6057611f60611f37565b500190565b60008351611f77818460208801611a34565b835190830190611f8b818360208801611a34565b01949350505050565b634e487b7160e01b600052603260045260246000fd5b634e487b7160e01b600052601260045260246000fd5b600082611fcf57611fcf611faa565b500690565b600082821015611fe657611fe6611f37565b500390565b60208082526032908201527f4552433732313a207472616e7366657220746f206e6f6e20455243373231526560408201527131b2b4bb32b91034b6b83632b6b2b73a32b960711b606082015260800190565b600060001982141561205157612051611f37565b5060010190565b60008261206757612067611faa565b500490565b6001600160a01b038581168252841660208201526040810183905260806060820181905260009061209f90830184611a60565b9695505050505050565b6000602082840312156120bb57600080fd5b8151610f9e81611a0156fea2646970667358221220c6b5fd0b1834ecbb2a4eae7dddf6ce3d6aa8d1f89be535b47e51b13369503cc764736f6c634300080c0033",
  "devdoc": {
    "author": "Smart contract programmer",
    "details": "No deposit function, Ether has to be sent directly",
    "kind": "dev",
    "methods": {
      "approve(address,uint256)": {
        "details": "See {IERC721-approve}."
      },
      "balanceOf(address)": {
        "details": "See {IERC721-balanceOf}."
      },
      "getApproved(uint256)": {
        "details": "See {IERC721-getApproved}."
      },
      "isApprovedForAll(address,address)": {
        "details": "See {IERC721-isApprovedForAll}."
      },
      "name()": {
        "details": "See {IERC721Metadata-name}."
      },
      "ownerOf(uint256)": {
        "details": "See {IERC721-ownerOf}."
      },
      "safeTransferFrom(address,address,uint256)": {
        "details": "See {IERC721-safeTransferFrom}."
      },
      "safeTransferFrom(address,address,uint256,bytes)": {
        "details": "See {IERC721-safeTransferFrom}."
      },
      "setApprovalForAll(address,bool)": {
        "details": "See {IERC721-setApprovalForAll}."
      },
      "supportsInterface(bytes4)": {
        "details": "See {IERC165-supportsInterface}."
      },
      "symbol()": {
        "details": "See {IERC721Metadata-symbol}."
      },
      "tokenURI(uint256)": {
        "details": "See {IERC721Metadata-tokenURI}."
      },
      "transferFrom(address,address,uint256)": {
        "details": "See {IERC721-transferFrom}."
      }
    },
    "title": "Chainlink automated lottery contract",
    "version": 1
  },
  "userdoc": {
    "kind": "user",
    "methods": {
      "register()": {
        "notice": "Deposits funds to enter lottery"
      },
      "withdraw()": {
        "notice": "Withdraw Ether from the contract"
      }
    },
    "notice": "Periodically transfers NFTs to players",
    "version": 1
  },
  "storageLayout": {
    "storage": [
      {
        "astId": 3733,
        "contract": "contracts/Automation/Lotto.sol:Lotto",
        "label": "_name",
        "offset": 0,
        "slot": "0",
        "type": "t_string_storage"
      },
      {
        "astId": 3735,
        "contract": "contracts/Automation/Lotto.sol:Lotto",
        "label": "_symbol",
        "offset": 0,
        "slot": "1",
        "type": "t_string_storage"
      },
      {
        "astId": 3739,
        "contract": "contracts/Automation/Lotto.sol:Lotto",
        "label": "_owners",
        "offset": 0,
        "slot": "2",
        "type": "t_mapping(t_uint256,t_address)"
      },
      {
        "astId": 3743,
        "contract": "contracts/Automation/Lotto.sol:Lotto",
        "label": "_balances",
        "offset": 0,
        "slot": "3",
        "type": "t_mapping(t_address,t_uint256)"
      },
      {
        "astId": 3747,
        "contract": "contracts/Automation/Lotto.sol:Lotto",
        "label": "_tokenApprovals",
        "offset": 0,
        "slot": "4",
        "type": "t_mapping(t_uint256,t_address)"
      },
      {
        "astId": 3753,
        "contract": "contracts/Automation/Lotto.sol:Lotto",
        "label": "_operatorApprovals",
        "offset": 0,
        "slot": "5",
        "type": "t_mapping(t_address,t_mapping(t_address,t_bool))"
      },
      {
        "astId": 5729,
        "contract": "contracts/Automation/Lotto.sol:Lotto",
        "label": "_tokenIdCounter",
        "offset": 0,
        "slot": "6",
        "type": "t_struct(Counter)5214_storage"
      },
      {
        "astId": 5734,
        "contract": "contracts/Automation/Lotto.sol:Lotto",
        "label": "owner",
        "offset": 0,
        "slot": "7",
        "type": "t_address"
      },
      {
        "astId": 5743,
        "contract": "contracts/Automation/Lotto.sol:Lotto",
        "label": "i_callbackGasLimit",
        "offset": 20,
        "slot": "7",
        "type": "t_uint32"
      },
      {
        "astId": 5746,
        "contract": "contracts/Automation/Lotto.sol:Lotto",
        "label": "REQUEST_CONFIRMATIONS",
        "offset": 24,
        "slot": "7",
        "type": "t_uint16"
      },
      {
        "astId": 5755,
        "contract": "contracts/Automation/Lotto.sol:Lotto",
        "label": "s_lastTimeStamp",
        "offset": 0,
        "slot": "8",
        "type": "t_uint256"
      },
      {
        "astId": 5757,
        "contract": "contracts/Automation/Lotto.sol:Lotto",
        "label": "s_recentWinner",
        "offset": 0,
        "slot": "9",
        "type": "t_address"
      },
      {
        "astId": 5760,
        "contract": "contracts/Automation/Lotto.sol:Lotto",
        "label": "s_players",
        "offset": 0,
        "slot": "10",
        "type": "t_array(t_address_payable)dyn_storage"
      },
      {
        "astId": 5763,
        "contract": "contracts/Automation/Lotto.sol:Lotto",
        "label": "s_lottoState",
        "offset": 0,
        "slot": "11",
        "type": "t_enum(LottoState)5732"
      },
      {
        "astId": 5780,
        "contract": "contracts/Automation/Lotto.sol:Lotto",
        "label": "registeredAccounts",
        "offset": 0,
        "slot": "12",
        "type": "t_mapping(t_address,t_struct(RegistrationInfo)5768_storage)"
      },
      {
        "astId": 5784,
        "contract": "contracts/Automation/Lotto.sol:Lotto",
        "label": "requestToSender",
        "offset": 0,
        "slot": "13",
        "type": "t_mapping(t_uint256,t_address)"
      },
      {
        "astId": 5789,
        "contract": "contracts/Automation/Lotto.sol:Lotto",
        "label": "tokenIdToNftInfo",
        "offset": 0,
        "slot": "14",
        "type": "t_mapping(t_uint256,t_struct(NftRegistry)5775_storage)"
      }
    ],
    "types": {
      "t_address": {
        "encoding": "inplace",
        "label": "address",
        "numberOfBytes": "20"
      },
      "t_address_payable": {
        "encoding": "inplace",
        "label": "address payable",
        "numberOfBytes": "20"
      },
      "t_array(t_address_payable)dyn_storage": {
        "base": "t_address_payable",
        "encoding": "dynamic_array",
        "label": "address payable[]",
        "numberOfBytes": "32"
      },
      "t_bool": {
        "encoding": "inplace",
        "label": "bool",
        "numberOfBytes": "1"
      },
      "t_enum(LottoState)5732": {
        "encoding": "inplace",
        "label": "enum Lotto.LottoState",
        "numberOfBytes": "1"
      },
      "t_mapping(t_address,t_bool)": {
        "encoding": "mapping",
        "key": "t_address",
        "label": "mapping(address => bool)",
        "numberOfBytes": "32",
        "value": "t_bool"
      },
      "t_mapping(t_address,t_mapping(t_address,t_bool))": {
        "encoding": "mapping",
        "key": "t_address",
        "label": "mapping(address => mapping(address => bool))",
        "numberOfBytes": "32",
        "value": "t_mapping(t_address,t_bool)"
      },
      "t_mapping(t_address,t_struct(RegistrationInfo)5768_storage)": {
        "encoding": "mapping",
        "key": "t_address",
        "label": "mapping(address => struct Lotto.RegistrationInfo)",
        "numberOfBytes": "32",
        "value": "t_struct(RegistrationInfo)5768_storage"
      },
      "t_mapping(t_address,t_uint256)": {
        "encoding": "mapping",
        "key": "t_address",
        "label": "mapping(address => uint256)",
        "numberOfBytes": "32",
        "value": "t_uint256"
      },
      "t_mapping(t_uint256,t_address)": {
        "encoding": "mapping",
        "key": "t_uint256",
        "label": "mapping(uint256 => address)",
        "numberOfBytes": "32",
        "value": "t_address"
      },
      "t_mapping(t_uint256,t_struct(NftRegistry)5775_storage)": {
        "encoding": "mapping",
        "key": "t_uint256",
        "label": "mapping(uint256 => struct Lotto.NftRegistry)",
        "numberOfBytes": "32",
        "value": "t_struct(NftRegistry)5775_storage"
      },
      "t_string_storage": {
        "encoding": "bytes",
        "label": "string",
        "numberOfBytes": "32"
      },
      "t_struct(Counter)5214_storage": {
        "encoding": "inplace",
        "label": "struct Counters.Counter",
        "members": [
          {
            "astId": 5213,
            "contract": "contracts/Automation/Lotto.sol:Lotto",
            "label": "_value",
            "offset": 0,
            "slot": "0",
            "type": "t_uint256"
          }
        ],
        "numberOfBytes": "32"
      },
      "t_struct(NftRegistry)5775_storage": {
        "encoding": "inplace",
        "label": "struct Lotto.NftRegistry",
        "members": [
          {
            "astId": 5770,
            "contract": "contracts/Automation/Lotto.sol:Lotto",
            "label": "winner",
            "offset": 0,
            "slot": "0",
            "type": "t_address"
          },
          {
            "astId": 5772,
            "contract": "contracts/Automation/Lotto.sol:Lotto",
            "label": "t1",
            "offset": 0,
            "slot": "1",
            "type": "t_uint256"
          },
          {
            "astId": 5774,
            "contract": "contracts/Automation/Lotto.sol:Lotto",
            "label": "t2",
            "offset": 0,
            "slot": "2",
            "type": "t_uint256"
          }
        ],
        "numberOfBytes": "96"
      },
      "t_struct(RegistrationInfo)5768_storage": {
        "encoding": "inplace",
        "label": "struct Lotto.RegistrationInfo",
        "members": [
          {
            "astId": 5765,
            "contract": "contracts/Automation/Lotto.sol:Lotto",
            "label": "isRegistered",
            "offset": 0,
            "slot": "0",
            "type": "t_bool"
          },
          {
            "astId": 5767,
            "contract": "contracts/Automation/Lotto.sol:Lotto",
            "label": "date",
            "offset": 0,
            "slot": "1",
            "type": "t_uint256"
          }
        ],
        "numberOfBytes": "64"
      },
      "t_uint16": {
        "encoding": "inplace",
        "label": "uint16",
        "numberOfBytes": "2"
      },
      "t_uint256": {
        "encoding": "inplace",
        "label": "uint256",
        "numberOfBytes": "32"
      },
      "t_uint32": {
        "encoding": "inplace",
        "label": "uint32",
        "numberOfBytes": "4"
      }
    }
  }
}