{
  "address": "0x610178dA211FEF7D417bC0e6FeD39F05609AD788",
  "abi": [
    {
      "inputs": [
        {
          "internalType": "address payable",
          "name": "toDestruct",
          "type": "address"
        }
      ],
      "name": "destroy",
      "outputs": [],
      "stateMutability": "nonpayable",
      "type": "function"
    },
    {
      "stateMutability": "payable",
      "type": "receive"
    }
  ],
  "transactionHash": "0x626805fd6849874288d668a795e1d7b97a5144473e421d826c6af2ea9bcbab9e",
  "args": [],
  "numDeployments": 1,
  "solcInputHash": "ad51ab6ed20cdbe4796efd0b009d014e",
  "bytecode": "0x608060405234801561001057600080fd5b5060b78061001f6000396000f3fe608060405260043610601f5760003560e01c8062f55d9d14602a57600080fd5b36602557005b600080fd5b348015603557600080fd5b50604560413660046053565b6047565b005b806001600160a01b0316ff5b600060208284031215606457600080fd5b81356001600160a01b0381168114607a57600080fd5b939250505056fea26469706673582212205ae6dfdbfc1a3fcb4a75c15f8b38e48d11883da537e45a43b5e33e89234d9eff64736f6c634300080c0033",
  "devdoc": {
    "kind": "dev",
    "methods": {},
    "version": 1
  },
  "userdoc": {
    "kind": "user",
    "methods": {},
    "version": 1
  },
  "storageLayout": {
    "storage": [],
    "types": null
  }
}