{
  "_format": "hh-sol-artifact-1",
  "contractName": "Implementation",
  "sourceName": "contracts/Upgradeable/Implementation.sol",
  "abi": [
    {
      "anonymous": false,
      "inputs": [
        {
          "indexed": false,
          "internalType": "address",
          "name": "previousAdmin",
          "type": "address"
        },
        {
          "indexed": false,
          "internalType": "address",
          "name": "newAdmin",
          "type": "address"
        }
      ],
      "name": "AdminChanged",
      "type": "event"
    },
    {
      "anonymous": false,
      "inputs": [
        {
          "indexed": true,
          "internalType": "address",
          "name": "beacon",
          "type": "address"
        }
      ],
      "name": "BeaconUpgraded",
      "type": "event"
    },
    {
      "anonymous": false,
      "inputs": [
        {
          "indexed": false,
          "internalType": "uint8",
          "name": "version",
          "type": "uint8"
        }
      ],
      "name": "Initialized",
      "type": "event"
    },
    {
      "anonymous": false,
      "inputs": [
        {
          "indexed": true,
          "internalType": "address",
          "name": "previousOwner",
          "type": "address"
        },
        {
          "indexed": true,
          "internalType": "address",
          "name": "newOwner",
          "type": "address"
        }
      ],
      "name": "OwnershipTransferred",
      "type": "event"
    },
    {
      "anonymous": false,
      "inputs": [
        {
          "indexed": true,
          "internalType": "address",
          "name": "implementation",
          "type": "address"
        }
      ],
      "name": "Upgraded",
      "type": "event"
    },
    {
      "inputs": [],
      "name": "incrementNumber",
      "outputs": [],
      "stateMutability": "nonpayable",
      "type": "function"
    },
    {
      "inputs": [
        {
          "internalType": "uint256",
          "name": "_number",
          "type": "uint256"
        }
      ],
      "name": "initialize",
      "outputs": [],
      "stateMutability": "nonpayable",
      "type": "function"
    },
    {
      "inputs": [],
      "name": "number",
      "outputs": [
        {
          "internalType": "uint256",
          "name": "",
          "type": "uint256"
        }
      ],
      "stateMutability": "view",
      "type": "function"
    },
    {
      "inputs": [],
      "name": "owner",
      "outputs": [
        {
          "internalType": "address",
          "name": "",
          "type": "address"
        }
      ],
      "stateMutability": "view",
      "type": "function"
    },
    {
      "inputs": [],
      "name": "proxiableUUID",
      "outputs": [
        {
          "internalType": "bytes32",
          "name": "",
          "type": "bytes32"
        }
      ],
      "stateMutability": "view",
      "type": "function"
    },
    {
      "inputs": [],
      "name": "renounceOwnership",
      "outputs": [],
      "stateMutability": "nonpayable",
      "type": "function"
    },
    {
      "inputs": [
        {
          "internalType": "address",
          "name": "newOwner",
          "type": "address"
        }
      ],
      "name": "transferOwnership",
      "outputs": [],
      "stateMutability": "nonpayable",
      "type": "function"
    },
    {
      "inputs": [
        {
          "internalType": "address",
          "name": "newImplementation",
          "type": "address"
        }
      ],
      "name": "upgradeTo",
      "outputs": [],
      "stateMutability": "nonpayable",
      "type": "function"
    },
    {
      "inputs": [
        {
          "internalType": "address",
          "name": "newImplementation",
          "type": "address"
        },
        {
          "internalType": "bytes",
          "name": "data",
          "type": "bytes"
        }
      ],
      "name": "upgradeToAndCall",
      "outputs": [],
      "stateMutability": "payable",
      "type": "function"
    }
  ],
  "bytecode": "0x60a06040523073ffffffffffffffffffffffffffffffffffffffff1660809073ffffffffffffffffffffffffffffffffffffffff1660601b81525034801561004657600080fd5b5060805160601c6119ee610081600039600081816101ef0152818161027e0152818161039e0152818161042d01526104dd01526119ee6000f3fe6080604052600436106100865760003560e01c8063715018a611610059578063715018a6146101125780638381f58a146101295780638da5cb5b14610154578063f2fde38b1461017f578063fe4b84df146101a857610086565b8063273ea3e31461008b5780633659cfe6146100a25780634f1ef286146100cb57806352d1902d146100e7575b600080fd5b34801561009757600080fd5b506100a06101d1565b005b3480156100ae57600080fd5b506100c960048036038101906100c49190610eed565b6101ed565b005b6100e560048036038101906100e09190610f16565b61039c565b005b3480156100f357600080fd5b506100fc6104d9565b6040516101099190611215565b60405180910390f35b34801561011e57600080fd5b50610127610592565b005b34801561013557600080fd5b5061013e6105a6565b60405161014b91906113cd565b60405180910390f35b34801561016057600080fd5b506101696105ac565b60405161017691906111fa565b60405180910390f35b34801561018b57600080fd5b506101a660048036038101906101a19190610eed565b6105d6565b005b3480156101b457600080fd5b506101cf60048036038101906101ca9190610f93565b61065a565b005b600160c960008282546101e49190611470565b92505081905550565b7f000000000000000000000000000000000000000000000000000000000000000073ffffffffffffffffffffffffffffffffffffffff163073ffffffffffffffffffffffffffffffffffffffff16141561027c576040517f08c379a00000000000000000000000000000000000000000000000000000000081526004016102739061128d565b60405180910390fd5b7f000000000000000000000000000000000000000000000000000000000000000073ffffffffffffffffffffffffffffffffffffffff166102bb6107a0565b73ffffffffffffffffffffffffffffffffffffffff1614610311576040517f08c379a0000000000000000000000000000000000000000000000000000000008152600401610308906112ad565b60405180910390fd5b61031a816107f7565b61039981600067ffffffffffffffff81111561035f577f4e487b7100000000000000000000000000000000000000000000000000000000600052604160045260246000fd5b6040519080825280601f01601f1916602001820160405280156103915781602001600182028036833780820191505090505b506000610802565b50565b7f000000000000000000000000000000000000000000000000000000000000000073ffffffffffffffffffffffffffffffffffffffff163073ffffffffffffffffffffffffffffffffffffffff16141561042b576040517f08c379a00000000000000000000000000000000000000000000000000000000081526004016104229061128d565b60405180910390fd5b7f000000000000000000000000000000000000000000000000000000000000000073ffffffffffffffffffffffffffffffffffffffff1661046a6107a0565b73ffffffffffffffffffffffffffffffffffffffff16146104c0576040517f08c379a00000000000000000000000000000000000000000000000000000000081526004016104b7906112ad565b60405180910390fd5b6104c9826107f7565b6104d582826001610802565b5050565b60007f000000000000000000000000000000000000000000000000000000000000000073ffffffffffffffffffffffffffffffffffffffff163073ffffffffffffffffffffffffffffffffffffffff1614610569576040517f08c379a0000000000000000000000000000000000000000000000000000000008152600401610560906112cd565b60405180910390fd5b7f360894a13ba1a3210667c828492db98dca3e2076cc3735a920a3ca505d382bbc60001b905090565b61059a61097f565b6105a460006109fd565b565b60c95481565b6000609760009054906101000a900473ffffffffffffffffffffffffffffffffffffffff16905090565b6105de61097f565b600073ffffffffffffffffffffffffffffffffffffffff168173ffffffffffffffffffffffffffffffffffffffff16141561064e576040517f08c379a00000000000000000000000000000000000000000000000000000000081526004016106459061126d565b60405180910390fd5b610657816109fd565b50565b60008060019054906101000a900460ff1615905080801561068b5750600160008054906101000a900460ff1660ff16105b806106b8575061069a30610ac3565b1580156106b75750600160008054906101000a900460ff1660ff16145b5b6106f7576040517f08c379a00000000000000000000000000000000000000000000000000000000081526004016106ee9061130d565b60405180910390fd5b60016000806101000a81548160ff021916908360ff1602179055508015610734576001600060016101000a81548160ff0219169083151502179055505b61073c610ae6565b8160c981905550801561079c5760008060016101000a81548160ff0219169083151502179055507f7f26b83ff96e1f2b6a682f133852f6798a09c465da95921460cefb384740249860016040516107939190611230565b60405180910390a15b5050565b60006107ce7f360894a13ba1a3210667c828492db98dca3e2076cc3735a920a3ca505d382bbc60001b610b3f565b60000160009054906101000a900473ffffffffffffffffffffffffffffffffffffffff16905090565b6107ff61097f565b50565b61082e7f4910fdfa16fed3260ed0e7147f7cc6da11a60208b5b9406d12a635614ffd914360001b610b49565b60000160009054906101000a900460ff16156108525761084d83610b53565b61097a565b8273ffffffffffffffffffffffffffffffffffffffff166352d1902d6040518163ffffffff1660e01b815260040160206040518083038186803b15801561089857600080fd5b505afa9250505080156108c957506040513d601f19601f820116820180604052508101906108c69190610f6a565b60015b610908576040517f08c379a00000000000000000000000000000000000000000000000000000000081526004016108ff9061132d565b60405180910390fd5b7f360894a13ba1a3210667c828492db98dca3e2076cc3735a920a3ca505d382bbc60001b811461096d576040517f08c379a0000000000000000000000000000000000000000000000000000000008152600401610964906112ed565b60405180910390fd5b50610979838383610c0c565b5b505050565b610987610c38565b73ffffffffffffffffffffffffffffffffffffffff166109a56105ac565b73ffffffffffffffffffffffffffffffffffffffff16146109fb576040517f08c379a00000000000000000000000000000000000000000000000000000000081526004016109f29061136d565b60405180910390fd5b565b6000609760009054906101000a900473ffffffffffffffffffffffffffffffffffffffff16905081609760006101000a81548173ffffffffffffffffffffffffffffffffffffffff021916908373ffffffffffffffffffffffffffffffffffffffff1602179055508173ffffffffffffffffffffffffffffffffffffffff168173ffffffffffffffffffffffffffffffffffffffff167f8be0079c531659141344cd1fd0a4f28419497f9722a3daafe3b4186f6b6457e060405160405180910390a35050565b6000808273ffffffffffffffffffffffffffffffffffffffff163b119050919050565b600060019054906101000a900460ff16610b35576040517f08c379a0000000000000000000000000000000000000000000000000000000008152600401610b2c906113ad565b60405180910390fd5b610b3d610c40565b565b6000819050919050565b6000819050919050565b610b5c81610ac3565b610b9b576040517f08c379a0000000000000000000000000000000000000000000000000000000008152600401610b929061134d565b60405180910390fd5b80610bc87f360894a13ba1a3210667c828492db98dca3e2076cc3735a920a3ca505d382bbc60001b610b3f565b60000160006101000a81548173ffffffffffffffffffffffffffffffffffffffff021916908373ffffffffffffffffffffffffffffffffffffffff16021790555050565b610c1583610ca1565b600082511180610c225750805b15610c3357610c318383610cf0565b505b505050565b600033905090565b600060019054906101000a900460ff16610c8f576040517f08c379a0000000000000000000000000000000000000000000000000000000008152600401610c86906113ad565b60405180910390fd5b610c9f610c9a610c38565b6109fd565b565b610caa81610b53565b8073ffffffffffffffffffffffffffffffffffffffff167fbc7cd75a20ee27fd9adebab32041f755214dbc6bffa90cc0225b39da2e5c2d3b60405160405180910390a250565b6060610cfb83610ac3565b610d3a576040517f08c379a0000000000000000000000000000000000000000000000000000000008152600401610d319061138d565b60405180910390fd5b6000808473ffffffffffffffffffffffffffffffffffffffff1684604051610d6291906111e3565b600060405180830381855af49150503d8060008114610d9d576040519150601f19603f3d011682016040523d82523d6000602084013e610da2565b606091505b5091509150610dca828260405180606001604052806027815260200161199260279139610dd4565b9250505092915050565b60608315610de457829050610def565b610dee8383610df6565b5b9392505050565b600082511115610e095781518083602001fd5b806040517f08c379a0000000000000000000000000000000000000000000000000000000008152600401610e3d919061124b565b60405180910390fd5b6000610e59610e548461140d565b6113e8565b905082815260208101848484011115610e7157600080fd5b610e7c84828561152b565b509392505050565b600081359050610e938161194c565b92915050565b600081519050610ea881611963565b92915050565b600082601f830112610ebf57600080fd5b8135610ecf848260208601610e46565b91505092915050565b600081359050610ee78161197a565b92915050565b600060208284031215610eff57600080fd5b6000610f0d84828501610e84565b91505092915050565b60008060408385031215610f2957600080fd5b6000610f3785828601610e84565b925050602083013567ffffffffffffffff811115610f5457600080fd5b610f6085828601610eae565b9150509250929050565b600060208284031215610f7c57600080fd5b6000610f8a84828501610e99565b91505092915050565b600060208284031215610fa557600080fd5b6000610fb384828501610ed8565b91505092915050565b610fc5816114c6565b82525050565b610fd4816114d8565b82525050565b6000610fe58261143e565b610fef8185611454565b9350610fff81856020860161153a565b80840191505092915050565b61101481611519565b82525050565b600061102582611449565b61102f818561145f565b935061103f81856020860161153a565b611048816115fc565b840191505092915050565b600061106060268361145f565b915061106b8261160d565b604082019050919050565b6000611083602c8361145f565b915061108e8261165c565b604082019050919050565b60006110a6602c8361145f565b91506110b1826116ab565b604082019050919050565b60006110c960388361145f565b91506110d4826116fa565b604082019050919050565b60006110ec60298361145f565b91506110f782611749565b604082019050919050565b600061110f602e8361145f565b915061111a82611798565b604082019050919050565b6000611132602e8361145f565b915061113d826117e7565b604082019050919050565b6000611155602d8361145f565b915061116082611836565b604082019050919050565b600061117860208361145f565b915061118382611885565b602082019050919050565b600061119b60268361145f565b91506111a6826118ae565b604082019050919050565b60006111be602b8361145f565b91506111c9826118fd565b604082019050919050565b6111dd81611502565b82525050565b60006111ef8284610fda565b915081905092915050565b600060208201905061120f6000830184610fbc565b92915050565b600060208201905061122a6000830184610fcb565b92915050565b6000602082019050611245600083018461100b565b92915050565b60006020820190508181036000830152611265818461101a565b905092915050565b6000602082019050818103600083015261128681611053565b9050919050565b600060208201905081810360008301526112a681611076565b9050919050565b600060208201905081810360008301526112c681611099565b9050919050565b600060208201905081810360008301526112e6816110bc565b9050919050565b60006020820190508181036000830152611306816110df565b9050919050565b6000602082019050818103600083015261132681611102565b9050919050565b6000602082019050818103600083015261134681611125565b9050919050565b6000602082019050818103600083015261136681611148565b9050919050565b600060208201905081810360008301526113868161116b565b9050919050565b600060208201905081810360008301526113a68161118e565b9050919050565b600060208201905081810360008301526113c6816111b1565b9050919050565b60006020820190506113e260008301846111d4565b92915050565b60006113f2611403565b90506113fe828261156d565b919050565b6000604051905090565b600067ffffffffffffffff821115611428576114276115cd565b5b611431826115fc565b9050602081019050919050565b600081519050919050565b600081519050919050565b600081905092915050565b600082825260208201905092915050565b600061147b82611502565b915061148683611502565b9250827fffffffffffffffffffffffffffffffffffffffffffffffffffffffffffffffff038211156114bb576114ba61159e565b5b828201905092915050565b60006114d1826114e2565b9050919050565b6000819050919050565b600073ffffffffffffffffffffffffffffffffffffffff82169050919050565b6000819050919050565b600060ff82169050919050565b60006115248261150c565b9050919050565b82818337600083830152505050565b60005b8381101561155857808201518184015260208101905061153d565b83811115611567576000848401525b50505050565b611576826115fc565b810181811067ffffffffffffffff82111715611595576115946115cd565b5b80604052505050565b7f4e487b7100000000000000000000000000000000000000000000000000000000600052601160045260246000fd5b7f4e487b7100000000000000000000000000000000000000000000000000000000600052604160045260246000fd5b6000601f19601f8301169050919050565b7f4f776e61626c653a206e6577206f776e657220697320746865207a65726f206160008201527f6464726573730000000000000000000000000000000000000000000000000000602082015250565b7f46756e6374696f6e206d7573742062652063616c6c6564207468726f7567682060008201527f64656c656761746563616c6c0000000000000000000000000000000000000000602082015250565b7f46756e6374696f6e206d7573742062652063616c6c6564207468726f7567682060008201527f6163746976652070726f78790000000000000000000000000000000000000000602082015250565b7f555550535570677261646561626c653a206d757374206e6f742062652063616c60008201527f6c6564207468726f7567682064656c656761746563616c6c0000000000000000602082015250565b7f45524331393637557067726164653a20756e737570706f727465642070726f7860008201527f6961626c65555549440000000000000000000000000000000000000000000000602082015250565b7f496e697469616c697a61626c653a20636f6e747261637420697320616c72656160008201527f647920696e697469616c697a6564000000000000000000000000000000000000602082015250565b7f45524331393637557067726164653a206e657720696d706c656d656e7461746960008201527f6f6e206973206e6f742055555053000000000000000000000000000000000000602082015250565b7f455243313936373a206e657720696d706c656d656e746174696f6e206973206e60008201527f6f74206120636f6e747261637400000000000000000000000000000000000000602082015250565b7f4f776e61626c653a2063616c6c6572206973206e6f7420746865206f776e6572600082015250565b7f416464726573733a2064656c65676174652063616c6c20746f206e6f6e2d636f60008201527f6e74726163740000000000000000000000000000000000000000000000000000602082015250565b7f496e697469616c697a61626c653a20636f6e7472616374206973206e6f74206960008201527f6e697469616c697a696e67000000000000000000000000000000000000000000602082015250565b611955816114c6565b811461196057600080fd5b50565b61196c816114d8565b811461197757600080fd5b50565b61198381611502565b811461198e57600080fd5b5056fe416464726573733a206c6f772d6c6576656c2064656c65676174652063616c6c206661696c6564a2646970667358221220725c74820e9e6c5065343ea950efa5970ca9ae694ac166ca46480b31633e2f1564736f6c63430008040033",
  "linkReferences": {},
  "deployedLinkReferences": {}
}