{
  "_format": "hh-sol-artifact-1",
  "contractName": "Number1",
  "sourceName": "contracts/Upgradeable/Number1.sol",
  "abi": [
    {
      "anonymous": false,
      "inputs": [
        {
          "indexed": false,
          "internalType": "address",
          "name": "previousAdmin",
          "type": "address"
        },
        {
          "indexed": false,
          "internalType": "address",
          "name": "newAdmin",
          "type": "address"
        }
      ],
      "name": "AdminChanged",
      "type": "event"
    },
    {
      "anonymous": false,
      "inputs": [
        {
          "indexed": true,
          "internalType": "address",
          "name": "beacon",
          "type": "address"
        }
      ],
      "name": "BeaconUpgraded",
      "type": "event"
    },
    {
      "anonymous": false,
      "inputs": [
        {
          "indexed": false,
          "internalType": "uint8",
          "name": "version",
          "type": "uint8"
        }
      ],
      "name": "Initialized",
      "type": "event"
    },
    {
      "anonymous": false,
      "inputs": [
        {
          "indexed": true,
          "internalType": "address",
          "name": "previousOwner",
          "type": "address"
        },
        {
          "indexed": true,
          "internalType": "address",
          "name": "newOwner",
          "type": "address"
        }
      ],
      "name": "OwnershipTransferred",
      "type": "event"
    },
    {
      "anonymous": false,
      "inputs": [
        {
          "indexed": true,
          "internalType": "address",
          "name": "implementation",
          "type": "address"
        }
      ],
      "name": "Upgraded",
      "type": "event"
    },
    {
      "inputs": [],
      "name": "incrementNumber",
      "outputs": [],
      "stateMutability": "nonpayable",
      "type": "function"
    },
    {
      "inputs": [
        {
          "internalType": "uint256",
          "name": "_number",
          "type": "uint256"
        }
      ],
      "name": "initialize",
      "outputs": [],
      "stateMutability": "nonpayable",
      "type": "function"
    },
    {
      "inputs": [],
      "name": "owner",
      "outputs": [
        {
          "internalType": "address",
          "name": "",
          "type": "address"
        }
      ],
      "stateMutability": "view",
      "type": "function"
    },
    {
      "inputs": [],
      "name": "proxiableUUID",
      "outputs": [
        {
          "internalType": "bytes32",
          "name": "",
          "type": "bytes32"
        }
      ],
      "stateMutability": "view",
      "type": "function"
    },
    {
      "inputs": [],
      "name": "renounceOwnership",
      "outputs": [],
      "stateMutability": "nonpayable",
      "type": "function"
    },
    {
      "inputs": [
        {
          "internalType": "address",
          "name": "newOwner",
          "type": "address"
        }
      ],
      "name": "transferOwnership",
      "outputs": [],
      "stateMutability": "nonpayable",
      "type": "function"
    },
    {
      "inputs": [
        {
          "internalType": "address",
          "name": "newImplementation",
          "type": "address"
        }
      ],
      "name": "upgradeTo",
      "outputs": [],
      "stateMutability": "nonpayable",
      "type": "function"
    },
    {
      "inputs": [
        {
          "internalType": "address",
          "name": "newImplementation",
          "type": "address"
        },
        {
          "internalType": "bytes",
          "name": "data",
          "type": "bytes"
        }
      ],
      "name": "upgradeToAndCall",
      "outputs": [],
      "stateMutability": "payable",
      "type": "function"
    }
  ],
  "bytecode": "0x60a06040523073ffffffffffffffffffffffffffffffffffffffff1660809073ffffffffffffffffffffffffffffffffffffffff1660601b81525034801561004657600080fd5b5060805160601c611988610081600039600081816101b90152818161024801528181610368015281816103f701526104a701526119886000f3fe60806040526004361061007b5760003560e01c8063715018a61161004e578063715018a6146101075780638da5cb5b1461011e578063f2fde38b14610149578063fe4b84df146101725761007b565b8063273ea3e3146100805780633659cfe6146100975780634f1ef286146100c057806352d1902d146100dc575b600080fd5b34801561008c57600080fd5b5061009561019b565b005b3480156100a357600080fd5b506100be60048036038101906100b99190610eb1565b6101b7565b005b6100da60048036038101906100d59190610eda565b610366565b005b3480156100e857600080fd5b506100f16104a3565b6040516100fe91906111ca565b60405180910390f35b34801561011357600080fd5b5061011c61055c565b005b34801561012a57600080fd5b50610133610570565b60405161014091906111af565b60405180910390f35b34801561015557600080fd5b50610170600480360381019061016b9190610eb1565b61059a565b005b34801561017e57600080fd5b5061019960048036038101906101949190610f57565b61061e565b005b600160c960008282546101ae919061140a565b92505081905550565b7f000000000000000000000000000000000000000000000000000000000000000073ffffffffffffffffffffffffffffffffffffffff163073ffffffffffffffffffffffffffffffffffffffff161415610246576040517f08c379a000000000000000000000000000000000000000000000000000000000815260040161023d90611242565b60405180910390fd5b7f000000000000000000000000000000000000000000000000000000000000000073ffffffffffffffffffffffffffffffffffffffff16610285610764565b73ffffffffffffffffffffffffffffffffffffffff16146102db576040517f08c379a00000000000000000000000000000000000000000000000000000000081526004016102d290611262565b60405180910390fd5b6102e4816107bb565b61036381600067ffffffffffffffff811115610329577f4e487b7100000000000000000000000000000000000000000000000000000000600052604160045260246000fd5b6040519080825280601f01601f19166020018201604052801561035b5781602001600182028036833780820191505090505b5060006107c6565b50565b7f000000000000000000000000000000000000000000000000000000000000000073ffffffffffffffffffffffffffffffffffffffff163073ffffffffffffffffffffffffffffffffffffffff1614156103f5576040517f08c379a00000000000000000000000000000000000000000000000000000000081526004016103ec90611242565b60405180910390fd5b7f000000000000000000000000000000000000000000000000000000000000000073ffffffffffffffffffffffffffffffffffffffff16610434610764565b73ffffffffffffffffffffffffffffffffffffffff161461048a576040517f08c379a000000000000000000000000000000000000000000000000000000000815260040161048190611262565b60405180910390fd5b610493826107bb565b61049f828260016107c6565b5050565b60007f000000000000000000000000000000000000000000000000000000000000000073ffffffffffffffffffffffffffffffffffffffff163073ffffffffffffffffffffffffffffffffffffffff1614610533576040517f08c379a000000000000000000000000000000000000000000000000000000000815260040161052a90611282565b60405180910390fd5b7f360894a13ba1a3210667c828492db98dca3e2076cc3735a920a3ca505d382bbc60001b905090565b610564610943565b61056e60006109c1565b565b6000609760009054906101000a900473ffffffffffffffffffffffffffffffffffffffff16905090565b6105a2610943565b600073ffffffffffffffffffffffffffffffffffffffff168173ffffffffffffffffffffffffffffffffffffffff161415610612576040517f08c379a000000000000000000000000000000000000000000000000000000000815260040161060990611222565b60405180910390fd5b61061b816109c1565b50565b60008060019054906101000a900460ff1615905080801561064f5750600160008054906101000a900460ff1660ff16105b8061067c575061065e30610a87565b15801561067b5750600160008054906101000a900460ff1660ff16145b5b6106bb576040517f08c379a00000000000000000000000000000000000000000000000000000000081526004016106b2906112c2565b60405180910390fd5b60016000806101000a81548160ff021916908360ff16021790555080156106f8576001600060016101000a81548160ff0219169083151502179055505b610700610aaa565b8160c98190555080156107605760008060016101000a81548160ff0219169083151502179055507f7f26b83ff96e1f2b6a682f133852f6798a09c465da95921460cefb3847402498600160405161075791906111e5565b60405180910390a15b5050565b60006107927f360894a13ba1a3210667c828492db98dca3e2076cc3735a920a3ca505d382bbc60001b610b03565b60000160009054906101000a900473ffffffffffffffffffffffffffffffffffffffff16905090565b6107c3610943565b50565b6107f27f4910fdfa16fed3260ed0e7147f7cc6da11a60208b5b9406d12a635614ffd914360001b610b0d565b60000160009054906101000a900460ff16156108165761081183610b17565b61093e565b8273ffffffffffffffffffffffffffffffffffffffff166352d1902d6040518163ffffffff1660e01b815260040160206040518083038186803b15801561085c57600080fd5b505afa92505050801561088d57506040513d601f19601f8201168201806040525081019061088a9190610f2e565b60015b6108cc576040517f08c379a00000000000000000000000000000000000000000000000000000000081526004016108c3906112e2565b60405180910390fd5b7f360894a13ba1a3210667c828492db98dca3e2076cc3735a920a3ca505d382bbc60001b8114610931576040517f08c379a0000000000000000000000000000000000000000000000000000000008152600401610928906112a2565b60405180910390fd5b5061093d838383610bd0565b5b505050565b61094b610bfc565b73ffffffffffffffffffffffffffffffffffffffff16610969610570565b73ffffffffffffffffffffffffffffffffffffffff16146109bf576040517f08c379a00000000000000000000000000000000000000000000000000000000081526004016109b690611322565b60405180910390fd5b565b6000609760009054906101000a900473ffffffffffffffffffffffffffffffffffffffff16905081609760006101000a81548173ffffffffffffffffffffffffffffffffffffffff021916908373ffffffffffffffffffffffffffffffffffffffff1602179055508173ffffffffffffffffffffffffffffffffffffffff168173ffffffffffffffffffffffffffffffffffffffff167f8be0079c531659141344cd1fd0a4f28419497f9722a3daafe3b4186f6b6457e060405160405180910390a35050565b6000808273ffffffffffffffffffffffffffffffffffffffff163b119050919050565b600060019054906101000a900460ff16610af9576040517f08c379a0000000000000000000000000000000000000000000000000000000008152600401610af090611362565b60405180910390fd5b610b01610c04565b565b6000819050919050565b6000819050919050565b610b2081610a87565b610b5f576040517f08c379a0000000000000000000000000000000000000000000000000000000008152600401610b5690611302565b60405180910390fd5b80610b8c7f360894a13ba1a3210667c828492db98dca3e2076cc3735a920a3ca505d382bbc60001b610b03565b60000160006101000a81548173ffffffffffffffffffffffffffffffffffffffff021916908373ffffffffffffffffffffffffffffffffffffffff16021790555050565b610bd983610c65565b600082511180610be65750805b15610bf757610bf58383610cb4565b505b505050565b600033905090565b600060019054906101000a900460ff16610c53576040517f08c379a0000000000000000000000000000000000000000000000000000000008152600401610c4a90611362565b60405180910390fd5b610c63610c5e610bfc565b6109c1565b565b610c6e81610b17565b8073ffffffffffffffffffffffffffffffffffffffff167fbc7cd75a20ee27fd9adebab32041f755214dbc6bffa90cc0225b39da2e5c2d3b60405160405180910390a250565b6060610cbf83610a87565b610cfe576040517f08c379a0000000000000000000000000000000000000000000000000000000008152600401610cf590611342565b60405180910390fd5b6000808473ffffffffffffffffffffffffffffffffffffffff1684604051610d269190611198565b600060405180830381855af49150503d8060008114610d61576040519150601f19603f3d011682016040523d82523d6000602084013e610d66565b606091505b5091509150610d8e828260405180606001604052806027815260200161192c60279139610d98565b9250505092915050565b60608315610da857829050610db3565b610db28383610dba565b5b9392505050565b600082511115610dcd5781518083602001fd5b806040517f08c379a0000000000000000000000000000000000000000000000000000000008152600401610e019190611200565b60405180910390fd5b6000610e1d610e18846113a7565b611382565b905082815260208101848484011115610e3557600080fd5b610e408482856114c5565b509392505050565b600081359050610e57816118e6565b92915050565b600081519050610e6c816118fd565b92915050565b600082601f830112610e8357600080fd5b8135610e93848260208601610e0a565b91505092915050565b600081359050610eab81611914565b92915050565b600060208284031215610ec357600080fd5b6000610ed184828501610e48565b91505092915050565b60008060408385031215610eed57600080fd5b6000610efb85828601610e48565b925050602083013567ffffffffffffffff811115610f1857600080fd5b610f2485828601610e72565b9150509250929050565b600060208284031215610f4057600080fd5b6000610f4e84828501610e5d565b91505092915050565b600060208284031215610f6957600080fd5b6000610f7784828501610e9c565b91505092915050565b610f8981611460565b82525050565b610f9881611472565b82525050565b6000610fa9826113d8565b610fb381856113ee565b9350610fc38185602086016114d4565b80840191505092915050565b610fd8816114b3565b82525050565b6000610fe9826113e3565b610ff381856113f9565b93506110038185602086016114d4565b61100c81611596565b840191505092915050565b60006110246026836113f9565b915061102f826115a7565b604082019050919050565b6000611047602c836113f9565b9150611052826115f6565b604082019050919050565b600061106a602c836113f9565b915061107582611645565b604082019050919050565b600061108d6038836113f9565b915061109882611694565b604082019050919050565b60006110b06029836113f9565b91506110bb826116e3565b604082019050919050565b60006110d3602e836113f9565b91506110de82611732565b604082019050919050565b60006110f6602e836113f9565b915061110182611781565b604082019050919050565b6000611119602d836113f9565b9150611124826117d0565b604082019050919050565b600061113c6020836113f9565b91506111478261181f565b602082019050919050565b600061115f6026836113f9565b915061116a82611848565b604082019050919050565b6000611182602b836113f9565b915061118d82611897565b604082019050919050565b60006111a48284610f9e565b915081905092915050565b60006020820190506111c46000830184610f80565b92915050565b60006020820190506111df6000830184610f8f565b92915050565b60006020820190506111fa6000830184610fcf565b92915050565b6000602082019050818103600083015261121a8184610fde565b905092915050565b6000602082019050818103600083015261123b81611017565b9050919050565b6000602082019050818103600083015261125b8161103a565b9050919050565b6000602082019050818103600083015261127b8161105d565b9050919050565b6000602082019050818103600083015261129b81611080565b9050919050565b600060208201905081810360008301526112bb816110a3565b9050919050565b600060208201905081810360008301526112db816110c6565b9050919050565b600060208201905081810360008301526112fb816110e9565b9050919050565b6000602082019050818103600083015261131b8161110c565b9050919050565b6000602082019050818103600083015261133b8161112f565b9050919050565b6000602082019050818103600083015261135b81611152565b9050919050565b6000602082019050818103600083015261137b81611175565b9050919050565b600061138c61139d565b90506113988282611507565b919050565b6000604051905090565b600067ffffffffffffffff8211156113c2576113c1611567565b5b6113cb82611596565b9050602081019050919050565b600081519050919050565b600081519050919050565b600081905092915050565b600082825260208201905092915050565b60006114158261149c565b91506114208361149c565b9250827fffffffffffffffffffffffffffffffffffffffffffffffffffffffffffffffff0382111561145557611454611538565b5b828201905092915050565b600061146b8261147c565b9050919050565b6000819050919050565b600073ffffffffffffffffffffffffffffffffffffffff82169050919050565b6000819050919050565b600060ff82169050919050565b60006114be826114a6565b9050919050565b82818337600083830152505050565b60005b838110156114f25780820151818401526020810190506114d7565b83811115611501576000848401525b50505050565b61151082611596565b810181811067ffffffffffffffff8211171561152f5761152e611567565b5b80604052505050565b7f4e487b7100000000000000000000000000000000000000000000000000000000600052601160045260246000fd5b7f4e487b7100000000000000000000000000000000000000000000000000000000600052604160045260246000fd5b6000601f19601f8301169050919050565b7f4f776e61626c653a206e6577206f776e657220697320746865207a65726f206160008201527f6464726573730000000000000000000000000000000000000000000000000000602082015250565b7f46756e6374696f6e206d7573742062652063616c6c6564207468726f7567682060008201527f64656c656761746563616c6c0000000000000000000000000000000000000000602082015250565b7f46756e6374696f6e206d7573742062652063616c6c6564207468726f7567682060008201527f6163746976652070726f78790000000000000000000000000000000000000000602082015250565b7f555550535570677261646561626c653a206d757374206e6f742062652063616c60008201527f6c6564207468726f7567682064656c656761746563616c6c0000000000000000602082015250565b7f45524331393637557067726164653a20756e737570706f727465642070726f7860008201527f6961626c65555549440000000000000000000000000000000000000000000000602082015250565b7f496e697469616c697a61626c653a20636f6e747261637420697320616c72656160008201527f647920696e697469616c697a6564000000000000000000000000000000000000602082015250565b7f45524331393637557067726164653a206e657720696d706c656d656e7461746960008201527f6f6e206973206e6f742055555053000000000000000000000000000000000000602082015250565b7f455243313936373a206e657720696d706c656d656e746174696f6e206973206e60008201527f6f74206120636f6e747261637400000000000000000000000000000000000000602082015250565b7f4f776e61626c653a2063616c6c6572206973206e6f7420746865206f776e6572600082015250565b7f416464726573733a2064656c65676174652063616c6c20746f206e6f6e2d636f60008201527f6e74726163740000000000000000000000000000000000000000000000000000602082015250565b7f496e697469616c697a61626c653a20636f6e7472616374206973206e6f74206960008201527f6e697469616c697a696e67000000000000000000000000000000000000000000602082015250565b6118ef81611460565b81146118fa57600080fd5b50565b61190681611472565b811461191157600080fd5b50565b61191d8161149c565b811461192857600080fd5b5056fe416464726573733a206c6f772d6c6576656c2064656c65676174652063616c6c206661696c6564a26469706673582212200d7d34d5553af8ce58ba00e514eb83bc94bce97dfa0dd1ee4d787fce92662a8a64736f6c63430008040033",
  "linkReferences": {},
  "deployedLinkReferences": {}
}