{
  "_format": "hh-sol-artifact-1",
  "contractName": "Vault",
  "sourceName": "contracts/Automation/Vault.sol",
  "abi": [
    {
      "inputs": [
        {
          "internalType": "uint256",
          "name": "updateInterval",
          "type": "uint256"
        }
      ],
      "stateMutability": "nonpayable",
      "type": "constructor"
    },
    {
      "inputs": [],
      "name": "balanceOf",
      "outputs": [
        {
          "internalType": "uint256",
          "name": "",
          "type": "uint256"
        }
      ],
      "stateMutability": "view",
      "type": "function"
    },
    {
      "inputs": [
        {
          "internalType": "bytes",
          "name": "",
          "type": "bytes"
        }
      ],
      "name": "checkUpkeep",
      "outputs": [
        {
          "internalType": "bool",
          "name": "upkeepNeeded",
          "type": "bool"
        },
        {
          "internalType": "bytes",
          "name": "performData",
          "type": "bytes"
        }
      ],
      "stateMutability": "nonpayable",
      "type": "function"
    },
    {
      "inputs": [],
      "name": "deposit",
      "outputs": [],
      "stateMutability": "payable",
      "type": "function"
    },
    {
      "inputs": [],
      "name": "interval",
      "outputs": [
        {
          "internalType": "uint256",
          "name": "",
          "type": "uint256"
        }
      ],
      "stateMutability": "view",
      "type": "function"
    },
    {
      "inputs": [],
      "name": "lastTimeStamp",
      "outputs": [
        {
          "internalType": "uint256",
          "name": "",
          "type": "uint256"
        }
      ],
      "stateMutability": "view",
      "type": "function"
    },
    {
      "inputs": [],
      "name": "owner",
      "outputs": [
        {
          "internalType": "address",
          "name": "",
          "type": "address"
        }
      ],
      "stateMutability": "view",
      "type": "function"
    },
    {
      "inputs": [
        {
          "internalType": "bytes",
          "name": "performData",
          "type": "bytes"
        }
      ],
      "name": "performUpkeep",
      "outputs": [],
      "stateMutability": "nonpayable",
      "type": "function"
    }
  ],
  "bytecode": "0x60a060405234801561001057600080fd5b506040516106743803806106748339818101604052810190610032919061009c565b336000806101000a81548173ffffffffffffffffffffffffffffffffffffffff021916908373ffffffffffffffffffffffffffffffffffffffff160217905550806080818152505042600281905550506100e6565b600081519050610096816100cf565b92915050565b6000602082840312156100ae57600080fd5b60006100bc84828501610087565b91505092915050565b6000819050919050565b6100d8816100c5565b81146100e357600080fd5b50565b60805161056561010f6000396000818161019a015281816101f7015261025c01526105656000f3fe6080604052600436106100705760003560e01c8063722713f71161004e578063722713f7146101075780638da5cb5b14610132578063947a36fb1461015d578063d0e30db01461018857610070565b80633f3b3b27146100755780634585e33b146100a05780636e04ff0d146100c9575b600080fd5b34801561008157600080fd5b5061008a610192565b60405161009791906103c0565b60405180910390f35b3480156100ac57600080fd5b506100c760048036038101906100c291906102ca565b610198565b005b3480156100d557600080fd5b506100f060048036038101906100eb91906102ca565b6101f1565b6040516100fe929190610390565b60405180910390f35b34801561011357600080fd5b5061011c61022e565b60405161012991906103c0565b60405180910390f35b34801561013e57600080fd5b50610147610236565b6040516101549190610375565b60405180910390f35b34801561016957600080fd5b5061017261025a565b60405161017f91906103c0565b60405180910390f35b61019061027e565b005b60025481565b7f0000000000000000000000000000000000000000000000000000000000000000600254426101c791906103f7565b11156101ed5742600281905550600160008154809291906101e7906104a6565b91905055505b5050565b600060607f00000000000000000000000000000000000000000000000000000000000000006002544261022491906103f7565b1191509250929050565b600047905090565b60008054906101000a900473ffffffffffffffffffffffffffffffffffffffff1681565b7f000000000000000000000000000000000000000000000000000000000000000081565b565b60008083601f84011261029257600080fd5b8235905067ffffffffffffffff8111156102ab57600080fd5b6020830191508360018202830111156102c357600080fd5b9250929050565b600080602083850312156102dd57600080fd5b600083013567ffffffffffffffff8111156102f757600080fd5b61030385828601610280565b92509250509250929050565b6103188161042b565b82525050565b6103278161043d565b82525050565b6000610338826103db565b61034281856103e6565b9350610352818560208601610473565b61035b8161051e565b840191505092915050565b61036f81610469565b82525050565b600060208201905061038a600083018461030f565b92915050565b60006040820190506103a5600083018561031e565b81810360208301526103b7818461032d565b90509392505050565b60006020820190506103d56000830184610366565b92915050565b600081519050919050565b600082825260208201905092915050565b600061040282610469565b915061040d83610469565b9250828210156104205761041f6104ef565b5b828203905092915050565b600061043682610449565b9050919050565b60008115159050919050565b600073ffffffffffffffffffffffffffffffffffffffff82169050919050565b6000819050919050565b60005b83811015610491578082015181840152602081019050610476565b838111156104a0576000848401525b50505050565b60006104b182610469565b91507fffffffffffffffffffffffffffffffffffffffffffffffffffffffffffffffff8214156104e4576104e36104ef565b5b600182019050919050565b7f4e487b7100000000000000000000000000000000000000000000000000000000600052601160045260246000fd5b6000601f19601f830116905091905056fea26469706673582212203396d1917b79e7ac78649d36bf19f551530b33c70e1e3344803a3e1f5260e7a464736f6c63430008040033",
  "linkReferences": {},
  "deployedLinkReferences": {}
}