{
  "address": "0x7D6cB1515BCd20D6c3ADE62f1f4E374688d72D52",
  "abi": [
    {
      "inputs": [
        {
          "internalType": "address",
          "name": "vrfCoordinatorV2",
          "type": "address"
        },
        {
          "internalType": "uint64",
          "name": "subscriptionId",
          "type": "uint64"
        },
        {
          "internalType": "bytes32",
          "name": "gasLane",
          "type": "bytes32"
        },
        {
          "internalType": "uint256",
          "name": "interval",
          "type": "uint256"
        },
        {
          "internalType": "uint256",
          "name": "entranceFee",
          "type": "uint256"
        },
        {
          "internalType": "uint32",
          "name": "callbackGasLimit",
          "type": "uint32"
        }
      ],
      "stateMutability": "nonpayable",
      "type": "constructor"
    },
    {
      "inputs": [
        {
          "internalType": "address",
          "name": "have",
          "type": "address"
        },
        {
          "internalType": "address",
          "name": "want",
          "type": "address"
        }
      ],
      "name": "OnlyCoordinatorCanFulfill",
      "type": "error"
    },
    {
      "anonymous": false,
      "inputs": [
        {
          "indexed": true,
          "internalType": "address",
          "name": "owner",
          "type": "address"
        },
        {
          "indexed": true,
          "internalType": "address",
          "name": "approved",
          "type": "address"
        },
        {
          "indexed": true,
          "internalType": "uint256",
          "name": "tokenId",
          "type": "uint256"
        }
      ],
      "name": "Approval",
      "type": "event"
    },
    {
      "anonymous": false,
      "inputs": [
        {
          "indexed": true,
          "internalType": "address",
          "name": "owner",
          "type": "address"
        },
        {
          "indexed": true,
          "internalType": "address",
          "name": "operator",
          "type": "address"
        },
        {
          "indexed": false,
          "internalType": "bool",
          "name": "approved",
          "type": "bool"
        }
      ],
      "name": "ApprovalForAll",
      "type": "event"
    },
    {
      "anonymous": false,
      "inputs": [
        {
          "indexed": false,
          "internalType": "uint256",
          "name": "reqId",
          "type": "uint256"
        },
        {
          "indexed": false,
          "internalType": "uint256",
          "name": "w1",
          "type": "uint256"
        },
        {
          "indexed": false,
          "internalType": "uint256",
          "name": "w2",
          "type": "uint256"
        }
      ],
      "name": "ReceivedRandomness",
      "type": "event"
    },
    {
      "anonymous": false,
      "inputs": [
        {
          "indexed": false,
          "internalType": "address",
          "name": "account",
          "type": "address"
        },
        {
          "indexed": false,
          "internalType": "uint256",
          "name": "timestamp",
          "type": "uint256"
        }
      ],
      "name": "Registered",
      "type": "event"
    },
    {
      "anonymous": false,
      "inputs": [
        {
          "indexed": false,
          "internalType": "uint256",
          "name": "reqId",
          "type": "uint256"
        },
        {
          "indexed": false,
          "internalType": "address",
          "name": "invoker",
          "type": "address"
        },
        {
          "indexed": false,
          "internalType": "string",
          "name": "name",
          "type": "string"
        }
      ],
      "name": "RequestedRandomness",
      "type": "event"
    },
    {
      "anonymous": false,
      "inputs": [
        {
          "indexed": true,
          "internalType": "address",
          "name": "from",
          "type": "address"
        },
        {
          "indexed": true,
          "internalType": "address",
          "name": "to",
          "type": "address"
        },
        {
          "indexed": true,
          "internalType": "uint256",
          "name": "tokenId",
          "type": "uint256"
        }
      ],
      "name": "Transfer",
      "type": "event"
    },
    {
      "inputs": [
        {
          "internalType": "uint256",
          "name": "",
          "type": "uint256"
        }
      ],
      "name": "accountInfo",
      "outputs": [
        {
          "internalType": "address",
          "name": "",
          "type": "address"
        }
      ],
      "stateMutability": "view",
      "type": "function"
    },
    {
      "inputs": [
        {
          "internalType": "address",
          "name": "to",
          "type": "address"
        },
        {
          "internalType": "uint256",
          "name": "tokenId",
          "type": "uint256"
        }
      ],
      "name": "approve",
      "outputs": [],
      "stateMutability": "nonpayable",
      "type": "function"
    },
    {
      "inputs": [
        {
          "internalType": "address",
          "name": "owner",
          "type": "address"
        }
      ],
      "name": "balanceOf",
      "outputs": [
        {
          "internalType": "uint256",
          "name": "",
          "type": "uint256"
        }
      ],
      "stateMutability": "view",
      "type": "function"
    },
    {
      "inputs": [
        {
          "internalType": "uint256",
          "name": "tokenId",
          "type": "uint256"
        }
      ],
      "name": "getApproved",
      "outputs": [
        {
          "internalType": "address",
          "name": "",
          "type": "address"
        }
      ],
      "stateMutability": "view",
      "type": "function"
    },
    {
      "inputs": [],
      "name": "getBalance",
      "outputs": [
        {
          "internalType": "uint256",
          "name": "",
          "type": "uint256"
        }
      ],
      "stateMutability": "view",
      "type": "function"
    },
    {
      "inputs": [
        {
          "internalType": "address",
          "name": "owner",
          "type": "address"
        },
        {
          "internalType": "address",
          "name": "operator",
          "type": "address"
        }
      ],
      "name": "isApprovedForAll",
      "outputs": [
        {
          "internalType": "bool",
          "name": "",
          "type": "bool"
        }
      ],
      "stateMutability": "view",
      "type": "function"
    },
    {
      "inputs": [],
      "name": "name",
      "outputs": [
        {
          "internalType": "string",
          "name": "",
          "type": "string"
        }
      ],
      "stateMutability": "view",
      "type": "function"
    },
    {
      "inputs": [
        {
          "internalType": "uint256",
          "name": "tokenId",
          "type": "uint256"
        }
      ],
      "name": "ownerOf",
      "outputs": [
        {
          "internalType": "address",
          "name": "",
          "type": "address"
        }
      ],
      "stateMutability": "view",
      "type": "function"
    },
    {
      "inputs": [
        {
          "internalType": "uint256",
          "name": "requestId",
          "type": "uint256"
        },
        {
          "internalType": "uint256[]",
          "name": "randomWords",
          "type": "uint256[]"
        }
      ],
      "name": "rawFulfillRandomWords",
      "outputs": [],
      "stateMutability": "nonpayable",
      "type": "function"
    },
    {
      "inputs": [],
      "name": "register",
      "outputs": [],
      "stateMutability": "payable",
      "type": "function"
    },
    {
      "inputs": [
        {
          "internalType": "address",
          "name": "",
          "type": "address"
        }
      ],
      "name": "registeredAccounts",
      "outputs": [
        {
          "internalType": "bool",
          "name": "isRegistered",
          "type": "bool"
        },
        {
          "internalType": "uint256",
          "name": "date",
          "type": "uint256"
        }
      ],
      "stateMutability": "view",
      "type": "function"
    },
    {
      "inputs": [
        {
          "internalType": "uint256",
          "name": "",
          "type": "uint256"
        }
      ],
      "name": "requestToCharacterName",
      "outputs": [
        {
          "internalType": "string",
          "name": "",
          "type": "string"
        }
      ],
      "stateMutability": "view",
      "type": "function"
    },
    {
      "inputs": [
        {
          "internalType": "uint256",
          "name": "",
          "type": "uint256"
        }
      ],
      "name": "requestToSender",
      "outputs": [
        {
          "internalType": "address",
          "name": "",
          "type": "address"
        }
      ],
      "stateMutability": "view",
      "type": "function"
    },
    {
      "inputs": [
        {
          "internalType": "string",
          "name": "name",
          "type": "string"
        }
      ],
      "name": "safeMint",
      "outputs": [
        {
          "internalType": "uint256",
          "name": "requestId",
          "type": "uint256"
        }
      ],
      "stateMutability": "nonpayable",
      "type": "function"
    },
    {
      "inputs": [
        {
          "internalType": "address",
          "name": "from",
          "type": "address"
        },
        {
          "internalType": "address",
          "name": "to",
          "type": "address"
        },
        {
          "internalType": "uint256",
          "name": "tokenId",
          "type": "uint256"
        }
      ],
      "name": "safeTransferFrom",
      "outputs": [],
      "stateMutability": "nonpayable",
      "type": "function"
    },
    {
      "inputs": [
        {
          "internalType": "address",
          "name": "from",
          "type": "address"
        },
        {
          "internalType": "address",
          "name": "to",
          "type": "address"
        },
        {
          "internalType": "uint256",
          "name": "tokenId",
          "type": "uint256"
        },
        {
          "internalType": "bytes",
          "name": "data",
          "type": "bytes"
        }
      ],
      "name": "safeTransferFrom",
      "outputs": [],
      "stateMutability": "nonpayable",
      "type": "function"
    },
    {
      "inputs": [
        {
          "internalType": "address",
          "name": "operator",
          "type": "address"
        },
        {
          "internalType": "bool",
          "name": "approved",
          "type": "bool"
        }
      ],
      "name": "setApprovalForAll",
      "outputs": [],
      "stateMutability": "nonpayable",
      "type": "function"
    },
    {
      "inputs": [
        {
          "internalType": "bytes4",
          "name": "interfaceId",
          "type": "bytes4"
        }
      ],
      "name": "supportsInterface",
      "outputs": [
        {
          "internalType": "bool",
          "name": "",
          "type": "bool"
        }
      ],
      "stateMutability": "view",
      "type": "function"
    },
    {
      "inputs": [],
      "name": "symbol",
      "outputs": [
        {
          "internalType": "string",
          "name": "",
          "type": "string"
        }
      ],
      "stateMutability": "view",
      "type": "function"
    },
    {
      "inputs": [
        {
          "internalType": "uint256",
          "name": "",
          "type": "uint256"
        }
      ],
      "name": "tokenIdToNftInfo",
      "outputs": [
        {
          "internalType": "string",
          "name": "name",
          "type": "string"
        },
        {
          "internalType": "uint256",
          "name": "t1",
          "type": "uint256"
        },
        {
          "internalType": "uint256",
          "name": "t2",
          "type": "uint256"
        }
      ],
      "stateMutability": "view",
      "type": "function"
    },
    {
      "inputs": [
        {
          "internalType": "uint256",
          "name": "tokenId",
          "type": "uint256"
        }
      ],
      "name": "tokenURI",
      "outputs": [
        {
          "internalType": "string",
          "name": "",
          "type": "string"
        }
      ],
      "stateMutability": "view",
      "type": "function"
    },
    {
      "inputs": [
        {
          "internalType": "address",
          "name": "from",
          "type": "address"
        },
        {
          "internalType": "address",
          "name": "to",
          "type": "address"
        },
        {
          "internalType": "uint256",
          "name": "tokenId",
          "type": "uint256"
        }
      ],
      "name": "transferFrom",
      "outputs": [],
      "stateMutability": "nonpayable",
      "type": "function"
    },
    {
      "inputs": [],
      "name": "withdraw",
      "outputs": [],
      "stateMutability": "nonpayable",
      "type": "function"
    },
    {
      "stateMutability": "payable",
      "type": "receive"
    }
  ],
  "transactionHash": "0x57a01865d6c5310ac6e3d45a8da95509b3c01a8c02d1cb4383e7edd82479f5c8",
  "args": [
    "0x2Ca8E0C643bDe4C2E08ab1fA0da3401AdAD7734D",
    "6926",
    "0x79d3d8832d904592c0bf9818b621522c988bb8b0c05cdc3b15aea1b6e8db0c15",
    "30",
    "10000000000000000",
    "500000"
  ],
  "numDeployments": 1,
  "solcInputHash": "512f9bc82f9372a172dcb22bc2084eb9",
  "bytecode": "0x6101606040526003600760186101000a81548161ffff021916908361ffff1602179055503480156200003057600080fd5b506040516200402c3803806200402c833981810160405281019062000056919062000339565b856040518060400160405280600581526020017f4c4f54544f0000000000000000000000000000000000000000000000000000008152506040518060400160405280600381526020017f4c4f5400000000000000000000000000000000000000000000000000000000008152508160009080519060200190620000db92919062000216565b508060019080519060200190620000f492919062000216565b5050508073ffffffffffffffffffffffffffffffffffffffff1660808173ffffffffffffffffffffffffffffffffffffffff1660601b81525050508573ffffffffffffffffffffffffffffffffffffffff1660a08173ffffffffffffffffffffffffffffffffffffffff1660601b815250508360e081815250508261010081815250508467ffffffffffffffff1660c08167ffffffffffffffff1660c01b8152505080600760146101000a81548163ffffffff021916908363ffffffff16021790555081610140818152505042610120818152505033600760006101000a81548173ffffffffffffffffffffffffffffffffffffffff021916908373ffffffffffffffffffffffffffffffffffffffff16021790555050505050505062000522565b82805462000224906200043b565b90600052602060002090601f01602090048101928262000248576000855562000294565b82601f106200026357805160ff191683800117855562000294565b8280016001018555821562000294579182015b828111156200029357825182559160200191906001019062000276565b5b509050620002a39190620002a7565b5090565b5b80821115620002c2576000816000905550600101620002a8565b5090565b600081519050620002d781620004a0565b92915050565b600081519050620002ee81620004ba565b92915050565b6000815190506200030581620004d4565b92915050565b6000815190506200031c81620004ee565b92915050565b600081519050620003338162000508565b92915050565b60008060008060008060c087890312156200035357600080fd5b60006200036389828a01620002c6565b96505060206200037689828a0162000322565b95505060406200038989828a01620002dd565b94505060606200039c89828a01620002f4565b9350506080620003af89828a01620002f4565b92505060a0620003c289828a016200030b565b9150509295509295509295565b6000620003dc82620003ed565b9050919050565b6000819050919050565b600073ffffffffffffffffffffffffffffffffffffffff82169050919050565b6000819050919050565b600063ffffffff82169050919050565b600067ffffffffffffffff82169050919050565b600060028204905060018216806200045457607f821691505b602082108114156200046b576200046a62000471565b5b50919050565b7f4e487b7100000000000000000000000000000000000000000000000000000000600052602260045260246000fd5b620004ab81620003cf565b8114620004b757600080fd5b50565b620004c581620003e3565b8114620004d157600080fd5b50565b620004df816200040d565b8114620004eb57600080fd5b50565b620004f98162000417565b81146200050557600080fd5b50565b620005138162000427565b81146200051f57600080fd5b50565b60805160601c60a05160601c60c05160c01c60e051610100516101205161014051613aa86200058460003960005050600050506000505060006110ab015260006110cc0152600061106f015260008181610bb60152610c0a0152613aa86000f3fe6080604052600436106101445760003560e01c8063477b13db116100b6578063a22cb4651161006f578063a22cb46514610480578063b678647a146104a9578063b88d4fde146104e6578063c87b56dd1461050f578063d8fa638d1461054c578063e985e9c51461058a5761014b565b8063477b13db1461032257806356513467146103615780636352211e1461039e578063695850fb146103db57806370a082311461041857806395d89b41146104555761014b565b806312065fe01161010857806312065fe01461025b5780631aa3a008146102865780631fe543e31461029057806323b872dd146102b95780633ccfd60b146102e257806342842e0e146102f95761014b565b806301ffc9a71461015057806306fdde031461018d578063081812fc146101b8578063095ea7b3146101f557806311c42b3b1461021e5761014b565b3661014b57005b600080fd5b34801561015c57600080fd5b506101776004803603810190610172919061290e565b6105c7565b6040516101849190612ec9565b60405180910390f35b34801561019957600080fd5b506101a26106a9565b6040516101af9190612f60565b60405180910390f35b3480156101c457600080fd5b506101df60048036038101906101da91906129a5565b61073b565b6040516101ec9190612e10565b60405180910390f35b34801561020157600080fd5b5061021c600480360381019061021791906128d2565b610781565b005b34801561022a57600080fd5b50610245600480360381019061024091906129a5565b610899565b6040516102529190612f60565b60405180910390f35b34801561026757600080fd5b50610270610939565b60405161027d91906131c0565b60405180910390f35b61028e610941565b005b34801561029c57600080fd5b506102b760048036038101906102b291906129f7565b610bb4565b005b3480156102c557600080fd5b506102e060048036038101906102db91906127cc565b610c74565b005b3480156102ee57600080fd5b506102f7610cd4565b005b34801561030557600080fd5b50610320600480360381019061031b91906127cc565b610e19565b005b34801561032e57600080fd5b50610349600480360381019061034491906129a5565b610e39565b60405161035893929190612f82565b60405180910390f35b34801561036d57600080fd5b50610388600480360381019061038391906129a5565b610eeb565b6040516103959190612e10565b60405180910390f35b3480156103aa57600080fd5b506103c560048036038101906103c091906129a5565b610f2a565b6040516103d29190612e10565b60405180910390f35b3480156103e757600080fd5b5061040260048036038101906103fd9190612960565b610fdc565b60405161040f91906131c0565b60405180910390f35b34801561042457600080fd5b5061043f600480360381019061043a9190612767565b61123d565b60405161044c91906131c0565b60405180910390f35b34801561046157600080fd5b5061046a6112f5565b6040516104779190612f60565b60405180910390f35b34801561048c57600080fd5b506104a760048036038101906104a29190612896565b611387565b005b3480156104b557600080fd5b506104d060048036038101906104cb91906129a5565b61139d565b6040516104dd9190612e10565b60405180910390f35b3480156104f257600080fd5b5061050d6004803603810190610508919061281b565b6113d0565b005b34801561051b57600080fd5b50610536600480360381019061053191906129a5565b611432565b6040516105439190612f60565b60405180910390f35b34801561055857600080fd5b50610573600480360381019061056e9190612767565b61149a565b604051610581929190612ee4565b60405180910390f35b34801561059657600080fd5b506105b160048036038101906105ac9190612790565b6114cb565b6040516105be9190612ec9565b60405180910390f35b60007f80ac58cd000000000000000000000000000000000000000000000000000000007bffffffffffffffffffffffffffffffffffffffffffffffffffffffff1916827bffffffffffffffffffffffffffffffffffffffffffffffffffffffff1916148061069257507f5b5e139f000000000000000000000000000000000000000000000000000000007bffffffffffffffffffffffffffffffffffffffffffffffffffffffff1916827bffffffffffffffffffffffffffffffffffffffffffffffffffffffff1916145b806106a257506106a18261155f565b5b9050919050565b6060600080546106b8906134cf565b80601f01602080910402602001604051908101604052809291908181526020018280546106e4906134cf565b80156107315780601f1061070657610100808354040283529160200191610731565b820191906000526020600020905b81548152906001019060200180831161071457829003601f168201915b5050505050905090565b6000610746826115c9565b6004600083815260200190815260200160002060009054906101000a900473ffffffffffffffffffffffffffffffffffffffff169050919050565b600061078c82610f2a565b90508073ffffffffffffffffffffffffffffffffffffffff168373ffffffffffffffffffffffffffffffffffffffff1614156107fd576040517f08c379a00000000000000000000000000000000000000000000000000000000081526004016107f490613160565b60405180910390fd5b8073ffffffffffffffffffffffffffffffffffffffff1661081c611614565b73ffffffffffffffffffffffffffffffffffffffff16148061084b575061084a81610845611614565b6114cb565b5b61088a576040517f08c379a0000000000000000000000000000000000000000000000000000000008152600401610881906130e0565b60405180910390fd5b610894838361161c565b505050565b600c60205280600052604060002060009150905080546108b8906134cf565b80601f01602080910402602001604051908101604052809291908181526020018280546108e4906134cf565b80156109315780601f1061090657610100808354040283529160200191610931565b820191906000526020600020905b81548152906001019060200180831161091457829003601f168201915b505050505081565b600047905090565b662386f26fc10000341461098a576040517f08c379a0000000000000000000000000000000000000000000000000000000008152600401610981906131a0565b60405180910390fd5b600960003373ffffffffffffffffffffffffffffffffffffffff1673ffffffffffffffffffffffffffffffffffffffff16815260200190815260200160002060000160009054906101000a900460ff1615610a1a576040517f08c379a0000000000000000000000000000000000000000000000000000000008152600401610a1190613080565b60405180910390fd5b6000600960003373ffffffffffffffffffffffffffffffffffffffff1673ffffffffffffffffffffffffffffffffffffffff1681526020019081526020016000206040518060400160405290816000820160009054906101000a900460ff16151515158152602001600182015481525050905060018160000190151590811515815250504281602001818152505080600960003373ffffffffffffffffffffffffffffffffffffffff1673ffffffffffffffffffffffffffffffffffffffff16815260200190815260200160002060008201518160000160006101000a81548160ff021916908315150217905550602082015181600101559050506008339080600181540180825580915050600190039060005260206000200160009091909190916101000a81548173ffffffffffffffffffffffffffffffffffffffff021916908373ffffffffffffffffffffffffffffffffffffffff1602179055507f6f3bf3fa84e4763a43b3d23f9d79be242d6d5c834941ff4c1111b67469e1150c3342604051610ba9929190612ea0565b60405180910390a150565b7f000000000000000000000000000000000000000000000000000000000000000073ffffffffffffffffffffffffffffffffffffffff163373ffffffffffffffffffffffffffffffffffffffff1614610c6657337f00000000000000000000000000000000000000000000000000000000000000006040517f1cf993f4000000000000000000000000000000000000000000000000000000008152600401610c5d929190612e2b565b60405180910390fd5b610c7082826116d5565b5050565b610c85610c7f611614565b82611948565b610cc4576040517f08c379a0000000000000000000000000000000000000000000000000000000008152600401610cbb90613180565b60405180910390fd5b610ccf8383836119dd565b505050565b600760009054906101000a900473ffffffffffffffffffffffffffffffffffffffff1673ffffffffffffffffffffffffffffffffffffffff163373ffffffffffffffffffffffffffffffffffffffff1614610d64576040517f08c379a0000000000000000000000000000000000000000000000000000000008152600401610d5b90613120565b60405180910390fd5b600047905060003373ffffffffffffffffffffffffffffffffffffffff1682604051610d8f90612dfb565b60006040518083038185875af1925050503d8060008114610dcc576040519150601f19603f3d011682016040523d82523d6000602084013e610dd1565b606091505b5050905080610e15576040517f08c379a0000000000000000000000000000000000000000000000000000000008152600401610e0c906130a0565b60405180910390fd5b5050565b610e34838383604051806020016040528060008152506113d0565b505050565b600b602052806000526040600020600091509050806000018054610e5c906134cf565b80601f0160208091040260200160405190810160405280929190818152602001828054610e88906134cf565b8015610ed55780601f10610eaa57610100808354040283529160200191610ed5565b820191906000526020600020905b815481529060010190602001808311610eb857829003601f168201915b5050505050908060010154908060020154905083565b60088181548110610efb57600080fd5b906000526020600020016000915054906101000a900473ffffffffffffffffffffffffffffffffffffffff1681565b6000806002600084815260200190815260200160002060009054906101000a900473ffffffffffffffffffffffffffffffffffffffff169050600073ffffffffffffffffffffffffffffffffffffffff168173ffffffffffffffffffffffffffffffffffffffff161415610fd3576040517f08c379a0000000000000000000000000000000000000000000000000000000008152600401610fca90613140565b60405180910390fd5b80915050919050565b6000600960003373ffffffffffffffffffffffffffffffffffffffff1673ffffffffffffffffffffffffffffffffffffffff16815260200190815260200160002060000160009054906101000a900460ff1661106d576040517f08c379a000000000000000000000000000000000000000000000000000000000815260040161106490613020565b60405180910390fd5b7f000000000000000000000000000000000000000000000000000000000000000073ffffffffffffffffffffffffffffffffffffffff16635d3b1d307f00000000000000000000000000000000000000000000000000000000000000007f0000000000000000000000000000000000000000000000000000000000000000600760189054906101000a900461ffff16600760149054906101000a900463ffffffff1660016040518663ffffffff1660e01b8152600401611131959493929190612f0d565b602060405180830381600087803b15801561114b57600080fd5b505af115801561115f573d6000803e3d6000fd5b505050506040513d601f19601f8201168201806040525081019061118391906129ce565b905033600a600083815260200190815260200160002060006101000a81548173ffffffffffffffffffffffffffffffffffffffff021916908373ffffffffffffffffffffffffffffffffffffffff1602179055508282600c600084815260200190815260200160002091906111f9929190612478565b507f69b7e39b60fb7a72d4f0f21ef5a71c17e20f93eeedd4b7b81eb8e394a41985808133858560405161122f94939291906131db565b60405180910390a192915050565b60008073ffffffffffffffffffffffffffffffffffffffff168273ffffffffffffffffffffffffffffffffffffffff1614156112ae576040517f08c379a00000000000000000000000000000000000000000000000000000000081526004016112a5906130c0565b60405180910390fd5b600360008373ffffffffffffffffffffffffffffffffffffffff1673ffffffffffffffffffffffffffffffffffffffff168152602001908152602001600020549050919050565b606060018054611304906134cf565b80601f0160208091040260200160405190810160405280929190818152602001828054611330906134cf565b801561137d5780601f106113525761010080835404028352916020019161137d565b820191906000526020600020905b81548152906001019060200180831161136057829003601f168201915b5050505050905090565b611399611392611614565b8383611c44565b5050565b600a6020528060005260406000206000915054906101000a900473ffffffffffffffffffffffffffffffffffffffff1681565b6113e16113db611614565b83611948565b611420576040517f08c379a000000000000000000000000000000000000000000000000000000000815260040161141790613180565b60405180910390fd5b61142c84848484611db1565b50505050565b606061143d826115c9565b6000611447611e0d565b905060008151116114675760405180602001604052806000815250611492565b8061147184611e24565b604051602001611482929190612dd7565b6040516020818303038152906040525b915050919050565b60096020528060005260406000206000915090508060000160009054906101000a900460ff16908060010154905082565b6000600560008473ffffffffffffffffffffffffffffffffffffffff1673ffffffffffffffffffffffffffffffffffffffff16815260200190815260200160002060008373ffffffffffffffffffffffffffffffffffffffff1673ffffffffffffffffffffffffffffffffffffffff16815260200190815260200160002060009054906101000a900460ff16905092915050565b60007f01ffc9a7000000000000000000000000000000000000000000000000000000007bffffffffffffffffffffffffffffffffffffffffffffffffffffffff1916827bffffffffffffffffffffffffffffffffffffffffffffffffffffffff1916149050919050565b6115d281611fd1565b611611576040517f08c379a000000000000000000000000000000000000000000000000000000000815260040161160890613140565b60405180910390fd5b50565b600033905090565b816004600083815260200190815260200160002060006101000a81548173ffffffffffffffffffffffffffffffffffffffff021916908373ffffffffffffffffffffffffffffffffffffffff160217905550808273ffffffffffffffffffffffffffffffffffffffff1661168f83610f2a565b73ffffffffffffffffffffffffffffffffffffffff167f8c5be1e5ebec7d5bd14f71427d1e84f3dd0314c0f7b2291e5b200ac8c7c3b92560405160405180910390a45050565b600081600081518110611711577f4e487b7100000000000000000000000000000000000000000000000000000000600052603260045260246000fd5b60200260200101519050600082600181518110611757577f4e487b7100000000000000000000000000000000000000000000000000000000600052603260045260246000fd5b60200260200101519050600061176d600661203d565b9050611779600661204b565b60006008805490508361178c919061357b565b90506117fc600882815481106117cb577f4e487b7100000000000000000000000000000000000000000000000000000000600052603260045260246000fd5b9060005260206000200160009054906101000a900473ffffffffffffffffffffffffffffffffffffffff1683612061565b6000600c6000888152602001908152602001600020805461181c906134cf565b80601f0160208091040260200160405190810160405280929190818152602001828054611848906134cf565b80156118955780601f1061186a57610100808354040283529160200191611895565b820191906000526020600020905b81548152906001019060200180831161187857829003601f168201915b505050505090506000604051806060016040528083815260200187815260200186815250905080600b600086815260200190815260200160002060008201518160000190805190602001906118eb9291906124fe565b5060208201518160010155604082015181600201559050507f9096bda702764e81614b9d2d2171d9132954a2bacd84152c291f567bcdbc2e988887876040516119369392919061321b565b60405180910390a15050505050505050565b60008061195483610f2a565b90508073ffffffffffffffffffffffffffffffffffffffff168473ffffffffffffffffffffffffffffffffffffffff161480611996575061199581856114cb565b5b806119d457508373ffffffffffffffffffffffffffffffffffffffff166119bc8461073b565b73ffffffffffffffffffffffffffffffffffffffff16145b91505092915050565b8273ffffffffffffffffffffffffffffffffffffffff166119fd82610f2a565b73ffffffffffffffffffffffffffffffffffffffff1614611a53576040517f08c379a0000000000000000000000000000000000000000000000000000000008152600401611a4a90612fe0565b60405180910390fd5b600073ffffffffffffffffffffffffffffffffffffffff168273ffffffffffffffffffffffffffffffffffffffff161415611ac3576040517f08c379a0000000000000000000000000000000000000000000000000000000008152600401611aba90613040565b60405180910390fd5b611ace83838361207f565b611ad960008261161c565b6001600360008573ffffffffffffffffffffffffffffffffffffffff1673ffffffffffffffffffffffffffffffffffffffff1681526020019081526020016000206000828254611b2991906133a9565b925050819055506001600360008473ffffffffffffffffffffffffffffffffffffffff1673ffffffffffffffffffffffffffffffffffffffff1681526020019081526020016000206000828254611b809190613322565b92505081905550816002600083815260200190815260200160002060006101000a81548173ffffffffffffffffffffffffffffffffffffffff021916908373ffffffffffffffffffffffffffffffffffffffff160217905550808273ffffffffffffffffffffffffffffffffffffffff168473ffffffffffffffffffffffffffffffffffffffff167fddf252ad1be2c89b69c2b068fc378daa952ba7f163c4a11628f55a4df523b3ef60405160405180910390a4611c3f838383612084565b505050565b8173ffffffffffffffffffffffffffffffffffffffff168373ffffffffffffffffffffffffffffffffffffffff161415611cb3576040517f08c379a0000000000000000000000000000000000000000000000000000000008152600401611caa90613060565b60405180910390fd5b80600560008573ffffffffffffffffffffffffffffffffffffffff1673ffffffffffffffffffffffffffffffffffffffff16815260200190815260200160002060008473ffffffffffffffffffffffffffffffffffffffff1673ffffffffffffffffffffffffffffffffffffffff16815260200190815260200160002060006101000a81548160ff0219169083151502179055508173ffffffffffffffffffffffffffffffffffffffff168373ffffffffffffffffffffffffffffffffffffffff167f17307eab39ab6107e8899845ad3d59bd9653f200f220920489ca2b5937696c3183604051611da49190612ec9565b60405180910390a3505050565b611dbc8484846119dd565b611dc884848484612089565b611e07576040517f08c379a0000000000000000000000000000000000000000000000000000000008152600401611dfe90612fc0565b60405180910390fd5b50505050565b606060405180602001604052806000815250905090565b60606000821415611e6c576040518060400160405280600181526020017f30000000000000000000000000000000000000000000000000000000000000008152509050611fcc565b600082905060005b60008214611e9e578080611e8790613532565b915050600a82611e979190613378565b9150611e74565b60008167ffffffffffffffff811115611ee0577f4e487b7100000000000000000000000000000000000000000000000000000000600052604160045260246000fd5b6040519080825280601f01601f191660200182016040528015611f125781602001600182028036833780820191505090505b5090505b60008514611fc557600182611f2b91906133a9565b9150600a85611f3a919061357b565b6030611f469190613322565b60f81b818381518110611f82577f4e487b7100000000000000000000000000000000000000000000000000000000600052603260045260246000fd5b60200101907effffffffffffffffffffffffffffffffffffffffffffffffffffffffffffff1916908160001a905350600a85611fbe9190613378565b9450611f16565b8093505050505b919050565b60008073ffffffffffffffffffffffffffffffffffffffff166002600084815260200190815260200160002060009054906101000a900473ffffffffffffffffffffffffffffffffffffffff1673ffffffffffffffffffffffffffffffffffffffff1614159050919050565b600081600001549050919050565b6001816000016000828254019250508190555050565b61207b828260405180602001604052806000815250612220565b5050565b505050565b505050565b60006120aa8473ffffffffffffffffffffffffffffffffffffffff1661227b565b15612213578373ffffffffffffffffffffffffffffffffffffffff1663150b7a026120d3611614565b8786866040518563ffffffff1660e01b81526004016120f59493929190612e54565b602060405180830381600087803b15801561210f57600080fd5b505af192505050801561214057506040513d601f19601f8201168201806040525081019061213d9190612937565b60015b6121c3573d8060008114612170576040519150601f19603f3d011682016040523d82523d6000602084013e612175565b606091505b506000815114156121bb576040517f08c379a00000000000000000000000000000000000000000000000000000000081526004016121b290612fc0565b60405180910390fd5b805181602001fd5b63150b7a0260e01b7bffffffffffffffffffffffffffffffffffffffffffffffffffffffff1916817bffffffffffffffffffffffffffffffffffffffffffffffffffffffff191614915050612218565b600190505b949350505050565b61222a838361229e565b6122376000848484612089565b612276576040517f08c379a000000000000000000000000000000000000000000000000000000000815260040161226d90612fc0565b60405180910390fd5b505050565b6000808273ffffffffffffffffffffffffffffffffffffffff163b119050919050565b600073ffffffffffffffffffffffffffffffffffffffff168273ffffffffffffffffffffffffffffffffffffffff16141561230e576040517f08c379a000000000000000000000000000000000000000000000000000000000815260040161230590613100565b60405180910390fd5b61231781611fd1565b15612357576040517f08c379a000000000000000000000000000000000000000000000000000000000815260040161234e90613000565b60405180910390fd5b6123636000838361207f565b6001600360008473ffffffffffffffffffffffffffffffffffffffff1673ffffffffffffffffffffffffffffffffffffffff16815260200190815260200160002060008282546123b39190613322565b92505081905550816002600083815260200190815260200160002060006101000a81548173ffffffffffffffffffffffffffffffffffffffff021916908373ffffffffffffffffffffffffffffffffffffffff160217905550808273ffffffffffffffffffffffffffffffffffffffff16600073ffffffffffffffffffffffffffffffffffffffff167fddf252ad1be2c89b69c2b068fc378daa952ba7f163c4a11628f55a4df523b3ef60405160405180910390a461247460008383612084565b5050565b828054612484906134cf565b90600052602060002090601f0160209004810192826124a657600085556124ed565b82601f106124bf57803560ff19168380011785556124ed565b828001600101855582156124ed579182015b828111156124ec5782358255916020019190600101906124d1565b5b5090506124fa9190612584565b5090565b82805461250a906134cf565b90600052602060002090601f01602090048101928261252c5760008555612573565b82601f1061254557805160ff1916838001178555612573565b82800160010185558215612573579182015b82811115612572578251825591602001919060010190612557565b5b5090506125809190612584565b5090565b5b8082111561259d576000816000905550600101612585565b5090565b60006125b46125af84613277565b613252565b905080838252602082019050828560208602820111156125d357600080fd5b60005b8581101561260357816125e9888261273d565b8452602084019350602083019250506001810190506125d6565b5050509392505050565b600061262061261b846132a3565b613252565b90508281526020810184848401111561263857600080fd5b61264384828561348d565b509392505050565b60008135905061265a81613a16565b92915050565b600082601f83011261267157600080fd5b81356126818482602086016125a1565b91505092915050565b60008135905061269981613a2d565b92915050565b6000813590506126ae81613a44565b92915050565b6000815190506126c381613a44565b92915050565b600082601f8301126126da57600080fd5b81356126ea84826020860161260d565b91505092915050565b60008083601f84011261270557600080fd5b8235905067ffffffffffffffff81111561271e57600080fd5b60208301915083600182028301111561273657600080fd5b9250929050565b60008135905061274c81613a5b565b92915050565b60008151905061276181613a5b565b92915050565b60006020828403121561277957600080fd5b60006127878482850161264b565b91505092915050565b600080604083850312156127a357600080fd5b60006127b18582860161264b565b92505060206127c28582860161264b565b9150509250929050565b6000806000606084860312156127e157600080fd5b60006127ef8682870161264b565b93505060206128008682870161264b565b92505060406128118682870161273d565b9150509250925092565b6000806000806080858703121561283157600080fd5b600061283f8782880161264b565b94505060206128508782880161264b565b93505060406128618782880161273d565b925050606085013567ffffffffffffffff81111561287e57600080fd5b61288a878288016126c9565b91505092959194509250565b600080604083850312156128a957600080fd5b60006128b78582860161264b565b92505060206128c88582860161268a565b9150509250929050565b600080604083850312156128e557600080fd5b60006128f38582860161264b565b92505060206129048582860161273d565b9150509250929050565b60006020828403121561292057600080fd5b600061292e8482850161269f565b91505092915050565b60006020828403121561294957600080fd5b6000612957848285016126b4565b91505092915050565b6000806020838503121561297357600080fd5b600083013567ffffffffffffffff81111561298d57600080fd5b612999858286016126f3565b92509250509250929050565b6000602082840312156129b757600080fd5b60006129c58482850161273d565b91505092915050565b6000602082840312156129e057600080fd5b60006129ee84828501612752565b91505092915050565b60008060408385031215612a0a57600080fd5b6000612a188582860161273d565b925050602083013567ffffffffffffffff811115612a3557600080fd5b612a4185828601612660565b9150509250929050565b612a54816133dd565b82525050565b612a63816133ef565b82525050565b612a72816133fb565b82525050565b6000612a83826132d4565b612a8d81856132ea565b9350612a9d81856020860161349c565b612aa681613668565b840191505092915050565b6000612abd8385613306565b9350612aca83858461348d565b612ad383613668565b840190509392505050565b6000612ae9826132df565b612af38185613306565b9350612b0381856020860161349c565b612b0c81613668565b840191505092915050565b6000612b22826132df565b612b2c8185613317565b9350612b3c81856020860161349c565b80840191505092915050565b6000612b55603283613306565b9150612b6082613679565b604082019050919050565b6000612b78602583613306565b9150612b83826136c8565b604082019050919050565b6000612b9b601c83613306565b9150612ba682613717565b602082019050919050565b6000612bbe600e83613306565b9150612bc982613740565b602082019050919050565b6000612be1602483613306565b9150612bec82613769565b604082019050919050565b6000612c04601983613306565b9150612c0f826137b8565b602082019050919050565b6000612c27601283613306565b9150612c32826137e1565b602082019050919050565b6000612c4a601383613306565b9150612c558261380a565b602082019050919050565b6000612c6d602983613306565b9150612c7882613833565b604082019050919050565b6000612c90603e83613306565b9150612c9b82613882565b604082019050919050565b6000612cb3602083613306565b9150612cbe826138d1565b602082019050919050565b6000612cd6601783613306565b9150612ce1826138fa565b602082019050919050565b6000612cf9601883613306565b9150612d0482613923565b602082019050919050565b6000612d1c602183613306565b9150612d278261394c565b604082019050919050565b6000612d3f6000836132fb565b9150612d4a8261399b565b600082019050919050565b6000612d62602e83613306565b9150612d6d8261399e565b604082019050919050565b6000612d85601483613306565b9150612d90826139ed565b602082019050919050565b612da481613431565b82525050565b612db38161345f565b82525050565b612dc281613469565b82525050565b612dd181613479565b82525050565b6000612de38285612b17565b9150612def8284612b17565b91508190509392505050565b6000612e0682612d32565b9150819050919050565b6000602082019050612e256000830184612a4b565b92915050565b6000604082019050612e406000830185612a4b565b612e4d6020830184612a4b565b9392505050565b6000608082019050612e696000830187612a4b565b612e766020830186612a4b565b612e836040830185612daa565b8181036060830152612e958184612a78565b905095945050505050565b6000604082019050612eb56000830185612a4b565b612ec26020830184612daa565b9392505050565b6000602082019050612ede6000830184612a5a565b92915050565b6000604082019050612ef96000830185612a5a565b612f066020830184612daa565b9392505050565b600060a082019050612f226000830188612a69565b612f2f6020830187612dc8565b612f3c6040830186612d9b565b612f496060830185612db9565b612f566080830184612db9565b9695505050505050565b60006020820190508181036000830152612f7a8184612ade565b905092915050565b60006060820190508181036000830152612f9c8186612ade565b9050612fab6020830185612daa565b612fb86040830184612daa565b949350505050565b60006020820190508181036000830152612fd981612b48565b9050919050565b60006020820190508181036000830152612ff981612b6b565b9050919050565b6000602082019050818103600083015261301981612b8e565b9050919050565b6000602082019050818103600083015261303981612bb1565b9050919050565b6000602082019050818103600083015261305981612bd4565b9050919050565b6000602082019050818103600083015261307981612bf7565b9050919050565b6000602082019050818103600083015261309981612c1a565b9050919050565b600060208201905081810360008301526130b981612c3d565b9050919050565b600060208201905081810360008301526130d981612c60565b9050919050565b600060208201905081810360008301526130f981612c83565b9050919050565b6000602082019050818103600083015261311981612ca6565b9050919050565b6000602082019050818103600083015261313981612cc9565b9050919050565b6000602082019050818103600083015261315981612cec565b9050919050565b6000602082019050818103600083015261317981612d0f565b9050919050565b6000602082019050818103600083015261319981612d55565b9050919050565b600060208201905081810360008301526131b981612d78565b9050919050565b60006020820190506131d56000830184612daa565b92915050565b60006060820190506131f06000830187612daa565b6131fd6020830186612a4b565b8181036040830152613210818486612ab1565b905095945050505050565b60006060820190506132306000830186612daa565b61323d6020830185612daa565b61324a6040830184612daa565b949350505050565b600061325c61326d565b90506132688282613501565b919050565b6000604051905090565b600067ffffffffffffffff82111561329257613291613639565b5b602082029050602081019050919050565b600067ffffffffffffffff8211156132be576132bd613639565b5b6132c782613668565b9050602081019050919050565b600081519050919050565b600081519050919050565b600082825260208201905092915050565b600081905092915050565b600082825260208201905092915050565b600081905092915050565b600061332d8261345f565b91506133388361345f565b9250827fffffffffffffffffffffffffffffffffffffffffffffffffffffffffffffffff0382111561336d5761336c6135ac565b5b828201905092915050565b60006133838261345f565b915061338e8361345f565b92508261339e5761339d6135db565b5b828204905092915050565b60006133b48261345f565b91506133bf8361345f565b9250828210156133d2576133d16135ac565b5b828203905092915050565b60006133e88261343f565b9050919050565b60008115159050919050565b6000819050919050565b60007fffffffff0000000000000000000000000000000000000000000000000000000082169050919050565b600061ffff82169050919050565b600073ffffffffffffffffffffffffffffffffffffffff82169050919050565b6000819050919050565b600063ffffffff82169050919050565b600067ffffffffffffffff82169050919050565b82818337600083830152505050565b60005b838110156134ba57808201518184015260208101905061349f565b838111156134c9576000848401525b50505050565b600060028204905060018216806134e757607f821691505b602082108114156134fb576134fa61360a565b5b50919050565b61350a82613668565b810181811067ffffffffffffffff8211171561352957613528613639565b5b80604052505050565b600061353d8261345f565b91507fffffffffffffffffffffffffffffffffffffffffffffffffffffffffffffffff8214156135705761356f6135ac565b5b600182019050919050565b60006135868261345f565b91506135918361345f565b9250826135a1576135a06135db565b5b828206905092915050565b7f4e487b7100000000000000000000000000000000000000000000000000000000600052601160045260246000fd5b7f4e487b7100000000000000000000000000000000000000000000000000000000600052601260045260246000fd5b7f4e487b7100000000000000000000000000000000000000000000000000000000600052602260045260246000fd5b7f4e487b7100000000000000000000000000000000000000000000000000000000600052604160045260246000fd5b6000601f19601f8301169050919050565b7f4552433732313a207472616e7366657220746f206e6f6e20455243373231526560008201527f63656976657220696d706c656d656e7465720000000000000000000000000000602082015250565b7f4552433732313a207472616e736665722066726f6d20696e636f72726563742060008201527f6f776e6572000000000000000000000000000000000000000000000000000000602082015250565b7f4552433732313a20746f6b656e20616c7265616479206d696e74656400000000600082015250565b7f6e6f742072656769737465726564000000000000000000000000000000000000600082015250565b7f4552433732313a207472616e7366657220746f20746865207a65726f2061646460008201527f7265737300000000000000000000000000000000000000000000000000000000602082015250565b7f4552433732313a20617070726f766520746f2063616c6c657200000000000000600082015250565b7f7265676973746572656420616464726573730000000000000000000000000000600082015250565b7f657468207472616e73666572206661696c656400000000000000000000000000600082015250565b7f4552433732313a2061646472657373207a65726f206973206e6f74206120766160008201527f6c6964206f776e65720000000000000000000000000000000000000000000000602082015250565b7f4552433732313a20617070726f76652063616c6c6572206973206e6f7420746f60008201527f6b656e206f776e6572206e6f7220617070726f76656420666f7220616c6c0000602082015250565b7f4552433732313a206d696e7420746f20746865207a65726f2061646472657373600082015250565b7f63616c6c6572206973206e6f7420746865206f776e6572000000000000000000600082015250565b7f4552433732313a20696e76616c696420746f6b656e2049440000000000000000600082015250565b7f4552433732313a20617070726f76616c20746f2063757272656e74206f776e6560008201527f7200000000000000000000000000000000000000000000000000000000000000602082015250565b50565b7f4552433732313a2063616c6c6572206973206e6f7420746f6b656e206f776e6560008201527f72206e6f7220617070726f766564000000000000000000000000000000000000602082015250565b7f696e73756666696369656e74206465706f736974000000000000000000000000600082015250565b613a1f816133dd565b8114613a2a57600080fd5b50565b613a36816133ef565b8114613a4157600080fd5b50565b613a4d81613405565b8114613a5857600080fd5b50565b613a648161345f565b8114613a6f57600080fd5b5056fea26469706673582212209a429a6e94a10349f8ec4a1a56a6e49047542c761fba9695e409407b035f1a2a64736f6c63430008040033",
  "devdoc": {
    "author": "Smart contract programmer",
    "details": "No deposit function, Ether has to be sent directly",
    "kind": "dev",
    "methods": {
      "approve(address,uint256)": {
        "details": "See {IERC721-approve}."
      },
      "balanceOf(address)": {
        "details": "See {IERC721-balanceOf}."
      },
      "getApproved(uint256)": {
        "details": "See {IERC721-getApproved}."
      },
      "isApprovedForAll(address,address)": {
        "details": "See {IERC721-isApprovedForAll}."
      },
      "name()": {
        "details": "See {IERC721Metadata-name}."
      },
      "ownerOf(uint256)": {
        "details": "See {IERC721-ownerOf}."
      },
      "safeTransferFrom(address,address,uint256)": {
        "details": "See {IERC721-safeTransferFrom}."
      },
      "safeTransferFrom(address,address,uint256,bytes)": {
        "details": "See {IERC721-safeTransferFrom}."
      },
      "setApprovalForAll(address,bool)": {
        "details": "See {IERC721-setApprovalForAll}."
      },
      "supportsInterface(bytes4)": {
        "details": "See {IERC165-supportsInterface}."
      },
      "symbol()": {
        "details": "See {IERC721Metadata-symbol}."
      },
      "tokenURI(uint256)": {
        "details": "See {IERC721Metadata-tokenURI}."
      },
      "transferFrom(address,address,uint256)": {
        "details": "See {IERC721-transferFrom}."
      }
    },
    "title": "Chainlink automated lottery contract",
    "version": 1
  },
  "userdoc": {
    "kind": "user",
    "methods": {
      "register()": {
        "notice": "Deposits funds to enter lottery"
      },
      "withdraw()": {
        "notice": "Withdraw Ether from the contract"
      }
    },
    "notice": "Periodically transfers NFTs to players",
    "version": 1
  },
  "storageLayout": {
    "storage": [
      {
        "astId": 389,
        "contract": "contracts/Automation/Lotto.sol:Lotto",
        "label": "_name",
        "offset": 0,
        "slot": "0",
        "type": "t_string_storage"
      },
      {
        "astId": 391,
        "contract": "contracts/Automation/Lotto.sol:Lotto",
        "label": "_symbol",
        "offset": 0,
        "slot": "1",
        "type": "t_string_storage"
      },
      {
        "astId": 395,
        "contract": "contracts/Automation/Lotto.sol:Lotto",
        "label": "_owners",
        "offset": 0,
        "slot": "2",
        "type": "t_mapping(t_uint256,t_address)"
      },
      {
        "astId": 399,
        "contract": "contracts/Automation/Lotto.sol:Lotto",
        "label": "_balances",
        "offset": 0,
        "slot": "3",
        "type": "t_mapping(t_address,t_uint256)"
      },
      {
        "astId": 403,
        "contract": "contracts/Automation/Lotto.sol:Lotto",
        "label": "_tokenApprovals",
        "offset": 0,
        "slot": "4",
        "type": "t_mapping(t_uint256,t_address)"
      },
      {
        "astId": 409,
        "contract": "contracts/Automation/Lotto.sol:Lotto",
        "label": "_operatorApprovals",
        "offset": 0,
        "slot": "5",
        "type": "t_mapping(t_address,t_mapping(t_address,t_bool))"
      },
      {
        "astId": 2065,
        "contract": "contracts/Automation/Lotto.sol:Lotto",
        "label": "_tokenIdCounter",
        "offset": 0,
        "slot": "6",
        "type": "t_struct(Counter)1714_storage"
      },
      {
        "astId": 2067,
        "contract": "contracts/Automation/Lotto.sol:Lotto",
        "label": "owner",
        "offset": 0,
        "slot": "7",
        "type": "t_address"
      },
      {
        "astId": 2076,
        "contract": "contracts/Automation/Lotto.sol:Lotto",
        "label": "i_callbackGasLimit",
        "offset": 20,
        "slot": "7",
        "type": "t_uint32"
      },
      {
        "astId": 2079,
        "contract": "contracts/Automation/Lotto.sol:Lotto",
        "label": "REQUEST_CONFIRMATIONS",
        "offset": 24,
        "slot": "7",
        "type": "t_uint16"
      },
      {
        "astId": 2091,
        "contract": "contracts/Automation/Lotto.sol:Lotto",
        "label": "accountInfo",
        "offset": 0,
        "slot": "8",
        "type": "t_array(t_address)dyn_storage"
      },
      {
        "astId": 2108,
        "contract": "contracts/Automation/Lotto.sol:Lotto",
        "label": "registeredAccounts",
        "offset": 0,
        "slot": "9",
        "type": "t_mapping(t_address,t_struct(RegistrationInfo)2096_storage)"
      },
      {
        "astId": 2112,
        "contract": "contracts/Automation/Lotto.sol:Lotto",
        "label": "requestToSender",
        "offset": 0,
        "slot": "10",
        "type": "t_mapping(t_uint256,t_address)"
      },
      {
        "astId": 2117,
        "contract": "contracts/Automation/Lotto.sol:Lotto",
        "label": "tokenIdToNftInfo",
        "offset": 0,
        "slot": "11",
        "type": "t_mapping(t_uint256,t_struct(NftRegistry)2103_storage)"
      },
      {
        "astId": 2121,
        "contract": "contracts/Automation/Lotto.sol:Lotto",
        "label": "requestToCharacterName",
        "offset": 0,
        "slot": "12",
        "type": "t_mapping(t_uint256,t_string_storage)"
      }
    ],
    "types": {
      "t_address": {
        "encoding": "inplace",
        "label": "address",
        "numberOfBytes": "20"
      },
      "t_array(t_address)dyn_storage": {
        "base": "t_address",
        "encoding": "dynamic_array",
        "label": "address[]",
        "numberOfBytes": "32"
      },
      "t_bool": {
        "encoding": "inplace",
        "label": "bool",
        "numberOfBytes": "1"
      },
      "t_mapping(t_address,t_bool)": {
        "encoding": "mapping",
        "key": "t_address",
        "label": "mapping(address => bool)",
        "numberOfBytes": "32",
        "value": "t_bool"
      },
      "t_mapping(t_address,t_mapping(t_address,t_bool))": {
        "encoding": "mapping",
        "key": "t_address",
        "label": "mapping(address => mapping(address => bool))",
        "numberOfBytes": "32",
        "value": "t_mapping(t_address,t_bool)"
      },
      "t_mapping(t_address,t_struct(RegistrationInfo)2096_storage)": {
        "encoding": "mapping",
        "key": "t_address",
        "label": "mapping(address => struct Lotto.RegistrationInfo)",
        "numberOfBytes": "32",
        "value": "t_struct(RegistrationInfo)2096_storage"
      },
      "t_mapping(t_address,t_uint256)": {
        "encoding": "mapping",
        "key": "t_address",
        "label": "mapping(address => uint256)",
        "numberOfBytes": "32",
        "value": "t_uint256"
      },
      "t_mapping(t_uint256,t_address)": {
        "encoding": "mapping",
        "key": "t_uint256",
        "label": "mapping(uint256 => address)",
        "numberOfBytes": "32",
        "value": "t_address"
      },
      "t_mapping(t_uint256,t_string_storage)": {
        "encoding": "mapping",
        "key": "t_uint256",
        "label": "mapping(uint256 => string)",
        "numberOfBytes": "32",
        "value": "t_string_storage"
      },
      "t_mapping(t_uint256,t_struct(NftRegistry)2103_storage)": {
        "encoding": "mapping",
        "key": "t_uint256",
        "label": "mapping(uint256 => struct Lotto.NftRegistry)",
        "numberOfBytes": "32",
        "value": "t_struct(NftRegistry)2103_storage"
      },
      "t_string_storage": {
        "encoding": "bytes",
        "label": "string",
        "numberOfBytes": "32"
      },
      "t_struct(Counter)1714_storage": {
        "encoding": "inplace",
        "label": "struct Counters.Counter",
        "members": [
          {
            "astId": 1713,
            "contract": "contracts/Automation/Lotto.sol:Lotto",
            "label": "_value",
            "offset": 0,
            "slot": "0",
            "type": "t_uint256"
          }
        ],
        "numberOfBytes": "32"
      },
      "t_struct(NftRegistry)2103_storage": {
        "encoding": "inplace",
        "label": "struct Lotto.NftRegistry",
        "members": [
          {
            "astId": 2098,
            "contract": "contracts/Automation/Lotto.sol:Lotto",
            "label": "name",
            "offset": 0,
            "slot": "0",
            "type": "t_string_storage"
          },
          {
            "astId": 2100,
            "contract": "contracts/Automation/Lotto.sol:Lotto",
            "label": "t1",
            "offset": 0,
            "slot": "1",
            "type": "t_uint256"
          },
          {
            "astId": 2102,
            "contract": "contracts/Automation/Lotto.sol:Lotto",
            "label": "t2",
            "offset": 0,
            "slot": "2",
            "type": "t_uint256"
          }
        ],
        "numberOfBytes": "96"
      },
      "t_struct(RegistrationInfo)2096_storage": {
        "encoding": "inplace",
        "label": "struct Lotto.RegistrationInfo",
        "members": [
          {
            "astId": 2093,
            "contract": "contracts/Automation/Lotto.sol:Lotto",
            "label": "isRegistered",
            "offset": 0,
            "slot": "0",
            "type": "t_bool"
          },
          {
            "astId": 2095,
            "contract": "contracts/Automation/Lotto.sol:Lotto",
            "label": "date",
            "offset": 0,
            "slot": "1",
            "type": "t_uint256"
          }
        ],
        "numberOfBytes": "64"
      },
      "t_uint16": {
        "encoding": "inplace",
        "label": "uint16",
        "numberOfBytes": "2"
      },
      "t_uint256": {
        "encoding": "inplace",
        "label": "uint256",
        "numberOfBytes": "32"
      },
      "t_uint32": {
        "encoding": "inplace",
        "label": "uint32",
        "numberOfBytes": "4"
      }
    }
  }
}