{
    "contractName": "PermitModule",
    "abi": [
        {
            "inputs": [],
            "stateMutability": "nonpayable",
            "type": "constructor"
        },
        {
            "anonymous": false,
            "inputs": [
                {
                    "indexed": true,
                    "internalType": "address",
                    "name": "owner",
                    "type": "address"
                },
                {
                    "indexed": true,
                    "internalType": "address",
                    "name": "spender",
                    "type": "address"
                },
                {
                    "indexed": false,
                    "internalType": "uint256",
                    "name": "value",
                    "type": "uint256"
                }
            ],
            "name": "Approval",
            "type": "event"
        },
        {
            "anonymous": false,
            "inputs": [
                {
                    "indexed": true,
                    "internalType": "bytes32",
                    "name": "role",
                    "type": "bytes32"
                },
                {
                    "indexed": true,
                    "internalType": "bytes32",
                    "name": "previousAdminRole",
                    "type": "bytes32"
                },
                {
                    "indexed": true,
                    "internalType": "bytes32",
                    "name": "newAdminRole",
                    "type": "bytes32"
                }
            ],
            "name": "RoleAdminChanged",
            "type": "event"
        },
        {
            "anonymous": false,
            "inputs": [
                {
                    "indexed": true,
                    "internalType": "bytes32",
                    "name": "role",
                    "type": "bytes32"
                },
                {
                    "indexed": true,
                    "internalType": "address",
                    "name": "account",
                    "type": "address"
                },
                {
                    "indexed": true,
                    "internalType": "address",
                    "name": "sender",
                    "type": "address"
                }
            ],
            "name": "RoleGranted",
            "type": "event"
        },
        {
            "anonymous": false,
            "inputs": [
                {
                    "indexed": true,
                    "internalType": "bytes32",
                    "name": "role",
                    "type": "bytes32"
                },
                {
                    "indexed": true,
                    "internalType": "address",
                    "name": "account",
                    "type": "address"
                },
                {
                    "indexed": true,
                    "internalType": "address",
                    "name": "sender",
                    "type": "address"
                }
            ],
            "name": "RoleRevoked",
            "type": "event"
        },
        {
            "anonymous": false,
            "inputs": [
                {
                    "indexed": true,
                    "internalType": "address",
                    "name": "from",
                    "type": "address"
                },
                {
                    "indexed": true,
                    "internalType": "address",
                    "name": "to",
                    "type": "address"
                },
                {
                    "indexed": false,
                    "internalType": "uint256",
                    "name": "value",
                    "type": "uint256"
                }
            ],
            "name": "Transfer",
            "type": "event"
        },
        {
            "stateMutability": "nonpayable",
            "type": "fallback"
        },
        {
            "inputs": [],
            "name": "DEFAULT_ADMIN_ROLE",
            "outputs": [
                {
                    "internalType": "bytes32",
                    "name": "",
                    "type": "bytes32"
                }
            ],
            "stateMutability": "view",
            "type": "function"
        },
        {
            "inputs": [],
            "name": "DOMAIN_SEPARATOR",
            "outputs": [
                {
                    "internalType": "bytes32",
                    "name": "",
                    "type": "bytes32"
                }
            ],
            "stateMutability": "view",
            "type": "function"
        },
        {
            "inputs": [
                {
                    "internalType": "address",
                    "name": "owner",
                    "type": "address"
                },
                {
                    "internalType": "address",
                    "name": "spender",
                    "type": "address"
                }
            ],
            "name": "allowance",
            "outputs": [
                {
                    "internalType": "uint256",
                    "name": "",
                    "type": "uint256"
                }
            ],
            "stateMutability": "view",
            "type": "function"
        },
        {
            "inputs": [
                {
                    "internalType": "address",
                    "name": "spender",
                    "type": "address"
                },
                {
                    "internalType": "uint256",
                    "name": "amount",
                    "type": "uint256"
                }
            ],
            "name": "approve",
            "outputs": [
                {
                    "internalType": "bool",
                    "name": "",
                    "type": "bool"
                }
            ],
            "stateMutability": "nonpayable",
            "type": "function"
        },
        {
            "inputs": [
                {
                    "internalType": "address",
                    "name": "account",
                    "type": "address"
                }
            ],
            "name": "balanceOf",
            "outputs": [
                {
                    "internalType": "uint256",
                    "name": "",
                    "type": "uint256"
                }
            ],
            "stateMutability": "view",
            "type": "function"
        },
        {
            "inputs": [],
            "name": "decimals",
            "outputs": [
                {
                    "internalType": "uint8",
                    "name": "",
                    "type": "uint8"
                }
            ],
            "stateMutability": "view",
            "type": "function"
        },
        {
            "inputs": [
                {
                    "internalType": "address",
                    "name": "spender",
                    "type": "address"
                },
                {
                    "internalType": "uint256",
                    "name": "subtractedValue",
                    "type": "uint256"
                }
            ],
            "name": "decreaseAllowance",
            "outputs": [
                {
                    "internalType": "bool",
                    "name": "",
                    "type": "bool"
                }
            ],
            "stateMutability": "nonpayable",
            "type": "function"
        },
        {
            "inputs": [
                {
                    "internalType": "bytes32",
                    "name": "role",
                    "type": "bytes32"
                }
            ],
            "name": "getRoleAdmin",
            "outputs": [
                {
                    "internalType": "bytes32",
                    "name": "",
                    "type": "bytes32"
                }
            ],
            "stateMutability": "view",
            "type": "function"
        },
        {
            "inputs": [
                {
                    "internalType": "bytes32",
                    "name": "role",
                    "type": "bytes32"
                },
                {
                    "internalType": "address",
                    "name": "account",
                    "type": "address"
                }
            ],
            "name": "grantRole",
            "outputs": [],
            "stateMutability": "nonpayable",
            "type": "function"
        },
        {
            "inputs": [
                {
                    "internalType": "bytes32",
                    "name": "role",
                    "type": "bytes32"
                },
                {
                    "internalType": "address",
                    "name": "account",
                    "type": "address"
                }
            ],
            "name": "hasRole",
            "outputs": [
                {
                    "internalType": "bool",
                    "name": "",
                    "type": "bool"
                }
            ],
            "stateMutability": "view",
            "type": "function"
        },
        {
            "inputs": [
                {
                    "internalType": "address",
                    "name": "spender",
                    "type": "address"
                },
                {
                    "internalType": "uint256",
                    "name": "addedValue",
                    "type": "uint256"
                }
            ],
            "name": "increaseAllowance",
            "outputs": [
                {
                    "internalType": "bool",
                    "name": "",
                    "type": "bool"
                }
            ],
            "stateMutability": "nonpayable",
            "type": "function"
        },
        {
            "inputs": [],
            "name": "name",
            "outputs": [
                {
                    "internalType": "string",
                    "name": "",
                    "type": "string"
                }
            ],
            "stateMutability": "view",
            "type": "function"
        },
        {
            "inputs": [
                {
                    "internalType": "address",
                    "name": "owner",
                    "type": "address"
                }
            ],
            "name": "nonces",
            "outputs": [
                {
                    "internalType": "uint256",
                    "name": "",
                    "type": "uint256"
                }
            ],
            "stateMutability": "view",
            "type": "function"
        },
        {
            "inputs": [
                {
                    "internalType": "address",
                    "name": "owner",
                    "type": "address"
                },
                {
                    "internalType": "address",
                    "name": "spender",
                    "type": "address"
                },
                {
                    "internalType": "uint256",
                    "name": "value",
                    "type": "uint256"
                },
                {
                    "internalType": "uint256",
                    "name": "deadline",
                    "type": "uint256"
                },
                {
                    "internalType": "uint8",
                    "name": "v",
                    "type": "uint8"
                },
                {
                    "internalType": "bytes32",
                    "name": "r",
                    "type": "bytes32"
                },
                {
                    "internalType": "bytes32",
                    "name": "s",
                    "type": "bytes32"
                }
            ],
            "name": "permit",
            "outputs": [],
            "stateMutability": "nonpayable",
            "type": "function"
        },
        {
            "inputs": [
                {
                    "internalType": "bytes32",
                    "name": "role",
                    "type": "bytes32"
                },
                {
                    "internalType": "address",
                    "name": "account",
                    "type": "address"
                }
            ],
            "name": "renounceRole",
            "outputs": [],
            "stateMutability": "nonpayable",
            "type": "function"
        },
        {
            "inputs": [
                {
                    "internalType": "bytes32",
                    "name": "role",
                    "type": "bytes32"
                },
                {
                    "internalType": "address",
                    "name": "account",
                    "type": "address"
                }
            ],
            "name": "revokeRole",
            "outputs": [],
            "stateMutability": "nonpayable",
            "type": "function"
        },
        {
            "inputs": [
                {
                    "internalType": "bytes4",
                    "name": "interfaceId",
                    "type": "bytes4"
                }
            ],
            "name": "supportsInterface",
            "outputs": [
                {
                    "internalType": "bool",
                    "name": "",
                    "type": "bool"
                }
            ],
            "stateMutability": "view",
            "type": "function"
        },
        {
            "inputs": [],
            "name": "symbol",
            "outputs": [
                {
                    "internalType": "string",
                    "name": "",
                    "type": "string"
                }
            ],
            "stateMutability": "view",
            "type": "function"
        },
        {
            "inputs": [],
            "name": "totalSupply",
            "outputs": [
                {
                    "internalType": "uint256",
                    "name": "",
                    "type": "uint256"
                }
            ],
            "stateMutability": "view",
            "type": "function"
        },
        {
            "inputs": [
                {
                    "internalType": "address",
                    "name": "to",
                    "type": "address"
                },
                {
                    "internalType": "uint256",
                    "name": "amount",
                    "type": "uint256"
                }
            ],
            "name": "transfer",
            "outputs": [
                {
                    "internalType": "bool",
                    "name": "",
                    "type": "bool"
                }
            ],
            "stateMutability": "nonpayable",
            "type": "function"
        },
        {
            "inputs": [
                {
                    "internalType": "address",
                    "name": "from",
                    "type": "address"
                },
                {
                    "internalType": "address",
                    "name": "to",
                    "type": "address"
                },
                {
                    "internalType": "uint256",
                    "name": "amount",
                    "type": "uint256"
                }
            ],
            "name": "transferFrom",
            "outputs": [
                {
                    "internalType": "bool",
                    "name": "",
                    "type": "bool"
                }
            ],
            "stateMutability": "nonpayable",
            "type": "function"
        }
    ],
    "bytecode": "6101406040527f600e5f1c60beb469a3fa6dd3814a4ae211cc6259a6d033bae218a742f2af01d36006553480156200003657600080fd5b50604051806040016040528060058152602001642a37b5b2b760d91b81525080604051806040016040528060018152602001603160f81b815250604051806040016040528060058152602001642a37b5b2b760d91b815250604051806040016040528060038152602001622a25a760e91b8152508160039081620000bb91906200032b565b506004620000ca82826200032b565b50620000dc9150600090503362000172565b815160209283012081519183019190912060e08290526101008190524660a0818152604080517f8b73c3c69bb8fe3d512ecc4cf759cc79239f7b179b0ffacaa9a75d522b39400f818801819052818301969096526060810194909452608080850193909352308483018190528151808603909301835260c094850190915281519190950120905291909152610120525062000476565b6200017e8282620001ff565b620001fb5760008281526005602090815260408083206001600160a01b03851684529091529020805460ff19166001179055620001ba6200022c565b6001600160a01b0316816001600160a01b0316837f2f8788117e7eff1d82e926ec794901d17c78024a50270940304540a733656f0d60405160405180910390a45b5050565b60008281526005602090815260408083206001600160a01b038516845290915290205460ff165b92915050565b6000303b810362000251576200024c6200028260201b6200085b1760201c565b905090565b60003662000261601482620003f7565b6200026f9236929062000419565b6200027a9162000445565b60601c905090565b3390565b634e487b7160e01b600052604160045260246000fd5b600181811c90821680620002b157607f821691505b602082108103620002d257634e487b7160e01b600052602260045260246000fd5b50919050565b601f8211156200032657600081815260208120601f850160051c81016020861015620003015750805b601f850160051c820191505b8181101562000322578281556001016200030d565b5050505b505050565b81516001600160401b0381111562000347576200034762000286565b6200035f816200035884546200029c565b84620002d8565b602080601f8311600181146200039757600084156200037e5750858301515b600019600386901b1c1916600185901b17855562000322565b600085815260208120601f198616915b82811015620003c857888601518255948401946001909101908401620003a7565b5085821015620003e75787850151600019600388901b60f8161c191681555b5050505050600190811b01905550565b818103818111156200022657634e487b7160e01b600052601160045260246000fd5b600080858511156200042a57600080fd5b838611156200043857600080fd5b5050820193919092039150565b6001600160601b031981358181169160148510156200046e5780818660140360031b1b83161692505b505092915050565b60805160a05160c05160e051610100516101205161178e620004c66000396000610d2a01526000610d7901526000610d5401526000610cad01526000610cd701526000610d01015261178e6000f3fe608060405234801561001057600080fd5b50600436106101375760003560e01c806339509351116100b8578063a217fddf1161007c578063a217fddf1461033e578063a457c2d714610346578063a9059cbb14610359578063d505accf1461036c578063d547741f1461037f578063dd62ed3e1461039257610137565b806339509351146102d457806370a08231146102e75780637ecebe001461031057806391d148541461032357806395d89b411461033657610137565b8063248a9ca3116100ff578063248a9ca3146102745780632f2ff15d14610297578063313ce567146102aa5780633644e515146102b957806336568abe146102c157610137565b806301ffc9a7146101ff57806306fdde0314610227578063095ea7b31461023c57806318160ddd1461024f57806323b872dd14610261575b610143600654336103a5565b156101fd57600080336001600160a01b0316600036604051610166929190611394565b600060405180830381855af49150503d80600081146101a1576040519150601f19603f3d011682016040523d82523d6000602084013e6101a6565b606091505b5091509150816101f55760405162461bcd60e51b8152602060048201526015602482015274135251d490551253d38810d0531308119052531151605a1b60448201526064015b60405180910390fd5b805160208201f35b005b61021261020d3660046113a4565b6103d2565b60405190151581526020015b60405180910390f35b61022f610407565b60405161021e91906113f2565b61021261024a366004611441565b610499565b6002545b60405190815260200161021e565b61021261026f36600461146b565b6104bb565b6102536102823660046114a7565b60009081526005602052604090206001015490565b6101fd6102a53660046114c0565b6104e9565b6040516012815260200161021e565b610253610513565b6101fd6102cf3660046114c0565b610522565b6102126102e2366004611441565b6105b0565b6102536102f53660046114ec565b6001600160a01b031660009081526020819052604090205490565b61025361031e3660046114ec565b6105dc565b6102126103313660046114c0565b6103a5565b61022f6105fa565b610253600081565b610212610354366004611441565b610609565b610212610367366004611441565b61068f565b6101fd61037a366004611507565b6106a7565b6101fd61038d3660046114c0565b61080b565b6102536103a036600461157a565b610830565b60008281526005602090815260408083206001600160a01b038516845290915290205460ff165b92915050565b60006001600160e01b03198216637965db0b60e01b14806103cc57506301ffc9a760e01b6001600160e01b03198316146103cc565b606060038054610416906115a4565b80601f0160208091040260200160405190810160405280929190818152602001828054610442906115a4565b801561048f5780601f106104645761010080835404028352916020019161048f565b820191906000526020600020905b81548152906001019060200180831161047257829003601f168201915b5050505050905090565b6000806104a461085f565b90506104b1818585610899565b5060019392505050565b6000806104c661085f565b90506104d38582856109bd565b6104de858585610a37565b506001949350505050565b60008281526005602052604090206001015461050481610c05565b61050e8383610c19565b505050565b600061051d610ca0565b905090565b61052a61085f565b6001600160a01b0316816001600160a01b0316146105a25760405162461bcd60e51b815260206004820152602f60248201527f416363657373436f6e74726f6c3a2063616e206f6e6c792072656e6f756e636560448201526e103937b632b9903337b91039b2b63360891b60648201526084016101ec565b6105ac8282610dc7565b5050565b6000806105bb61085f565b90506104b18185856105cd8589610830565b6105d791906115ee565b610899565b6001600160a01b0381166000908152600760205260408120546103cc565b606060048054610416906115a4565b60008061061461085f565b905060006106228286610830565b9050838110156106825760405162461bcd60e51b815260206004820152602560248201527f45524332303a2064656372656173656420616c6c6f77616e63652062656c6f77604482015264207a65726f60d81b60648201526084016101ec565b6104de8286868403610899565b60008061069a61085f565b90506104b1818585610a37565b834211156106f75760405162461bcd60e51b815260206004820152601d60248201527f45524332305065726d69743a206578706972656420646561646c696e6500000060448201526064016101ec565b60007f6e71edae12b1b97f4d1f60370fef10105fa2faae0126114a169c64845d6126c98888886107268c610e4c565b6040805160208101969096526001600160a01b0394851690860152929091166060840152608083015260a082015260c0810186905260e001604051602081830303815290604052805190602001209050600061078182610e74565b9050600061079182878787610ec2565b9050896001600160a01b0316816001600160a01b0316146107f45760405162461bcd60e51b815260206004820152601e60248201527f45524332305065726d69743a20696e76616c6964207369676e6174757265000060448201526064016101ec565b6107ff8a8a8a610899565b50505050505050505050565b60008281526005602052604090206001015461082681610c05565b61050e8383610dc7565b6001600160a01b03918216600090815260016020908152604080832093909416825291909152205490565b3390565b6000303b810361086e57503390565b60003661087c601482611601565b61088892369290611614565b6108919161163e565b60601c905090565b6001600160a01b0383166108fb5760405162461bcd60e51b8152602060048201526024808201527f45524332303a20617070726f76652066726f6d20746865207a65726f206164646044820152637265737360e01b60648201526084016101ec565b6001600160a01b03821661095c5760405162461bcd60e51b815260206004820152602260248201527f45524332303a20617070726f766520746f20746865207a65726f206164647265604482015261737360f01b60648201526084016101ec565b6001600160a01b0383811660008181526001602090815260408083209487168084529482529182902085905590518481527f8c5be1e5ebec7d5bd14f71427d1e84f3dd0314c0f7b2291e5b200ac8c7c3b925910160405180910390a3505050565b60006109c98484610830565b90506000198114610a315781811015610a245760405162461bcd60e51b815260206004820152601d60248201527f45524332303a20696e73756666696369656e7420616c6c6f77616e636500000060448201526064016101ec565b610a318484848403610899565b50505050565b6001600160a01b038316610a9b5760405162461bcd60e51b815260206004820152602560248201527f45524332303a207472616e736665722066726f6d20746865207a65726f206164604482015264647265737360d81b60648201526084016101ec565b6001600160a01b038216610afd5760405162461bcd60e51b815260206004820152602360248201527f45524332303a207472616e7366657220746f20746865207a65726f206164647260448201526265737360e81b60648201526084016101ec565b6001600160a01b03831660009081526020819052604090205481811015610b755760405162461bcd60e51b815260206004820152602660248201527f45524332303a207472616e7366657220616d6f756e7420657863656564732062604482015265616c616e636560d01b60648201526084016101ec565b6001600160a01b03808516600090815260208190526040808220858503905591851681529081208054849290610bac9084906115ee565b92505081905550826001600160a01b0316846001600160a01b03167fddf252ad1be2c89b69c2b068fc378daa952ba7f163c4a11628f55a4df523b3ef84604051610bf891815260200190565b60405180910390a3610a31565b610c1681610c1161085f565b610eea565b50565b610c2382826103a5565b6105ac5760008281526005602090815260408083206001600160a01b03851684529091529020805460ff19166001179055610c5c61085f565b6001600160a01b0316816001600160a01b0316837f2f8788117e7eff1d82e926ec794901d17c78024a50270940304540a733656f0d60405160405180910390a45050565b6000306001600160a01b037f000000000000000000000000000000000000000000000000000000000000000016148015610cf957507f000000000000000000000000000000000000000000000000000000000000000046145b15610d2357507f000000000000000000000000000000000000000000000000000000000000000090565b50604080517f00000000000000000000000000000000000000000000000000000000000000006020808301919091527f0000000000000000000000000000000000000000000000000000000000000000828401527f000000000000000000000000000000000000000000000000000000000000000060608301524660808301523060a0808401919091528351808403909101815260c0909201909252805191012090565b610dd182826103a5565b156105ac5760008281526005602090815260408083206001600160a01b03851684529091529020805460ff19169055610e0861085f565b6001600160a01b0316816001600160a01b0316837ff6391f5c32d9c69d2a47ea670b442974b53935d1edc7fd64eb21e047a839171b60405160405180910390a45050565b6001600160a01b03811660009081526007602052604090208054600181018255905b50919050565b60006103cc610e81610ca0565b8360405161190160f01b6020820152602281018390526042810182905260009060620160405160208183030381529060405280519060200120905092915050565b6000806000610ed387878787610f4e565b91509150610ee08161103b565b5095945050505050565b610ef482826103a5565b6105ac57610f0c816001600160a01b031660146111f1565b610f178360206111f1565b604051602001610f28929190611673565b60408051601f198184030181529082905262461bcd60e51b82526101ec916004016113f2565b6000807f7fffffffffffffffffffffffffffffff5d576e7357a4501ddfe92f46681b20a0831115610f855750600090506003611032565b8460ff16601b14158015610f9d57508460ff16601c14155b15610fae5750600090506004611032565b6040805160008082526020820180845289905260ff881692820192909252606081018690526080810185905260019060a0016020604051602081039080840390855afa158015611002573d6000803e3d6000fd5b5050604051601f1901519150506001600160a01b03811661102b57600060019250925050611032565b9150600090505b94509492505050565b600081600481111561104f5761104f6116e8565b036110575750565b600181600481111561106b5761106b6116e8565b036110b85760405162461bcd60e51b815260206004820152601860248201527f45434453413a20696e76616c6964207369676e6174757265000000000000000060448201526064016101ec565b60028160048111156110cc576110cc6116e8565b036111195760405162461bcd60e51b815260206004820152601f60248201527f45434453413a20696e76616c6964207369676e6174757265206c656e6774680060448201526064016101ec565b600381600481111561112d5761112d6116e8565b036111855760405162461bcd60e51b815260206004820152602260248201527f45434453413a20696e76616c6964207369676e6174757265202773272076616c604482015261756560f01b60648201526084016101ec565b6004816004811115611199576111996116e8565b03610c165760405162461bcd60e51b815260206004820152602260248201527f45434453413a20696e76616c6964207369676e6174757265202776272076616c604482015261756560f01b60648201526084016101ec565b606060006112008360026116fe565b61120b9060026115ee565b67ffffffffffffffff81111561122357611223611715565b6040519080825280601f01601f19166020018201604052801561124d576020820181803683370190505b509050600360fc1b816000815181106112685761126861172b565b60200101906001600160f81b031916908160001a905350600f60fb1b816001815181106112975761129761172b565b60200101906001600160f81b031916908160001a90535060006112bb8460026116fe565b6112c69060016115ee565b90505b600181111561133e576f181899199a1a9b1b9c1cb0b131b232b360811b85600f16601081106112fa576112fa61172b565b1a60f81b8282815181106113105761131061172b565b60200101906001600160f81b031916908160001a90535060049490941c9361133781611741565b90506112c9565b50831561138d5760405162461bcd60e51b815260206004820181905260248201527f537472696e67733a20686578206c656e67746820696e73756666696369656e7460448201526064016101ec565b9392505050565b8183823760009101908152919050565b6000602082840312156113b657600080fd5b81356001600160e01b03198116811461138d57600080fd5b60005b838110156113e95781810151838201526020016113d1565b50506000910152565b60208152600082518060208401526114118160408501602087016113ce565b601f01601f19169190910160400192915050565b80356001600160a01b038116811461143c57600080fd5b919050565b6000806040838503121561145457600080fd5b61145d83611425565b946020939093013593505050565b60008060006060848603121561148057600080fd5b61148984611425565b925061149760208501611425565b9150604084013590509250925092565b6000602082840312156114b957600080fd5b5035919050565b600080604083850312156114d357600080fd5b823591506114e360208401611425565b90509250929050565b6000602082840312156114fe57600080fd5b61138d82611425565b600080600080600080600060e0888a03121561152257600080fd5b61152b88611425565b965061153960208901611425565b95506040880135945060608801359350608088013560ff8116811461155d57600080fd5b9699959850939692959460a0840135945060c09093013592915050565b6000806040838503121561158d57600080fd5b61159683611425565b91506114e360208401611425565b600181811c908216806115b857607f821691505b602082108103610e6e57634e487b7160e01b600052602260045260246000fd5b634e487b7160e01b600052601160045260246000fd5b808201808211156103cc576103cc6115d8565b818103818111156103cc576103cc6115d8565b6000808585111561162457600080fd5b8386111561163157600080fd5b5050820193919092039150565b6bffffffffffffffffffffffff19813581811691601485101561166b5780818660140360031b1b83161692505b505092915050565b7f416363657373436f6e74726f6c3a206163636f756e74200000000000000000008152600083516116ab8160178501602088016113ce565b7001034b99036b4b9b9b4b733903937b6329607d1b60179184019182015283516116dc8160288401602088016113ce565b01602801949350505050565b634e487b7160e01b600052602160045260246000fd5b80820281158282048414176103cc576103cc6115d8565b634e487b7160e01b600052604160045260246000fd5b634e487b7160e01b600052603260045260246000fd5b600081611750576117506115d8565b50600019019056fea2646970667358221220a81e1ff7150b601cc1add57d030b81dcaebac7a9d3dd041cf20ce83dba55ac2664736f6c63430008110033",
    "sourcePath": "/Users/kevinkeaveney/Projects/Headz/contracts/Securem/Race12.sol",
    "compiler": {
        "name": "solc",
        "version": "0.8.17+commit.8df45f5f"
    },
    "functionHashes": {
        "DEFAULT_ADMIN_ROLE()": "a217fddf",
        "DOMAIN_SEPARATOR()": "3644e515",
        "allowance(address,address)": "dd62ed3e",
        "approve(address,uint256)": "095ea7b3",
        "balanceOf(address)": "70a08231",
        "decimals()": "313ce567",
        "decreaseAllowance(address,uint256)": "a457c2d7",
        "getRoleAdmin(bytes32)": "248a9ca3",
        "grantRole(bytes32,address)": "2f2ff15d",
        "hasRole(bytes32,address)": "91d14854",
        "increaseAllowance(address,uint256)": "39509351",
        "name()": "06fdde03",
        "nonces(address)": "7ecebe00",
        "permit(address,address,uint256,uint256,uint8,bytes32,bytes32)": "d505accf",
        "renounceRole(bytes32,address)": "36568abe",
        "revokeRole(bytes32,address)": "d547741f",
        "supportsInterface(bytes4)": "01ffc9a7",
        "symbol()": "95d89b41",
        "totalSupply()": "18160ddd",
        "transfer(address,uint256)": "a9059cbb",
        "transferFrom(address,address,uint256)": "23b872dd"
    },
    "gasEstimates": {
        "creation": {
            "codeDepositCost": "1206000",
            "executionCost": "infinite",
            "totalCost": "infinite"
        },
        "external": {
            "": "infinite",
            "DEFAULT_ADMIN_ROLE()": "217",
            "DOMAIN_SEPARATOR()": "infinite",
            "allowance(address,address)": "infinite",
            "approve(address,uint256)": "27621",
            "balanceOf(address)": "2585",
            "decimals()": "244",
            "decreaseAllowance(address,uint256)": "29946",
            "getRoleAdmin(bytes32)": "2467",
            "grantRole(bytes32,address)": "infinite",
            "hasRole(bytes32,address)": "2745",
            "increaseAllowance(address,uint256)": "29656",
            "name()": "infinite",
            "nonces(address)": "2638",
            "permit(address,address,uint256,uint256,uint8,bytes32,bytes32)": "infinite",
            "renounceRole(bytes32,address)": "infinite",
            "revokeRole(bytes32,address)": "infinite",
            "supportsInterface(bytes4)": "461",
            "symbol()": "infinite",
            "totalSupply()": "2371",
            "transfer(address,uint256)": "53903",
            "transferFrom(address,address,uint256)": "infinite"
        },
        "internal": {
            "_msgSender()": "2942"
        }
    }
}