{
    "contractName": "TokenV1",
    "abi": [
        {
            "inputs": [],
            "stateMutability": "nonpayable",
            "type": "constructor"
        },
        {
            "anonymous": false,
            "inputs": [
                {
                    "indexed": true,
                    "internalType": "address",
                    "name": "owner",
                    "type": "address"
                },
                {
                    "indexed": true,
                    "internalType": "address",
                    "name": "spender",
                    "type": "address"
                },
                {
                    "indexed": false,
                    "internalType": "uint256",
                    "name": "value",
                    "type": "uint256"
                }
            ],
            "name": "Approval",
            "type": "event"
        },
        {
            "anonymous": false,
            "inputs": [
                {
                    "indexed": true,
                    "internalType": "bytes32",
                    "name": "role",
                    "type": "bytes32"
                },
                {
                    "indexed": true,
                    "internalType": "bytes32",
                    "name": "previousAdminRole",
                    "type": "bytes32"
                },
                {
                    "indexed": true,
                    "internalType": "bytes32",
                    "name": "newAdminRole",
                    "type": "bytes32"
                }
            ],
            "name": "RoleAdminChanged",
            "type": "event"
        },
        {
            "anonymous": false,
            "inputs": [
                {
                    "indexed": true,
                    "internalType": "bytes32",
                    "name": "role",
                    "type": "bytes32"
                },
                {
                    "indexed": true,
                    "internalType": "address",
                    "name": "account",
                    "type": "address"
                },
                {
                    "indexed": true,
                    "internalType": "address",
                    "name": "sender",
                    "type": "address"
                }
            ],
            "name": "RoleGranted",
            "type": "event"
        },
        {
            "anonymous": false,
            "inputs": [
                {
                    "indexed": true,
                    "internalType": "bytes32",
                    "name": "role",
                    "type": "bytes32"
                },
                {
                    "indexed": true,
                    "internalType": "address",
                    "name": "account",
                    "type": "address"
                },
                {
                    "indexed": true,
                    "internalType": "address",
                    "name": "sender",
                    "type": "address"
                }
            ],
            "name": "RoleRevoked",
            "type": "event"
        },
        {
            "anonymous": false,
            "inputs": [
                {
                    "indexed": true,
                    "internalType": "address",
                    "name": "from",
                    "type": "address"
                },
                {
                    "indexed": true,
                    "internalType": "address",
                    "name": "to",
                    "type": "address"
                },
                {
                    "indexed": false,
                    "internalType": "uint256",
                    "name": "value",
                    "type": "uint256"
                }
            ],
            "name": "Transfer",
            "type": "event"
        },
        {
            "stateMutability": "nonpayable",
            "type": "fallback"
        },
        {
            "inputs": [],
            "name": "DEFAULT_ADMIN_ROLE",
            "outputs": [
                {
                    "internalType": "bytes32",
                    "name": "",
                    "type": "bytes32"
                }
            ],
            "stateMutability": "view",
            "type": "function"
        },
        {
            "inputs": [
                {
                    "internalType": "address",
                    "name": "owner",
                    "type": "address"
                },
                {
                    "internalType": "address",
                    "name": "spender",
                    "type": "address"
                }
            ],
            "name": "allowance",
            "outputs": [
                {
                    "internalType": "uint256",
                    "name": "",
                    "type": "uint256"
                }
            ],
            "stateMutability": "view",
            "type": "function"
        },
        {
            "inputs": [
                {
                    "internalType": "address",
                    "name": "spender",
                    "type": "address"
                },
                {
                    "internalType": "uint256",
                    "name": "amount",
                    "type": "uint256"
                }
            ],
            "name": "approve",
            "outputs": [
                {
                    "internalType": "bool",
                    "name": "",
                    "type": "bool"
                }
            ],
            "stateMutability": "nonpayable",
            "type": "function"
        },
        {
            "inputs": [
                {
                    "internalType": "address",
                    "name": "account",
                    "type": "address"
                }
            ],
            "name": "balanceOf",
            "outputs": [
                {
                    "internalType": "uint256",
                    "name": "",
                    "type": "uint256"
                }
            ],
            "stateMutability": "view",
            "type": "function"
        },
        {
            "inputs": [],
            "name": "decimals",
            "outputs": [
                {
                    "internalType": "uint8",
                    "name": "",
                    "type": "uint8"
                }
            ],
            "stateMutability": "view",
            "type": "function"
        },
        {
            "inputs": [
                {
                    "internalType": "address",
                    "name": "spender",
                    "type": "address"
                },
                {
                    "internalType": "uint256",
                    "name": "subtractedValue",
                    "type": "uint256"
                }
            ],
            "name": "decreaseAllowance",
            "outputs": [
                {
                    "internalType": "bool",
                    "name": "",
                    "type": "bool"
                }
            ],
            "stateMutability": "nonpayable",
            "type": "function"
        },
        {
            "inputs": [
                {
                    "internalType": "bytes32",
                    "name": "role",
                    "type": "bytes32"
                }
            ],
            "name": "getRoleAdmin",
            "outputs": [
                {
                    "internalType": "bytes32",
                    "name": "",
                    "type": "bytes32"
                }
            ],
            "stateMutability": "view",
            "type": "function"
        },
        {
            "inputs": [
                {
                    "internalType": "bytes32",
                    "name": "role",
                    "type": "bytes32"
                },
                {
                    "internalType": "address",
                    "name": "account",
                    "type": "address"
                }
            ],
            "name": "grantRole",
            "outputs": [],
            "stateMutability": "nonpayable",
            "type": "function"
        },
        {
            "inputs": [
                {
                    "internalType": "bytes32",
                    "name": "role",
                    "type": "bytes32"
                },
                {
                    "internalType": "address",
                    "name": "account",
                    "type": "address"
                }
            ],
            "name": "hasRole",
            "outputs": [
                {
                    "internalType": "bool",
                    "name": "",
                    "type": "bool"
                }
            ],
            "stateMutability": "view",
            "type": "function"
        },
        {
            "inputs": [
                {
                    "internalType": "address",
                    "name": "spender",
                    "type": "address"
                },
                {
                    "internalType": "uint256",
                    "name": "addedValue",
                    "type": "uint256"
                }
            ],
            "name": "increaseAllowance",
            "outputs": [
                {
                    "internalType": "bool",
                    "name": "",
                    "type": "bool"
                }
            ],
            "stateMutability": "nonpayable",
            "type": "function"
        },
        {
            "inputs": [],
            "name": "name",
            "outputs": [
                {
                    "internalType": "string",
                    "name": "",
                    "type": "string"
                }
            ],
            "stateMutability": "view",
            "type": "function"
        },
        {
            "inputs": [
                {
                    "internalType": "bytes32",
                    "name": "role",
                    "type": "bytes32"
                },
                {
                    "internalType": "address",
                    "name": "account",
                    "type": "address"
                }
            ],
            "name": "renounceRole",
            "outputs": [],
            "stateMutability": "nonpayable",
            "type": "function"
        },
        {
            "inputs": [
                {
                    "internalType": "bytes32",
                    "name": "role",
                    "type": "bytes32"
                },
                {
                    "internalType": "address",
                    "name": "account",
                    "type": "address"
                }
            ],
            "name": "revokeRole",
            "outputs": [],
            "stateMutability": "nonpayable",
            "type": "function"
        },
        {
            "inputs": [
                {
                    "internalType": "bytes4",
                    "name": "interfaceId",
                    "type": "bytes4"
                }
            ],
            "name": "supportsInterface",
            "outputs": [
                {
                    "internalType": "bool",
                    "name": "",
                    "type": "bool"
                }
            ],
            "stateMutability": "view",
            "type": "function"
        },
        {
            "inputs": [],
            "name": "symbol",
            "outputs": [
                {
                    "internalType": "string",
                    "name": "",
                    "type": "string"
                }
            ],
            "stateMutability": "view",
            "type": "function"
        },
        {
            "inputs": [],
            "name": "totalSupply",
            "outputs": [
                {
                    "internalType": "uint256",
                    "name": "",
                    "type": "uint256"
                }
            ],
            "stateMutability": "view",
            "type": "function"
        },
        {
            "inputs": [
                {
                    "internalType": "address",
                    "name": "to",
                    "type": "address"
                },
                {
                    "internalType": "uint256",
                    "name": "amount",
                    "type": "uint256"
                }
            ],
            "name": "transfer",
            "outputs": [
                {
                    "internalType": "bool",
                    "name": "",
                    "type": "bool"
                }
            ],
            "stateMutability": "nonpayable",
            "type": "function"
        },
        {
            "inputs": [
                {
                    "internalType": "address",
                    "name": "from",
                    "type": "address"
                },
                {
                    "internalType": "address",
                    "name": "to",
                    "type": "address"
                },
                {
                    "internalType": "uint256",
                    "name": "amount",
                    "type": "uint256"
                }
            ],
            "name": "transferFrom",
            "outputs": [
                {
                    "internalType": "bool",
                    "name": "",
                    "type": "bool"
                }
            ],
            "stateMutability": "nonpayable",
            "type": "function"
        }
    ],
    "bytecode": "60806040527f600e5f1c60beb469a3fa6dd3814a4ae211cc6259a6d033bae218a742f2af01d36006553480156200003557600080fd5b50604051806040016040528060058152602001642a37b5b2b760d91b815250604051806040016040528060038152602001622a25a760e91b8152508160039081620000819190620001f2565b506004620000908282620001f2565b50620000a291506000905033620000a8565b620002be565b60008281526005602090815260408083206001600160a01b038516845290915290205460ff16620001495760008281526005602090815260408083206001600160a01b03851684529091529020805460ff19166001179055620001083390565b6001600160a01b0316816001600160a01b0316837f2f8788117e7eff1d82e926ec794901d17c78024a50270940304540a733656f0d60405160405180910390a45b5050565b634e487b7160e01b600052604160045260246000fd5b600181811c908216806200017857607f821691505b6020821081036200019957634e487b7160e01b600052602260045260246000fd5b50919050565b601f821115620001ed57600081815260208120601f850160051c81016020861015620001c85750805b601f850160051c820191505b81811015620001e957828155600101620001d4565b5050505b505050565b81516001600160401b038111156200020e576200020e6200014d565b62000226816200021f845462000163565b846200019f565b602080601f8311600181146200025e5760008415620002455750858301515b600019600386901b1c1916600185901b178555620001e9565b600085815260208120601f198616915b828110156200028f578886015182559484019460019091019084016200026e565b5085821015620002ae5787850151600019600388901b60f8161c191681555b5050505050600190811b01905550565b610faa80620002ce6000396000f3fe608060405234801561001057600080fd5b50600436106101165760003560e01c806339509351116100a2578063a217fddf11610071578063a217fddf14610302578063a457c2d71461030a578063a9059cbb1461031d578063d547741f14610330578063dd62ed3e1461034357610116565b806339509351146102ab57806370a08231146102be57806391d14854146102e757806395d89b41146102fa57610116565b806323b872dd116100e957806323b872dd14610240578063248a9ca3146102535780632f2ff15d14610276578063313ce5671461028957806336568abe1461029857610116565b806301ffc9a7146101de57806306fdde0314610206578063095ea7b31461021b57806318160ddd1461022e575b61012260065433610356565b156101dc57600080336001600160a01b0316600036604051610145929190610ca5565b600060405180830381855af49150503d8060008114610180576040519150601f19603f3d011682016040523d82523d6000602084013e610185565b606091505b5091509150816101d45760405162461bcd60e51b8152602060048201526015602482015274135251d490551253d38810d0531308119052531151605a1b60448201526064015b60405180910390fd5b805160208201f35b005b6101f16101ec366004610cb5565b610383565b60405190151581526020015b60405180910390f35b61020e6103b8565b6040516101fd9190610d03565b6101f1610229366004610d52565b61044a565b6002545b6040519081526020016101fd565b6101f161024e366004610d7c565b610462565b610232610261366004610db8565b60009081526005602052604090206001015490565b6101dc610284366004610dd1565b610486565b604051601281526020016101fd565b6101dc6102a6366004610dd1565b6104b0565b6101f16102b9366004610d52565b61052e565b6102326102cc366004610dfd565b6001600160a01b031660009081526020819052604090205490565b6101f16102f5366004610dd1565b610356565b61020e610550565b610232600081565b6101f1610318366004610d52565b61055f565b6101f161032b366004610d52565b6105da565b6101dc61033e366004610dd1565b6105e8565b610232610351366004610e18565b61060d565b60008281526005602090815260408083206001600160a01b038516845290915290205460ff165b92915050565b60006001600160e01b03198216637965db0b60e01b148061037d57506301ffc9a760e01b6001600160e01b031983161461037d565b6060600380546103c790610e42565b80601f01602080910402602001604051908101604052809291908181526020018280546103f390610e42565b80156104405780601f1061041557610100808354040283529160200191610440565b820191906000526020600020905b81548152906001019060200180831161042357829003601f168201915b5050505050905090565b600033610458818585610638565b5060019392505050565b60003361047085828561075c565b61047b8585856107d6565b506001949350505050565b6000828152600560205260409020600101546104a1816109a4565b6104ab83836109b1565b505050565b6001600160a01b03811633146105205760405162461bcd60e51b815260206004820152602f60248201527f416363657373436f6e74726f6c3a2063616e206f6e6c792072656e6f756e636560448201526e103937b632b9903337b91039b2b63360891b60648201526084016101cb565b61052a8282610a37565b5050565b600033610458818585610541838361060d565b61054b9190610e92565b610638565b6060600480546103c790610e42565b6000338161056d828661060d565b9050838110156105cd5760405162461bcd60e51b815260206004820152602560248201527f45524332303a2064656372656173656420616c6c6f77616e63652062656c6f77604482015264207a65726f60d81b60648201526084016101cb565b61047b8286868403610638565b6000336104588185856107d6565b600082815260056020526040902060010154610603816109a4565b6104ab8383610a37565b6001600160a01b03918216600090815260016020908152604080832093909416825291909152205490565b6001600160a01b03831661069a5760405162461bcd60e51b8152602060048201526024808201527f45524332303a20617070726f76652066726f6d20746865207a65726f206164646044820152637265737360e01b60648201526084016101cb565b6001600160a01b0382166106fb5760405162461bcd60e51b815260206004820152602260248201527f45524332303a20617070726f766520746f20746865207a65726f206164647265604482015261737360f01b60648201526084016101cb565b6001600160a01b0383811660008181526001602090815260408083209487168084529482529182902085905590518481527f8c5be1e5ebec7d5bd14f71427d1e84f3dd0314c0f7b2291e5b200ac8c7c3b925910160405180910390a3505050565b6000610768848461060d565b905060001981146107d057818110156107c35760405162461bcd60e51b815260206004820152601d60248201527f45524332303a20696e73756666696369656e7420616c6c6f77616e636500000060448201526064016101cb565b6107d08484848403610638565b50505050565b6001600160a01b03831661083a5760405162461bcd60e51b815260206004820152602560248201527f45524332303a207472616e736665722066726f6d20746865207a65726f206164604482015264647265737360d81b60648201526084016101cb565b6001600160a01b03821661089c5760405162461bcd60e51b815260206004820152602360248201527f45524332303a207472616e7366657220746f20746865207a65726f206164647260448201526265737360e81b60648201526084016101cb565b6001600160a01b038316600090815260208190526040902054818110156109145760405162461bcd60e51b815260206004820152602660248201527f45524332303a207472616e7366657220616d6f756e7420657863656564732062604482015265616c616e636560d01b60648201526084016101cb565b6001600160a01b0380851660009081526020819052604080822085850390559185168152908120805484929061094b908490610e92565b92505081905550826001600160a01b0316846001600160a01b03167fddf252ad1be2c89b69c2b068fc378daa952ba7f163c4a11628f55a4df523b3ef8460405161099791815260200190565b60405180910390a36107d0565b6109ae8133610a9e565b50565b6109bb8282610356565b61052a5760008281526005602090815260408083206001600160a01b03851684529091529020805460ff191660011790556109f33390565b6001600160a01b0316816001600160a01b0316837f2f8788117e7eff1d82e926ec794901d17c78024a50270940304540a733656f0d60405160405180910390a45050565b610a418282610356565b1561052a5760008281526005602090815260408083206001600160a01b0385168085529252808320805460ff1916905551339285917ff6391f5c32d9c69d2a47ea670b442974b53935d1edc7fd64eb21e047a839171b9190a45050565b610aa88282610356565b61052a57610ac0816001600160a01b03166014610b02565b610acb836020610b02565b604051602001610adc929190610ea5565b60408051601f198184030181529082905262461bcd60e51b82526101cb91600401610d03565b60606000610b11836002610f1a565b610b1c906002610e92565b67ffffffffffffffff811115610b3457610b34610f31565b6040519080825280601f01601f191660200182016040528015610b5e576020820181803683370190505b509050600360fc1b81600081518110610b7957610b79610f47565b60200101906001600160f81b031916908160001a905350600f60fb1b81600181518110610ba857610ba8610f47565b60200101906001600160f81b031916908160001a9053506000610bcc846002610f1a565b610bd7906001610e92565b90505b6001811115610c4f576f181899199a1a9b1b9c1cb0b131b232b360811b85600f1660108110610c0b57610c0b610f47565b1a60f81b828281518110610c2157610c21610f47565b60200101906001600160f81b031916908160001a90535060049490941c93610c4881610f5d565b9050610bda565b508315610c9e5760405162461bcd60e51b815260206004820181905260248201527f537472696e67733a20686578206c656e67746820696e73756666696369656e7460448201526064016101cb565b9392505050565b8183823760009101908152919050565b600060208284031215610cc757600080fd5b81356001600160e01b031981168114610c9e57600080fd5b60005b83811015610cfa578181015183820152602001610ce2565b50506000910152565b6020815260008251806020840152610d22816040850160208701610cdf565b601f01601f19169190910160400192915050565b80356001600160a01b0381168114610d4d57600080fd5b919050565b60008060408385031215610d6557600080fd5b610d6e83610d36565b946020939093013593505050565b600080600060608486031215610d9157600080fd5b610d9a84610d36565b9250610da860208501610d36565b9150604084013590509250925092565b600060208284031215610dca57600080fd5b5035919050565b60008060408385031215610de457600080fd5b82359150610df460208401610d36565b90509250929050565b600060208284031215610e0f57600080fd5b610c9e82610d36565b60008060408385031215610e2b57600080fd5b610e3483610d36565b9150610df460208401610d36565b600181811c90821680610e5657607f821691505b602082108103610e7657634e487b7160e01b600052602260045260246000fd5b50919050565b634e487b7160e01b600052601160045260246000fd5b8082018082111561037d5761037d610e7c565b7f416363657373436f6e74726f6c3a206163636f756e7420000000000000000000815260008351610edd816017850160208801610cdf565b7001034b99036b4b9b9b4b733903937b6329607d1b6017918401918201528351610f0e816028840160208801610cdf565b01602801949350505050565b808202811582820484141761037d5761037d610e7c565b634e487b7160e01b600052604160045260246000fd5b634e487b7160e01b600052603260045260246000fd5b600081610f6c57610f6c610e7c565b50600019019056fea264697066735822122035a8a39bb3d9fcdf4c16c3ee99764bd55b2b2f3e9269159c79db72b2ce35098664736f6c63430008110033",
    "sourcePath": "/Users/kevinkeaveney/Projects/Headz/contracts/Securem/Race12.sol",
    "compiler": {
        "name": "solc",
        "version": "0.8.17+commit.8df45f5f"
    },
    "functionHashes": {
        "DEFAULT_ADMIN_ROLE()": "a217fddf",
        "allowance(address,address)": "dd62ed3e",
        "approve(address,uint256)": "095ea7b3",
        "balanceOf(address)": "70a08231",
        "decimals()": "313ce567",
        "decreaseAllowance(address,uint256)": "a457c2d7",
        "getRoleAdmin(bytes32)": "248a9ca3",
        "grantRole(bytes32,address)": "2f2ff15d",
        "hasRole(bytes32,address)": "91d14854",
        "increaseAllowance(address,uint256)": "39509351",
        "name()": "06fdde03",
        "renounceRole(bytes32,address)": "36568abe",
        "revokeRole(bytes32,address)": "d547741f",
        "supportsInterface(bytes4)": "01ffc9a7",
        "symbol()": "95d89b41",
        "totalSupply()": "18160ddd",
        "transfer(address,uint256)": "a9059cbb",
        "transferFrom(address,address,uint256)": "23b872dd"
    },
    "gasEstimates": {
        "creation": {
            "codeDepositCost": "802000",
            "executionCost": "infinite",
            "totalCost": "infinite"
        },
        "external": {
            "": "infinite",
            "DEFAULT_ADMIN_ROLE()": "217",
            "allowance(address,address)": "infinite",
            "approve(address,uint256)": "24658",
            "balanceOf(address)": "2585",
            "decimals()": "266",
            "decreaseAllowance(address,uint256)": "26983",
            "getRoleAdmin(bytes32)": "2489",
            "grantRole(bytes32,address)": "infinite",
            "hasRole(bytes32,address)": "2723",
            "increaseAllowance(address,uint256)": "26995",
            "name()": "infinite",
            "renounceRole(bytes32,address)": "29114",
            "revokeRole(bytes32,address)": "infinite",
            "supportsInterface(bytes4)": "461",
            "symbol()": "infinite",
            "totalSupply()": "2371",
            "transfer(address,uint256)": "51242",
            "transferFrom(address,address,uint256)": "infinite"
        }
    }
}