{
    "contractName": "Vault",
    "abi": [
        {
            "inputs": [
                {
                    "internalType": "address",
                    "name": "token",
                    "type": "address"
                }
            ],
            "stateMutability": "nonpayable",
            "type": "constructor"
        },
        {
            "inputs": [],
            "name": "UNDERLYING",
            "outputs": [
                {
                    "internalType": "address",
                    "name": "",
                    "type": "address"
                }
            ],
            "stateMutability": "view",
            "type": "function"
        },
        {
            "inputs": [
                {
                    "internalType": "address",
                    "name": "",
                    "type": "address"
                }
            ],
            "name": "balances",
            "outputs": [
                {
                    "internalType": "uint256",
                    "name": "",
                    "type": "uint256"
                }
            ],
            "stateMutability": "view",
            "type": "function"
        },
        {
            "inputs": [
                {
                    "internalType": "uint256",
                    "name": "amount",
                    "type": "uint256"
                }
            ],
            "name": "deposit",
            "outputs": [],
            "stateMutability": "nonpayable",
            "type": "function"
        },
        {
            "inputs": [
                {
                    "internalType": "address",
                    "name": "target",
                    "type": "address"
                },
                {
                    "internalType": "uint256",
                    "name": "amount",
                    "type": "uint256"
                },
                {
                    "internalType": "uint256",
                    "name": "deadline",
                    "type": "uint256"
                },
                {
                    "internalType": "uint8",
                    "name": "v",
                    "type": "uint8"
                },
                {
                    "internalType": "bytes32",
                    "name": "r",
                    "type": "bytes32"
                },
                {
                    "internalType": "bytes32",
                    "name": "s",
                    "type": "bytes32"
                },
                {
                    "internalType": "address",
                    "name": "to",
                    "type": "address"
                }
            ],
            "name": "depositWithPermit",
            "outputs": [],
            "stateMutability": "nonpayable",
            "type": "function"
        },
        {
            "inputs": [
                {
                    "internalType": "address",
                    "name": "token",
                    "type": "address"
                }
            ],
            "name": "sweep",
            "outputs": [],
            "stateMutability": "nonpayable",
            "type": "function"
        },
        {
            "inputs": [
                {
                    "internalType": "uint256",
                    "name": "amount",
                    "type": "uint256"
                }
            ],
            "name": "withdraw",
            "outputs": [],
            "stateMutability": "nonpayable",
            "type": "function"
        }
    ],
    "bytecode": "608060405234801561001057600080fd5b506040516106d73803806106d783398101604081905261002f91610054565b600080546001600160a01b0319166001600160a01b0392909216919091179055610084565b60006020828403121561006657600080fd5b81516001600160a01b038116811461007d57600080fd5b9392505050565b610644806100936000396000f3fe608060405234801561001057600080fd5b50600436106100625760003560e01c806301681a621461006757806327e235e31461007c5780632e1a7d4d146100af57806381a37c18146100c2578063b6b55f25146100d5578063c5d664c6146100e8575b600080fd5b61007a6100753660046104e4565b610113565b005b61009c61008a3660046104e4565b60016020526000908152604090205481565b6040519081526020015b60405180910390f35b61007a6100bd366004610506565b610252565b61007a6100d036600461051f565b6102ef565b61007a6100e3366004610506565b61042d565b6000546100fb906001600160a01b031681565b6040516001600160a01b0390911681526020016100a6565b6000546001600160a01b0380831691160361016d5760405162461bcd60e51b815260206004820152601660248201527563616e277420737765657020756e6465726c79696e6760501b604482015260640160405180910390fd5b6040516370a0823160e01b81523060048201526001600160a01b0382169063a9059cbb90339083906370a0823190602401602060405180830381865afa1580156101bb573d6000803e3d6000fd5b505050506040513d601f19601f820116820180604052508101906101df9190610591565b6040516001600160e01b031960e085901b1681526001600160a01b03909216600483015260248201526044016020604051808303816000875af115801561022a573d6000803e3d6000fd5b505050506040513d601f19601f8201168201806040525081019061024e91906105aa565b5050565b60005460405163a9059cbb60e01b8152336004820152602481018390526001600160a01b039091169063a9059cbb906044016020604051808303816000875af11580156102a3573d6000803e3d6000fd5b505050506040513d601f19601f820116820180604052508101906102c791906105aa565b5033600090815260016020526040812080548392906102e79084906105e2565b909155505050565b60005460405163d505accf60e01b81526001600160a01b038981166004830152306024830152604482018990526064820188905260ff8716608483015260a4820186905260c482018590529091169063d505accf9060e401600060405180830381600087803b15801561036157600080fd5b505af1158015610375573d6000803e3d6000fd5b50506000546040516323b872dd60e01b81526001600160a01b038b81166004830152306024830152604482018b905290911692506323b872dd91506064016020604051808303816000875af11580156103d2573d6000803e3d6000fd5b505050506040513d601f19601f820116820180604052508101906103f691906105aa565b506001600160a01b0381166000908152600160205260408120805488929061041f9084906105fb565b909155505050505050505050565b6000546040516323b872dd60e01b8152336004820152306024820152604481018390526001600160a01b03909116906323b872dd906064016020604051808303816000875af1158015610484573d6000803e3d6000fd5b505050506040513d601f19601f820116820180604052508101906104a891906105aa565b5033600090815260016020526040812080548392906102e79084906105fb565b80356001600160a01b03811681146104df57600080fd5b919050565b6000602082840312156104f657600080fd5b6104ff826104c8565b9392505050565b60006020828403121561051857600080fd5b5035919050565b600080600080600080600060e0888a03121561053a57600080fd5b610543886104c8565b96506020880135955060408801359450606088013560ff8116811461056757600080fd5b93506080880135925060a0880135915061058360c089016104c8565b905092959891949750929550565b6000602082840312156105a357600080fd5b5051919050565b6000602082840312156105bc57600080fd5b815180151581146104ff57600080fd5b634e487b7160e01b600052601160045260246000fd5b818103818111156105f5576105f56105cc565b92915050565b808201808211156105f5576105f56105cc56fea26469706673582212201f22ce7cb83881822854772d9103bb571bef70fd6a181f846b87bf843fc2345864736f6c63430008110033",
    "sourcePath": "/Users/kevinkeaveney/Projects/Headz/contracts/Securem/Race12.sol",
    "compiler": {
        "name": "solc",
        "version": "0.8.17+commit.8df45f5f"
    },
    "functionHashes": {
        "UNDERLYING()": "c5d664c6",
        "balances(address)": "27e235e3",
        "deposit(uint256)": "b6b55f25",
        "depositWithPermit(address,uint256,uint256,uint8,bytes32,bytes32,address)": "81a37c18",
        "sweep(address)": "01681a62",
        "withdraw(uint256)": "2e1a7d4d"
    },
    "gasEstimates": {
        "creation": {
            "codeDepositCost": "320800",
            "executionCost": "infinite",
            "totalCost": "infinite"
        },
        "external": {
            "UNDERLYING()": "2425",
            "balances(address)": "2508",
            "deposit(uint256)": "infinite",
            "depositWithPermit(address,uint256,uint256,uint8,bytes32,bytes32,address)": "infinite",
            "sweep(address)": "infinite",
            "withdraw(uint256)": "infinite"
        }
    }
}